:020000040800F2
:1000000078120020F10100084D530008D54800087F
:100010002D530008F5090008ED60000800000000FD
:10002000000000000000000000000000675B000806
:10003000910A00080000000071530008695B000885
:100040000B0200080B0200080B0200080B0200085C
:100050000B0200080B0200080B0200080B0200084C
:100060000B0200080B0200080B020008150A00082A
:10007000210A00080B0200080B0200080B0200080E
:100080000B0200080B0200089D0200080B0200088A
:100090000B0200080B0200080B0200080B0200080C
:1000A0000B020008215C00080B020008E15B00085D
:1000B0000B0200080B0200080B0200080B020008EC
:1000C0000B0200080B0200080B0200080B020008DC
:1000D0000B0200080B0200080B0200080B020008CC
:1000E0000B0200080B0200080B0200080B020008BC
:1000F0000B0200080B0200080B0200080B020008AC
:100100000B0200080B0200080B0200080B0200089B
:100110000B0200080B0200082D5C0008495C000877
:100120000B0200080B0200080B0200080B0200087B
:100130000B0200080B0200080B0200080B0200086B
:100140000B0200080B0200080B0200080B0200085B
:100150000B0200080B0200080B0200080B0200084B
:100160000B0200080B0200080B0200080B0200083B
:100170000B0200080B0200080B0200080B0200082B
:100180000B0200080B0200080B0200080B0200081B
:100190000B020008000000000B0200080B02000820
:1001A0000B0200080B0200080B0200080B020008FB
:1001B0000B0200080B0200080B0200080B020008EB
:1001C0000B0200080B0200080B0200080B020008DB
:1001D0000B0200080B020008DFF810D000F046F810
:1001E0000048004745690008AFF3008078120020FE
:1001F0000648804706480047FEE7FEE7FEE7FEE7C1
:10020000FEE7FEE7FEE7FEE7FEE7FEE7D15B00085C
:10021000D901000840EA01039B0703D009E008C99F
:10022000121F08C0042AFAD203E011F8013B00F8BB
:10023000013B521EF9D27047D2B201E000F8012B07
:10024000491EFBD270470022F6E710B513460A4656
:1002500004461946FFF7F0FF204610BD421C10F877
:10026000011B0029FBD1801A70470000064C074D86
:1002700006E0E06840F0010394E807009847103476
:10028000AC42F6D3FFF7ACFF38B6000878B60008EA
:1002900040F2010CC1F2000C6047000010B50448A8
:1002A00001F026FDBDE81040024801F021BD00002C
:1002B00044050020B00500202DE9F04104460E461B
:1002C0000025006804F008FD0746206804F0F4FCEF
:1002D00007435BD02068C168890111D5617F01297E
:1002E0000ED1217F01290BD10126294902E08D423F
:1002F0003DD26D1C0268D2435206F8D44021016001
:10030000244D022E0FD0206804F0E6FC48B120688E
:100310008168C1F3400121B98168294041F0100191
:100320008160012E0DD0206804F0C6FC48B1206821
:100330008168C1F3400121B98168294041F0200161
:100340008160022E08D0032E04D0042502F0C0FCE8
:10035000064617E00C25F9E70825F7E702F0B8FC98
:10036000801B05280ED92068806828420AD0E06DDD
:1003700040F01000E065206E40F001002066012092
:10038000BDE8F081206880682842E7D10020F7E7C7
:10039000000040A3C0FFFF7F70B50446006881687D
:1003A000C1F3400504F090FC48B345BB2068816868
:1003B00001F00D01012914D18168124A1140891CF4
:1003C000816021680320086002F082FC054612E08B
:1003D00002F07EFC401B02280DD920688068C0070F
:1003E00009D0E06D40F01000E065206E40F00100A3
:1003F0002066012070BD20688068C007E8D1002019
:1004000070BD0000C0FFFF7FF8B5044600200090DB
:10041000206804F059FCE8BB20688168264A114234
:1004200037D18168D6433140491C81602068B0F1E2
:10043000A04F02D02149884201D1214800E0214843
:10044000806800F0E07000020DD51F481F49006869
:10045000B0FBF1F0401C00EB4000800000E0401ECB
:1004600000900028FBD102F033FC05461DE004F0AB
:100470002BFC20B9206881683140491C816002F062
:1004800027FC401B022810D920680068C043C00721
:100490000BD000E00EE0E06D40F01000E065206E53
:1004A00040F0010020660120F8BD20680168C943C2
:1004B000C907DCD10020F8BD3F00008000010050DA
:1004C000000300500007005010000020400D030002
:1004D000052801D300207047014931F8100070470A
:1004E000A409002030B589B00D4604462021684695
:1004F000FFF7A9FE0620CDE9004004207F21CDE9C9
:10050000020104900020059069460D4801F0B8F9F9
:10051000002812D10A4801F075FF00280DD10221F0
:10052000074801F0D3FE040003D1054801F0DCFBCD
:100530002880034802F002F8204609B030BD0000D0
:10054000B0050020F8B50F4C607838B97F210E480F
:1005500000F026FD002814D1012060700B4D0C4ED8
:100560000024694655F82400FFF7BCFF002808D195
:10057000BDF8000026F81400641CE4B2052CF0D38A
:100580000020F8BDD0000020B0050020486C000815
:10059000A4090020042802D39FED040A70470449EF
:1005A00001EB800090ED000A7047000000000000A1
:1005B000DC00002000B5FFF7EDFFDFED040A9FED42
:1005C000041A60EE200A80EE810A00BD33335340E6
:1005D00000F07F45054810B590ED000A0838008806
:1005E00000F032F8B1EE400A10BD0000DC0000203F
:1005F000054810B590ED010A0838408800F024F84D
:10060000B1EE400A10BD0000DC000020054810B526
:1006100090ED020A0838808800F016F8B1EE400A22
:1006200010BD0000DC000020042801D3002070472A
:10063000014931F810007047D400002001480078CB
:1006400070470000D000002000EE900A9FED041AD1
:10065000F8EE600A30EEC00A20EE010A7047000092
:100660000000303B10B50020094A9FED0A0A0A4BF2
:10067000014642F8201003EB8004401CC0B284ED18
:10068000000A0428F5D304480C384180017010BDDD
:10069000B009002000000045DC00002010B5EFF399
:1006A000108472B6FFF7DEFF002C00D162B610BDD9
:1006B00010B5FFF7D7FF7F21054800F071FC002837
:1006C00004D1BDE81040024800F084BF10BD000016
:1006D0004405002070B5050003D02868B0F1A04F94
:1006E00001D0002070BD4FF40061254802F0E3FA0C
:1006F0000921284600F056FF224C208040F20F11BD
:10070000284600F04FFF608040F21521284600F097
:1007100049FFA08040F21B31284600F043FFE080F3
:10072000221F107850BB1849002051F8203034F8AF
:1007300010502B4441F82030401CC0B20428F4D3A0
:100740005088401C50805088B0F5806F16D30D4BF8
:1007500000209FED0E0A083351F8204000EE904A29
:1007600003EB8004401CF8EE600AC0B2042860EE7F
:10077000800AC4ED000AEFD301201070012070BD83
:1007800000040048D4000020B00900200000803A96
:100790000B4A012807D0022807D0032807D00428D5
:1007A00008D000207047402106E0802104E04FF48B
:1007B000807101E04FF40071104602F077BA00003A
:1007C0000008004810B500F019F8010A4900020CB1
:1007D00041EA82010143C8B210BD40214FF0904070
:1007E00002F064BA80214FF0904002F05FBA00003E
:1007F0000121014802F05ABA0004004808B5FFF789
:10080000ECFF8DF80000FFF7EDFF8DF80100FFF71A
:10081000EFFF0146BDF8000040EA014008BD06F0C8
:1008200017B9FEB518264FF6FF7500248DE8700045
:1008300092B204F0A7F9FEBD02480068C06A80B217
:100840007047000058070020002801DA0020704798
:10085000884201DD0846704780B27047044B10B5EE
:100860001C686063186881631868C26310BD00006B
:10087000580700202DE9F041FFF7DEFF044601EEA6
:10088000904AB6EE002A2146F8EE611A61EE821A0D
:100890009FED182AC0EE022AB0EE610A02EEA10A0C
:1008A000C0EE822ABDEEC00A10EE106AB0EE610AF8
:1008B000C1EE020A02EEA10ABDEEC00A10EE105A05
:1008C000B0EE610A00EEA10ABDEEC00A10EE100AF9
:1008D000FFF7BAFF074621462846FFF7B5FF054652
:1008E00021463046FFF7B0FF3A462946BDE8F041C1
:1008F000FFF7B4BF0000C84210B5FFF79DFFC0EB83
:10090000C0000A21B0FBF1F0084980B20968086410
:10091000002211461B2002F041FA1B2002F030FA9F
:10092000BDE810400C21014803F030BE58070020FC
:1009300010B5FFF781FF400802461146FFF78EFF12
:100940000021104803F092FDC8B900210D4803F0C2
:10095000F1F9A0B904210B4803F088FD78B904210E
:10096000084803F0E7F950B90821064803F07EFD76
:1009700028B90821034803F0DDF9002800D0012040
:1009800010BD00005807002010B50C210E4803F0E0
:10099000A9FE08210C4803F035FA08210A4803F0A3
:1009A000A1FE0421084803F02DFA0421064803F0B3
:1009B00099FE0021044803F025FABDE8104000210B
:1009C000014803F08FBE00005807002010B50068F2
:1009D000B0F1804F09D10021044803F0DFFE034944
:1009E0000020096848630249087010BDA407002070
:1009F000F0000020204600F02DF90146224602A01A
:100A000000F032F9FEE700004275734661756C74C0
:100A100000000000014801F0A1BF0000F80600201E
:100A2000014801F09BBF0000880800200D490268C2
:100A30008A4201D20C4901E00B492031D2B2142381
:100A4000083AB2FBF3F2436C02F01F0223F00303F7
:100A50001944816404498031C164012191400165D8
:100A60007047000008040240000802400179074A6C
:100A700002EB81024265054A4432491E826501F05B
:100A80001F0201219140C16570470000FC0802402F
:100A9000704700001FB50D48FF2101704170002113
:100AA000817010380278002A0FD101220270502282
:100AB0004FF6FF73CDE9003287200023CDE9020114
:100AC00003A21946184603F0E9FF1FBDA400002049
:100AD000464F4300704700000EB50C48FF210170DF
:100AE00000214170817010384278002A0DD1012216
:100AF000427010204FF6FF72CDE9002000230291D2
:100B000003A21946184604F07CF80EBDA40000208C
:100B1000594A52515A3737370000000070B52DED51
:100B2000028BFFF74FFE00F079F828480021FF22E2
:100B300001704270A0F110048170A078401CC0B216
:100B4000A0700A283ED3A1700320FFF7C1FC024623
:100B5000042330210020FFF764FE05F00BFB9FED1E
:100B60001C8A20EE080ABCEEC00A10EE100A85B2FC
:100B700005F006FB20EE080A04232A464821BCEEB5
:100B8000C00A10EE100A86B20020FFF74AFE0423C6
:100B9000324660210020FFF744FE022005F0B6FA3D
:100BA0000246012300216020FFF73BFEA2880623B6
:100BB000501CA0800021BDEC028B7820BDE8704065
:100BC000FFF72FBEBDEC028B70BD0000A40000201B
:100BD00000007A4405A1002004F0D6FD22460AA1B7
:100BE000002004F0DEFD72B6FEE700000D0A2A2A9E
:100BF0002A204572726F725F48616E646C65722064
:100C00002A2A2A200000000043616C6C65723D3086
:100C1000782530386C580D0A00000000024890ED2D
:100C2000130AD0ED140A70471400002000B589B0F3
:100C3000242207496846FFF7EDFA80210448FFF7B0
:100C400002FB242269460248FFF7E4FA09B000BD1E
:100C500014000020400702D4EFF3088001E0EFF316
:100C600009808069704700002DE9F047824664489A
:100C700015460F460468001D066861480C30D0F820
:100C80000080001DD0F800905EA1002004F07CFDE3
:100C90005146002004F078FD5CA1002004F074FDB2
:100CA0002B463A465BA1002004F07BFD33462246EA
:100CB00060A1002004F075FD14F0FF0F28D0E5B20C
:100CC0002A4663A1002004F06CFDE80703D064A16C
:100CD000002004F059FDA80703D564A1002004F00A
:100CE00053FD280703D564A1002004F04DFDE8065C
:100CF00003D564A1002004F047FD280604D5424630
:100D000063A1002004F04DFD41A1002004F03CFD52
:100D100014F47F4F2FD0C4F307252A4660A100208A
:100D200004F03FFDE80703D061A1002004F02CFD92
:100D3000A80703D561A1002004F026FD680703D5AC
:100D400061A1002004F020FD280703D562A1002046
:100D500004F01AFDE80603D562A1002004F014FD9A
:100D6000280604D54A4661A1002004F01AFD28A1F6
:100D7000002004F009FD200C27D0240C22465FA19E
:100D8000002004F00EFDE00703D060A1002004F075
:100D9000FBFCA00703D560A1002004F0F5FC600770
:100DA00003D560A1002004F0EFFC200703D55FA16C
:100DB000002004F0E9FCE00503D55EA1002004F06A
:100DC000E3FC13A1002004F0DFFC700003D55CA15C
:100DD000002004F0D9FC002E03DA65A1002004F005
:100DE000D3FC6AA1002004F0CFFC5146002004F09F
:100DF000CBFCBDE8F04767A1002004F0C5BC0000B3
:100E000028ED00E00D0A3D3D3D200000203D3D3D28
:100E10000D0A000050433D30782530386C5820458D
:100E200058435F52455455524E3D30782530386C0A
:100E3000580D0A00434653523D30782530386C58DF
:100E400020484653523D30782530386C580D0A0002
:100E50004D4D4653523D30782530326C58000000DD
:100E6000204941434356494F4C0000002044414330
:100E70004356494F4C000000204D554E53544B45AE
:100E800052520000204D53544B4552520000000076
:100E9000204D4D4641523D30782530386C58000089
:100EA000424653523D30782530326C5800000000E5
:100EB00020494255534552520000000020505245EF
:100EC000434953455252000020494D505245434931
:100ED000534552520000000020554E53544B45528A
:100EE000520000002053544B4552520020424641CC
:100EF000523D30782530386C58000000554653522A
:100F00003D30782530346C580000000020554E44A8
:100F10004546494E5354520020494E56535441546D
:100F20004500000020494E5650430000204E4F43DC
:100F3000500000002044495642595A45524F000083
:100F40005B464F524345445D20E58FAFE9858DE711
:100F5000BDAEE69585E99A9CE58D87E7BAA7E4B82A
:100F6000BAE7A1ACE69585E99A9C5C720A0000009C
:100F70005B44454255474556545D20E8B083E8AF91
:100F800095E4BA8BE4BBB60D0A0000003D3D3D2060
:100F90000000000020454E44203D3D3D0D0A00006C
:100FA000F8B500250446009590F858000E46012833
:100FB0000BD0012084F858002046FFF7EDF902001D
:100FC000E06D04D040F010002AE00220F8BD20F4CB
:100FD000885040F00200E06520688168134B19409A
:100FE00006F08043194341F000418160104B2068B6
:100FF0000EE00099491C0091994209D3E06D20F060
:10100000020040F01000E06584F858500120F8BD5F
:101010008168C90FEDD1E06D20F0020040F00100C1
:10102000E06584F858501046F8BD0000C0FFFF3F4F
:1010300002DE0400704700002DE9F84F4FF0000970
:101040000446CDF800900D4694F85820DFF800844F
:1010500061694F464846012A0AD00126FD4A84F8B4
:10106000586041B1296A012905D0A36EEBB129E08E
:101070000220BDE8F88F6868092838D1A96A4FF4C2
:10108000785041B12B6801F07C0100EA53400843DD
:10109000E96A084302E0296800EA51402168CB6C04
:1010A00013400343CB64606621E0C4E91971A96A67
:1010B000286A31B101F07C01401E0843E96A084307
:1010C00000E0401E2968C1F38463297901F01F0103
:1010D0008B40A16E0343491EA166606E40EA030087
:1010E000606604D12168CB6C13400343CB64206855
:1010F00003F0E6FD58B995F8250098B12068C1685D
:1011000095F8262021F4401141EA4251C16020683F
:1011100003F0E6FD8246206803F0D2FD5AEA0001A2
:101120000DD0FAE095F8260095F82410400540EA25
:1011300001512068C26822F440121143E6E7A86A10
:1011400030B1E86A20B195F8250001285DD003E0B0
:1011500095F82500012804D02068C16821F00071AD
:1011600003E02068C16841F00071C16095F830006B
:10117000012851D02068016921F002010161AA68AB
:1011800029682068B2F1004F37D003F0C4FD206811
:10119000416921F00041416120686969C268C2F378
:1011A000C102520091402A69042A43D000EB820018
:1011B0002B68026EDFF8A0C203F0F84302EA0C02CB
:1011C0000B431A4342F00041016622682869A9696D
:1011D00002EB8000026E22F080720A430266297FD1
:1011E00022682869012922D0002102EB8000026ECA
:1011F00022F000720A4302668FE0002203F08BFDAA
:101200002068416941F00041C5E7E06D40F02000F1
:10121000E0654FF00109A9E7D5E90D100143206809
:10122000026922F4FF7242F002021143A6E74FF076
:101230000071DAE7002103F039FD400320684FF028
:10124000000171D003F032FD90FAA0F0B0FA80F105
:10125000286842036DD090FAA0F0B0FA80F0814285
:1012600004D100221146206803F06CFD01212068A2
:1012700003F01CFD400320684FF001015CD003F037
:1012800015FD90FAA0F0B0FA80F12868420358D01A
:1012900090FAA0F0B0FA80F0814204D1002201213E
:1012A000206803F04FFD0221206803F0FFFC40039B
:1012B00020684FF0020147D003F0F8FC90FAA0F04C
:1012C000B0FA80F12868420343D090FAA0F0B0FA57
:1012D00080F0814204D100220221206803F032FD17
:1012E0000321206803F0E2FC400320684FF0030173
:1012F00032D003F0DBFC90FAA0F0B0FA80F128685D
:1013000042032ED090FAA0F0B0FA80F0814204D1CE
:1013100000220321206803F015FD206803F0D8FCAB
:1013200010B3B3E000E004E003F0C0FCC0F384615C
:101330008EE7C0F3846092E703F0B8FCC0F38461E9
:10134000A3E7C0F38460A7E703F0B0FCC0F38461B7
:10135000B8E7C0F38460BCE703F0A8FCC0F3846185
:10136000CDE7C0F38460D1E721682A7B286851F873
:10137000B03FC0F3120C23EA0C0302F0180C374AFA
:1013800022FA0CF2024013430B60E96841457DD11B
:10139000286841031AD090FAA0F1B1FA81F1491CF2
:1013A00001F01F0109294FEA403130D8002910D03F
:1013B00090FAA0F1B1FA81F101F1010101F01F01F0
:1013C00006FA01F608D1C0F3846109E0C0F3846134
:1013D000E5E7C0F38461EFE790FAA0F1B1FA81F19B
:1013E00001F1010101F01F0146EA816102D1C0F360
:1013F000846003E090FAA0F0B0FA80F000F1010000
:1014000000F01F0000EB400041EA00513AE00029E3
:101410000DD090FAA0F1B1FA81F101F1010101F0D2
:101420001F0106FA01F605D1C0F3846106E0C0F39E
:101430008461F2E790FAA0F1B1FA81F101F10101C2
:1014400001F01F0146EA81610BD1C0F384600CE01A
:1014500000007F400040100400F0FF03FFFF070082
:1014600014E090FAA0F0B0FA80F000F1010000F072
:101470001F003A4A00EB400002EB005041EA000135
:1014800041F00071AA68206803F045FC34482A68DE
:1014900002425ED020684FF0A04C324B324E334DAA
:1014A000604501D0A84201D1194600E03146896863
:1014B000DFF8BC8001F0E071424503D0DFF8B48072
:1014C000424520D15FEA01281DD4604505D02A4A53
:1014D00090423ED1A84200D0334641F400009968C2
:1014E00021F0E07101439960244825490068B0FB70
:1014F000F1F0801C00EB4000800000E0401E0090F6
:101500000028FBD125E0DFF87C8042450FD15FEA5F
:10151000C1180CD4A84202D11B4A904219D0604590
:1015200002D0A84200D0334641F080700CE0DFF8D2
:101530005C8042450DD14A020BD4A84209D06045D7
:1015400000D0334641F48000996821F0E0710143F6
:10155000996084F8587048468BE50000000020FE32
:1015600000000880000300500007005000010050F8
:10157000000021C31000C0900006005010000020A1
:10158000400D0300000052C700050050000084CB4E
:1015900010B5FFF79FF8002803D0BDE81040FEF714
:1015A00077BE10BD0068A1F580710F390ED0B1F57E
:1015B000837F08D0B1F5037F02D0D0F88000704758
:1015C000D0F88C007047D0F888007047D0F88400BD
:1015D000704770472DE9F041044600684FF0A0467F
:1015E0004C4FB04201D0B84201D14B4900E04B49C9
:1015F000896801F01F0503F063FB08BB2068C16820
:10160000C06C01F0004110F4C07F00D191B194F89A
:101610005800012814D0012084F858002046FEF715
:10162000F3FE01004FF000020CD084F85820084669
:10163000BDE8F081E06D40F02000E0650120F7E7B3
:101640000220F5E7E06DC00504D5206E20F008000B
:10165000206600E02266E06D42F20103984340F408
:101660008050E06520682E4BDFF8B8C0B84201D149
:10167000B64604E0984201D1E64600E0864686453B
:1016800000D02DB9D4F85CE02EF4801EC4F85CE0E4
:101690004FF0600EC0F800E084F858202068C2685F
:1016A000920203D5426842F480624260A069082831
:1016B0002068426807D022F04002426020684268F9
:1016C00042F0200206E022F02002426020684268D8
:1016D00042F0400242602068B84204D0984201D1F2
:1016E000664600E00646864209D045B1062D06D082
:1016F000072D04D0E06D40F48010E06597E7C268E4
:1017000012F0007F93D18268074B1A4042F0080222
:1017100082608CE700010050000300500007005079
:101720000005005000040050C0FFFF7F7047704765
:101730002DE9F04F044690F858009BB00D464FF04D
:10174000000B012812D0012084F8580000271797B9
:10175000189720684FF0A048DFF80C91DFF80CA133
:10176000434E404506D13046009608E002201BB0AB
:10177000BDE8F08F48450AD15046CDF800A003F0EF
:10178000AFFA0090206803F0ABFA40B109E0E06DD9
:1017900040F02000E06584F858700120E7E70098E9
:1017A00048B1E06D40F02000E0654FF0010B84F897
:1017B00058705846DBE72068C446604501D0B04207
:1017C00001D12C4800E02C4829682C4B0029816865
:1017D00040F61F7221F4604128D094F8388041EA25
:1017E0004831D5F8048041EA0801816021686145EB
:1017F00001D0B14205D1DCF80810B368C1F3000193
:1018000009E0D9F80810DAF80860C1F30001C6F35E
:1018100000069B683143C3F300031943C7D1AB688B
:10182000296819438368934319431BE08160216849
:10183000614501D0B14205D1DCF80810B368C1F3AD
:10184000000109E0D9F80810DAF80850C1F30001E6
:10185000C5F300059B682943C3F300031943A6D1D0
:10186000816891438160A2E70004005000050050A8
:101870000001005000030050000700500006005017
:101880002DE9F84F00270446009790F85800DFF83C
:1018900014840D46B946012810D0012684F85860FA
:1018A000206803F019FA58B1E06D40F02000E065BF
:1018B000012784F858903846BDE8F88F0220FBE7EE
:1018C000D5E900200C23216803EA901319440B6B1F
:1018D00000F01F004FF01F0C0CFA00FCC2F38462F2
:1018E00023EA0C03824013430B63206803F0F4F9EE
:1018F0008246206803F0E0F95AEA00013CD1AA6868
:1019000029682068B2F1004F37D003F0F5F920685C
:10191000416921F00041416120686A69C168C1F3F1
:10192000C10149008A402969042931D000EB8100B6
:101930002B68016EDFF870C303F0F84301EA0C0175
:101940001343194341F00041016620682A69A969DF
:1019500000EB8200026E22F080720A430266297F49
:1019600022682869012910D0002102EB8000026E54
:1019700022F000720A4302667DE0002203F0BCF907
:101980002068416941F00041C5E74FF00071ECE784
:10199000002103F085F9400320684FF0000171D069
:1019A00003F07EF990FAA0F0B0FA80F128684203C3
:1019B0006DD090FAA0F0B0FA80F0814204D10022FC
:1019C0001146206803F0B6F90121206803F068F998
:1019D000400320684FF001015CD003F061F990FAF8
:1019E000A0F0B0FA80F12868420358D090FAA0F035
:1019F000B0FA80F0814204D100220121206803F076
:101A000099F90221206803F04BF9400320684FF058
:101A1000020147D003F044F990FAA0F0B0FA80F147
:101A20002868420343D090FAA0F0B0FA80F08142D7
:101A300004D100220221206803F07CF903212068F0
:101A400003F02EF9400320684FF0030132D003F079
:101A500027F990FAA0F0B0FA80F1286842032ED05E
:101A600090FAA0F0B0FA80F0814204D10022032164
:101A7000206803F05FF9206803F026F910B3AAE0AC
:101A800000E004E003F00CF9C0F384618EE7C0F3DA
:101A9000846092E703F004F9C0F38461A3E7C0F324
:101AA0008460A7E703F0FCF8C0F38461B8E7C0F3F3
:101AB0008460BCE703F0F4F8C0F38461CDE7C0F3C1
:101AC0008460D1E721682A7B286851F8B03FC0F3D1
:101AD000120C23EA0C0302F0180C744A22FA0CF2DE
:101AE000024013430B60E968414574D12868410303
:101AF0001AD090FAA0F1B1FA81F1491C01F01F014E
:101B000009294FEA403130D8002910D090FAA0F1CD
:101B1000B1FA81F101F1010101F01F0106FA01F6AC
:101B200008D1C0F3846109E0C0F38461E5E7C0F344
:101B30008461EFE790FAA0F1B1FA81F101F10101BE
:101B400001F01F0146EA816102D1C0F3846003E025
:101B500090FAA0F0B0FA80F000F1010000F01F0050
:101B600000EB400041EA005131E000290DD090FA2D
:101B7000A0F1B1FA81F101F1010101F01F0106FAB2
:101B800001F605D1C0F3846106E0C0F38461F2E799
:101B900090FAA0F1B1FA81F101F1010101F01F0108
:101BA00046EA816102D1C0F3846003E090FAA0F0BC
:101BB000B0FA80F000F1010000F01F003C4A00EB99
:101BC000400002EB005041EA000141F00071AA68B8
:101BD000206803F091F837482A6802423FF469AE62
:101BE00020684FF0A04C344B344E354D604501D049
:101BF000A84201D1194600E031468968DFF8C48067
:101C000001F0E071424503D0DFF8BC80424521D1AC
:101C10005FEA01281ED4604506D02C4A90427FF42A
:101C200048AEA84200D0334641F40000996821F044
:101C3000E07101439960264826490068B0FBF1F045
:101C4000401C00EB4000800000E0401E0090002897
:101C5000FBD12EE6DFF8808042450FD15FEAC11844
:101C60000CD4A84202D11D4A9042F2D0604502D065
:101C7000A84200D0334641F080700CE0DFF860806D
:101C80004245E6D14A02E4D4A842E2D0604500D001
:101C9000334641F48000996821F0E0710143996076
:101CA00007E6000000007F4000F0FF03FFFF070091
:101CB000000020FE000008800003005000070050D4
:101CC00000010050000021C31000C0900006005029
:101CD00010000020400D0300000052C70005005016
:101CE000000084CB704770470068006C70470000AC
:101CF0002DE9F84F04460068066845684FF0A04893
:101D0000DFF89092404501D0484501D1A24800E05B
:101D1000A248806800F01F07B0070ED5A8070CD5B1
:101D2000E06DC00603D4E06D40F40060E06520463D
:101D3000FFF780F9216802200860DFF864B2DFF85D
:101D400064A2700701D5680703D430073FD5280780
:101D50003DD5E06DC00603D4E06D40F40070E06551
:101D6000206802F0C1FF60B32068484501D14146B8
:101D700004E0584501D1514600E00146814208D0B7
:101D80003FB1052F05D0092F03D0484503D1414667
:101D900006E0C16805E0584501D1514600E0014622
:101DA000C96889040DD4016809070AD502F094FFB7
:101DB00058B3E06D40F01000E065206E40F0010087
:101DC00020662046FFF78EFF21680C200860B006D1
:101DD00001D5A80603D470065FD568065DD5E06D11
:101DE000C00603D4E06D40F40050E0652068C16C8B
:101DF00011F4C07F1AD00021009102F075FF024655
:101E00002068484514D1414617E02068416821F018
:101E10000C014160E06D20F48070E065E06DC0046D
:101E2000CFD4E06D40F00100E065CAE70121E3E7AF
:101E3000584501D1514600E00146814208D03FB1EA
:101E4000062F05D0072F03D0484503D1414606E0B1
:101E5000C16805E0584501D1514600E00146C96816
:101E6000009BA3B18B0102D58AB18A040FD402680A
:101E700052060CD589020AD402F01EFFF0B3E06DC1
:101E800040F01000E065206E40F001002066204622
:101E9000FFF77EFB21686020086030060BD528061E
:101EA00009D5E06D40F48030E065204600F096F9F9
:101EB000216880200860F0050CD5E8050AD5E06DA2
:101EC00040F40030E0652046FFF730FC21684FF415
:101ED00080700860B0050CD5A8050AD5E06D40F407
:101EE0008020E0652046FFF722FC21684FF4007057
:101EF0000860F00631D5E8062FD500E009E0E06B78
:101F0000E8B12068EFB3404501D0484512D12248DE
:101F100011E02068416821F060014160E06D20F42B
:101F20008050E065E06DC005B1D4E06D40F0010087
:101F3000E065ACE71948806800F4604050B1E06D9E
:101F400040F48060E065206E40F00200206620468C
:101F5000FFF7C9FE216810200860700517D56805D5
:101F600015D5E06D40F48040E065206E40F008003B
:101F7000206621684FF4806008602046BDE8F84F75
:101F800000E001E0FFF725BBC068C007D6E7BDE869
:101F9000F88F0000000100500003005000070050BF
:101FA0000005005000040050F8B54FF00005040093
:101FB0002E46009502D0E06D10B107E00120F8BD7B
:101FC000204600F00DF9266684F858602068816884
:101FD000C1F3407119B18168744A11408160206871
:101FE0008168C1F3007189B98168714A114041F07B
:101FF000805181606F4870490068B0FBF1F040008B
:10200000801C00E0401E00900028FBD12068816801
:10201000C1F3007141B9E16D41F01001E165216E3C
:1020200041F001012166012502F056FEE16DC9066D
:1020300000D430B1E06D40F01000E0650125284685
:10204000F8BDE06D20F4807040F00200E06520688B
:1020500002F03AFE40BB20684FF0A043574A984236
:1020600001D0904204D199689668C1F300010AE05A
:1020700053498968534EC1F30001B668C6F30006A0
:102080003143514EB668C6F3000631430CD1984235
:1020900001D0904201D14D4800E04D48616882680E
:1020A00022F47C120A438260E168E06B627F08439D
:1020B000A16841EA4231084394F8241040EA014003
:1020C000012904D1218D434A02EB41410843E16AD1
:1020D00029B101F47871226B014342EA01002168C1
:1020E000CA683D4B1A400243CA6020680169626BAE
:1020F00021F0406111430161206802F0DDFD70BBF9
:10210000207F94F83810800340EA41012068C268BB
:1021100044F202039A430A43C260206900282068FF
:1021200001690AD041F480310161206850F8C01F74
:1021300022696FF30D01114307E021F48031016141
:10214000206850F8C01F6FF30D01016094F8400043
:10215000012813D02068016921F001010161606943
:1021600001282068016B19D021F00F010163E06D97
:1021700020F0020040F00100E06560E7D4E91120A2
:102180000243D4E91301084302432068016940F285
:10219000FC7399430A4342F00101DFE721F00F028B
:1021A000216A491E0A430263E1E70000C0FFFF5FA6
:1021B000C0FFFF7F10000020400D03000001005011
:1021C00000040050000500500006005000030050BD
:1021D000000700500000FEFF0740F0FF70470000BE
:1021E000F0B59BB00446142115A8FEF72CF8542135
:1021F0006846FEF728F84FF40041206800268A035D
:102200002E4D03272E4CB0F1A04F10D02D4B9842ED
:1022100052D168461192009100F058FE08B1FEF7C5
:10222000D9FC2868401C2860012825D02CE068468D
:102230001192009100F04AFE08B1FEF7CBFC28682D
:10224000401C2860012807D1E06C40F40050E06495
:10225000E06C00F400501A90E06C40F00100E06483
:10226000E06C179600F001001A900F20CDE91507D9
:1022700015A94FF0904015E0E06C40F40050E06488
:10228000E06C00F400501A90E06C40F00400E06450
:10229000E06C179600F004001A903720CDE915077E
:1022A00015A9094800F02AFC00221146122000F06E
:1022B00075FD122000F064FD1BB0F0BD0000002091
:1022C0000010024000010050000800482DE9F047CE
:1022D00004460F4600684FF0A0494549454BDFF8DA
:1022E00018A1484501D0504501D10A4600E01A46E0
:1022F000926802F01F06A269082A14D0AEB1052E1A
:1023000013D0092E11D0484502D0504500D01946AF
:10231000886800F4604058B1E06D40F02000E0654E
:102320000120BDE8F087082503E0C068C007F2E798
:10233000042500F0CDFC804615E0781C13D000F099
:10234000C7FCA0EB0800B84200D867B92068006855
:10235000284208D1E06D40F00400E065002084F8D8
:1023600058000320DDE7206800682842E5D0E06DD2
:1023700040F40070E065206802F0B6FC80B1607F38
:1023800070B92068006800070AD5E06D20F48070FD
:10239000E065E06DC00403D4E06D40F00100E0654D
:1023A0002068164C1649504501D14A4604E0A04227
:1023B00001D10A4600E00246824208D03EB1052E15
:1023C00005D0092E03D0504503D1494604E0C16829
:1023D00003E0A04200D00146C968082D05D0490499
:1023E00001D40C21016000209BE70821FAE70000DE
:1023F000000300500007005000010050000500508D
:10240000000400502DE9F041044600684FF0A0465A
:10241000444FB04201D0B84201D1434900E04349A2
:10242000896801F01F0502F057FC18B10221084627
:10243000BDE8F08194F8580001280CD0012084F800
:1024400058002046FDF7E0FF01004FF0000304D0E4
:1024500084F85830EBE70220EAE7E06D40F60162CD
:10246000904340F48070E0652068314ADFF8C4C0D2
:10247000B84201D1B64604E0904201D1E64600E000
:102480008646864500D02DB9D4F85CE02EF4801E37
:10249000C4F85CE0D4F85CE05FEACE4E06D5D4F830
:1024A00060E02EF0060EC4F860E000E023664FF016
:1024B0001C0EC0F800E084F858302068B84201D102
:1024C000334604E0904201D1634600E00346834274
:1024D0000ED06DB1052D0BD0092D09D0E36D43F45D
:1024E0008013E365B84213D0904210D166460FE0E6
:1024F000C268920105D5E26D22F4005242F4805286
:10250000E26582680C4B1A40121D82608FE7064616
:10251000F06880018BD5E06D20F4005040F48050CD
:10252000E06584E700010050000300500007005000
:102530000005005000040050C0FFFF7F10B50446A6
:1025400090F85800012808D0012084F85800032191
:102550002046FDF7B1FE10B10BE0022010BD204671
:10256000FDF71AFF28B9E16D21F4885141F001010E
:10257000E165002184F8581010BD70472DE9F0473F
:1025800090460D4604004FF0000A0FD075B16079F7
:1025900001280ED04FF0010984F805900220207127
:1025A000A96808F01006042905D049E00120BDE81B
:1025B000F0870220FBE700F08BFB07465FEA08008C
:1025C0004FF0030809D021E000F082FBC01B012876
:1025D00003D92068406B000410D42068406B0004CD
:1025E000F2D42168686A086417E000F071FBC01B30
:1025F00001280BD92068406B002807DA206940F0D9
:102600000800206184F804800320D0E72068406B34
:102610000028EADB2168686A48642068816C40F21F
:10262000FF32B2409143AA6AB240114381642068EC
:10263000C16CFF22B2409143EA6AB2401143C164C7
:10264000E869012808D12068826B1F21B1408A43C4
:10265000296AB140114381632068C26B0720B040F2
:102660008243A869012803D0022856D06869E8B3DC
:1026700000206B69A968194301434FF4807000FA88
:1026800006F39A432B79012B00D0002008434FF426
:10269000007101FA06F39A436B79012B00D00021F7
:1026A00041EA0008286822F44047022837D007434F
:1026B000216808FA06F03843C863206801684FF4BF
:1026C0008042B240914301602068026840F6FE718A
:1026D000B1408A43E968B140114301602068016854
:1026E000C022B24091430160287B00E015E0297CC4
:1026F000C0F3830001F03C0140EA81112068026EC2
:1027000040F60F73B3409A43B1400A43026684F81F
:10271000049000206071504649E70120A9E700F0CD
:102720004FFE0649884202D947F40047C0E70449F2
:102730008842BDD947F48047BAE70000006889099C
:1027400000B4C40470472DE9F041044600680668EF
:10275000456BB1044FF0040710D5A9040ED52771BD
:10276000216941F001012161F9024163206801689A
:1027700021F4805101602046FFF7E4FFB00014D53A
:10278000A80012D52771206940F00200206121685D
:102790004FF0005048632068016821F080510160CB
:1027A0002046BDE8F041FFF7E8BEBDE8F08170B516
:1027B000040003D02079002510B105E0012070BD90
:1027C0006571204600F008F8022020712561012083
:1027D0002071002070BD000010B586B004461421A1
:1027E0006846FDF730FD15492068884223D114481A
:1027F000C16C41F48031C164C16C01F48031059138
:10280000C16C41F00101C164C06C694600F0010077
:1028100005901020009003200190002002904FF0BE
:10282000904000F06BF900221146362000F0B6FA15
:10283000362000F0A5FA06B010BD000000080050D8
:102840000010024018B50024009448B10068C46B21
:102850000090104431B1143000900360002018BD86
:10286000012018BD0830F7E7F8B5A8B14279012A70
:1028700014D001244471022505710268166801F024
:10288000100304FA03F73E431660144A144E12680C
:10289000B2FBF6F2521C04E00120F8BD0220F8BDA4
:1028A000521E0092002AFBD1002901680A680DD04F
:1028B00002F478129D40AA4203D14A6842F0020213
:1028C0004A600471002141710846F8BDC2F3440218
:1028D000012AF6D14A6842F00102F1E71000002017
:1028E000400D030070B590F8251000240122234606
:1028F000022907D00421C16380F8252080F8243004
:10290000012429E001680D6825F00E050D600168BD
:102910000D6825F001050D60816C0D6825F480754A
:102920000D6090F84410154601F01F018A40016CBB
:102930004A60D0E913124A60416D31B10A6822F44D
:1029400080720A60D0E916124A6080F8255080F83B
:102950002430816B01B18847204670BDF0B4016C12
:102960000B6801680A6890F84440042504F01F04CD
:1029700005FA04F61E4211D056070FD50A689206D2
:1029800003D40A6822F004020A6090F8441001F0AF
:102990001F018D40016C4D60016B1DE0022606FA9F
:1029A00004F71F424FF0000C4FF0010518D09707B5
:1029B00016D50A68920605D40A6822F00A020A604F
:1029C00080F8255090F8441001F01F018E40016CF2
:1029D0004E6080F824C0C16A00291AD0F0BC0847B4
:1029E0000826A6401E4214D0120712D50A6822F00B
:1029F0000E020A6090F84410026C01F01F0105FA03
:102A000001F15160C56380F8255080F824C0416B06
:102A1000E2E7F0BC7047000070B504000CD02B4A10
:102A200020681421904209D2294A0244B2FBF1F1F4
:102A30008900616427490AE0012070BD234A52429F
:102A40000244B2FBF1F18900616420490839216434
:102A5000022184F82510016847F6F0729143D4E909
:102A600002231A43D4E904352B431A43A3691A43BA
:102A7000E3691A43236A1A430A4302602046FDF7BA
:102A8000D5FFA0680025B0F5804F00D16560A16C2E
:102A900020790860D4E9130141606068401E032872
:102AA00008D82046FDF7E2FF606D0560D4E9160105
:102AB000416002E06565A565E565E563012084F890
:102AC000250084F82450002070BD00000804024056
:102AD000F8FFFDBF0000024070B5044600F0F8F8B2
:102AE0000546601C02D004484068044400F0F0F839
:102AF000401BA042FAD370BD040000202DE9F84F1E
:102B0000DFF888910022A9F1040B03274FF00F0C86
:102B100009F1040AABF1040EB1E0012595402B4008
:102B200073D00C7904F00304012C01D0022C15D1D0
:102B30008668540007FA04F826EA0806D1F80C80E3
:102B400008FA04F848EA0608C0F808804468AC436C
:102B50000D79C5F300159540254345600C79E44394
:102B6000A40708D0C568540007FA04F6B5438E6878
:102B7000A6402E43C6600C7904F00304022C11D148
:102B8000D40800EB8406356A5407E40E0CFA04F806
:102B900025EA0805D1F8108008FA04F848EA050883
:102BA000C6F820800568540007FA04F6B5430E798C
:102BB00006F00306A6402E4306604C6814F4403F1E
:102BC0005CD0334C256E45F001052566246E22F05D
:102BD000030504F0010400942E4C05EB0408D8F81A
:102BE00008509407260F0CFA06F4A543B0F1904F55
:102BF00004D0294CA04203D1012417E0002415E0A1
:102C0000264CA04202D1022410E037E0244CA0421E
:102C100001D103240AE0234CA04201D1042405E0A1
:102C2000214CA04201D1052400E00624B4402C43ED
:102C3000C8F80840D9F800404D464E689C43F6025B
:102C400000D51C432C60DAF8004055464E689C4382
:102C5000B60200D51C432C60DBF800405D464E6890
:102C60009C43B60300D51C432C60DEF8004075463B
:102C70004E689C43F60300D51C432C60521C0B6825
:102C800033FA02F47FF449AFBDE8F88F080401403D
:102C90000010024000000140000400480008004805
:102CA000000C00480010004800140048006908406B
:102CB00000D001207047426921EA02030A4043EA3A
:102CC0000241816170470AB181617047816270473A
:102CD00001488068704700000400002002488168B5
:102CE00042681144816070470400002010B5002440
:102CF000032000F073F80F2000F008F808B1012459
:102D000001E000F025F8204610BD000070B50E4E21
:102D100005460024706898B14FF47A71B1FBF0F069
:102D20000A490968B1FBF0F000F039FF40B9102DF5
:102D300006D200222946501E00F030F8356000E02F
:102D40000124204670BD0000040000201000002077
:102D50000A4882B0016E41F001010166016E01F086
:102D600001010091816D41F080518165806D00F01D
:102D70008050009002B000F0A1B8000000100240A6
:102D8000002809DB00F01F0201219140400980006A
:102D900000F1E020C0F8001170470000F0B40E4BC5
:102DA0001B68C3F30223C3F10704042C00D90424D5
:102DB0001D1D072D01D2002300E0DB1E012606FAAF
:102DC00004F56D1E0D409D409E40761E164045EA5E
:102DD0000601F0BC03F037BC0CED00E0064A00F041
:102DE000070110684FF6FF03184040EA012003492D
:102DF00008431060704700000CED00E00000FA0589
:102E00002B492C4B0A6832214A432B4940B1B0F57B
:102E1000007F086829D020F4C06040F480602CE076
:102E20000868C0F34120022804D051F8800F20F434
:102E3000807022E0D1F8800020F48070C1F880001A
:102E4000086820F4C06040F400700860B2FBF3F042
:102E5000401C00E0401E4A69520501D50028F9D106
:102E6000486940050AD503207047C0F34120022875
:102E700006D051F8800F40F4807008600020704741
:102E8000D1F8800040F48070C1F88000086820F418
:102E9000C06040F400700860B2FBF3F0401C00E03A
:102EA000401E4A695205DBD50028F9D1D8E7000059
:102EB0001000002040420F0000700040024881686E
:102EC00041F4804181607047007000402DE9F84F67
:102ED000044600260068C14D374600035DD5A86D45
:102EE0004FF00009C00009D4A86D40F08050A865DB
:102EF000A86D4FF0010900F080500090DFF8E0A2CB
:102F0000DAF8001041F48071CAF80010FFF7E0FE13
:102F1000804607E0FFF7DCFEA0EB0800022801D99D
:102F2000032632E0DAF80000C005F3D56EBBD5F811
:102F3000900010F4407014D0216D814211D0D5F86A
:102F40009000D5F8901020F4407041F48031C5F81D
:102F50009010D5F8901021F48031C5F89010C5F884
:102F60009000C0077ED0FFF7B3FE804641F2883A5A
:102F700005E0FFF7ADFEA0EB08015145D0D8D5F82C
:102F800090008007F5D5002E6CD03746B9F1000FC0
:102F900003D0A86D20F08050A8652078C00707D026
:102FA000D5F88800616820F003000843C5F8880060
:102FB0002078800707D5D5F88800A16820F00C009C
:102FC0000843C5F888002078400707D5D5F8880061
:102FD000E16820F030000843C5F888002078000739
:102FE00007D5D5F88800216920F0C0000843C5F84E
:102FF00088002078C00607D5D5F88800616920F4DC
:1030000040700843C5F888002078800607D5D5F8B9
:103010008800A16920F440600843C5F88800207842
:10302000400607D5D5F88800E16920F440500843F0
:10303000C5F888002078000607D5D5F88800216AF1
:1030400020F440400843C5F888002088C00507D513
:10305000D5F88800616A20F440300843C5F888003C
:10306000206800E024E0800307D5D5F89C00A16A21
:1030700020F003000843C5F89C002088800507D590
:10308000D5F88800E16A20F440200843C5F888009C
:103090002088400519D5D5F88800216B20F4401010
:1030A0000843C5F88800206BB0F5801F09D00CE0FC
:1030B000D5F89000216D20F440700843C5F89000C9
:1030C00064E7E86840F48010E860208800050FD5C8
:1030D000D5F88800616B20F440000843C5F88800EB
:1030E000606BB0F5800F03D1E86840F48010E860B1
:1030F0002088C0040FD5D5F88800A16B20F040705F
:103100000843C5F88800A06BB0F1807F03D1E86860
:1031100040F48010E860208881044FF000600ED5F4
:10312000D5F88810E26B21F040611143C5F8881092
:10313000E16B814203D1E96841F48011E9602188A3
:1031400049040ED5D5F88810226C21F04061114356
:10315000C5F88810216C814203D1E86840F48010E2
:10316000E860208800040FD5D5F88800616C20F055
:1031700040500843C5F88800606CB0F1805F03D10F
:10318000E86840F48030E8602068C0030FD5D5F8C7
:103190008800A16C20F040400843C5F88800A06C6E
:1031A000B0F1804F03D1E86840F48030E8602068D7
:1031B00040030FD5D5F89C00E16C20F44010084383
:1031C000C5F89C00E06CB0F5001F03D1E86840F43E
:1031D0008010E8603846BDE8F88F0000001002401B
:1031E000007000402DE9F0470D4604004FF0000745
:1031F00025D0DFF8AC91D9F8000000F00F00A8420C
:103200000CD2D9F8001021F00F012943C9F80010A1
:10321000D9F8000000F00F00A84210D12168614EDB
:10322000C80741F2883A58D06068DFF87C810328EB
:1032300008D0022830682CD0400500282BDB012064
:10324000BDE8F08730688001F9D5F06800F003022E
:10325000F068C0F30310401C032A18D0534AB2FB95
:10326000F0F0F268C2F306225043F268C2F3416202
:10327000521C5200B0FBF2F0404517D9B06810F074
:10328000F00F0CD0880711D5A06840B10EE0484A75
:10329000E5E78003D1E700F099F8404506D9B0682A
:1032A00020F0F00040F08000B0608027B0686168D6
:1032B00020F003000843B060FFF70AFD804605E0F8
:1032C000FFF706FDA0EB080151453BD8B0686168E7
:1032D00000F00C00B0EB810FF2D12068810714D50B
:1032E000400703D5B06840F4E060B0602078000784
:1032F00005D5B06820F4605040F4E060B060B0687C
:10330000A16820F0F000084304E0802F03D1B068EA
:1033100020F0F000B060D9F80010484601F00F012D
:10332000A94217D90168C84621F00F01294301605D
:10333000FFF7CEFC0746D14606E0FFF7C9FCC11BEC
:10334000494501D903207BE7D8F8000000F00F00C1
:10335000A842F2D12078400705D5B068E16820F492
:10336000E0600843B0602078000706D5B0682169A6
:1033700020F4605040EAC100B06000F027F8B16866
:103380000C4AC1F30311515C01F01F01C8400A4906
:1033900008600A480068BDE8F047FFF7B7BC0000C6
:1033A000002002400010024000B4C4040024F400D5
:1033B00040787D01186C00081000002004000020F7
:1033C000014800687047000010000020184A10B53E
:1033D0009068C0F38101174801290BD09168164C01
:1033E000C1F38101022906D09168C1F3810103294B
:1033F00003D0002010BD204610BDD16801F00303AA
:10340000D168C1F30311491C032B02D0B0FBF1F0CA
:1034100001E0B4FBF1F0D168C1F306214843D16863
:10342000C1F34161491C4900B0FBF1F010BD00003F
:10343000001002400024F40040787D012DE9F8439B
:10344000040078D02078F54DC00745D0A868E96819
:1034500000F00C0001F003010C2802D0082817D05E
:1034600001E0032914D06068B0F5803F17D0B0F5B3
:10347000A02F286817D020F480302860286820F416
:10348000802028606068D8B1FFF722FC064613E070
:103490002868800320D560680028D2D01CE0286806
:1034A00040F48030EDE740F480202860F7E7FFF734
:1034B0000FFC801B64286ED828688003F7D50BE0CA
:1034C000FFF706FC064604E0FFF702FC801B6428B9
:1034D000F1D828688003F7D4207880074BD5A868F6
:1034E000E96800F00C0001F003010C2802D0042868
:1034F0000DD001E002290AD0E068002828682BD00E
:1035000040F480702860FFF7E3FB064619E0286866
:10351000400502D5E068002893D06868217C20F03F
:10352000FE4040EA01606860BD480068FFF7EEFBBE
:10353000002800D11FE06DE1FFF7CAFB801B0228C5
:10354000B9D828684005F7D56868217C20F0FE408E
:1035500040EA016068600EE020F480702860FFF7A8
:10356000B7FB064604E0FFF7B3FB801B0228A2D896
:1035700028684005F7D42078000728D5606900281E
:10358000D5F8940012D040F00100C5F89400FFF780
:103590009FFB064605E08FE0FFF79AFB801B0228A1
:1035A00089D8D5F894008007F6D510E020F0010006
:1035B000C5F89400FFF78CFB064604E0FFF788FB94
:1035C000801B022878D8D5F894008007F6D420789C
:1035D000400761D5A86D0027C00008D4A86D40F051
:1035E0008050A865A86D012700F0805000908D489C
:1035F0000168C90511D40168804641F480710160F9
:10360000FFF766FB064604E0FFF762FB801B02281B
:1036100052D8D8F80000C005F6D5A068012815D00A
:103620000528D5F8900016D020F00100C5F89000CC
:10363000D5F8900020F00400C5F89000A06841F291
:103640008838B8B1FFF744FB06460EE0D5F8900085
:1036500040F00100F0E740F00400C5F89000F5E705
:10366000FFF736FB811B414526D8D5F8900080072F
:10367000F6D50CE0FFF72CFB064604E0FFF728FB2D
:10368000811B414518D8D5F890008007F6D41FB1AA
:10369000A86D20F08050A8652078800628D5A06904
:1036A0000028D5F8980012D040F00100C5F8980025
:1036B000FFF70EFB064605E072E0FFF709FB801BF3
:1036C00002286DD8D5F898008007F6D510E020F0D4
:1036D0000100C5F89800FFF7FBFA064604E0FFF783
:1036E000F7FA801B02285BD8D5F898008007F6D43B
:1036F000E069E8B3A968C1F3810103295BD002281E
:10370000286820F08070286003D0FFF7E1FA0446B3
:1037100049E0FFF7DDFA064604E0FFF7D9FA801B1F
:1037200002283DD828688001F7D4F4E908016FF039
:103730000F0202EB01110843218A5204490802EBEF
:103740004151A26841EA02210843217D4FF07E42A7
:10375000490802EB41610843217B40EAC160E96806
:10376000314A11400843E860286840F0807000E06A
:1037700052E02860E86840F08070E860FFF7A8FA3F
:10378000044604E0FFF7A4FA001B022808D82868C2
:103790008001F7D540E0FFF79BFA001B022802D911
:1037A0000320BDE8F88328688001F4D4E8681F4945
:1037B0000840E86030E00128F3D0E868226A00F0B1
:1037C0000301914226D1616A00F0F002090110392B
:1037D00091421FD1A26A00F4FE41B1EB022F19D130
:1037E00094F82C2000F07841B1EBC26F12D1218EF9
:1037F00000F4C00249084905A1F50011914209D120
:1038000094F8341000F0C06049084906A1F1007135
:10381000814201D00120C4E70020C2E7001002402D
:1038200004000020007000400C809F01FCFFEEFEB1
:1038300070B5040009D0606A002540B1256165615A
:10384000A56294F85D0040B10CE0012070BD606895
:10385000B0F5827FF4D0E561F2E784F85C50204651
:1038600000F05CF8022084F85D002068016821F017
:1038700040010160E0684FF4E062904201D900210C
:1038800001E04FF48051B0F5706F02D0904200D04B
:10389000A562A088228900F4827002F404421043D9
:1038A000227C02F002021043227D02F0010210434A
:1038B000228B02F400721043227F02F03802104380
:1038C00094F8202002F080021043228D02F400526E
:1038D000104322681060A069042202EA104094F8A4
:1038E000242001F4805102F01002104394F8342097
:1038F00002F008021043A28902F4706210430843E8
:10390000216848602068C16921F40061C1612566B1
:10391000012084F85D00002070BD0000F0B587B084
:10392000054614216846FCF78EFC334A28680026B9
:1039300032490224904227D1086E40F48050086634
:10394000086E00F480500590C86C40F00200C86416
:10395000C86C052500F00200059018208DE8510084
:10396000274FCDE9036569463846FFF7C7F82020A1
:10397000CDE900040120CDE90206694604953846E8
:10398000FFF7BCF807B0F0BD1E4A9042FAD1886D2F
:1039900040F400408865886D00F400400590C86CD4
:1039A00040F00400C864C86C694600F0040005904B
:1039B0004FF4A0508DE851000620CDE90360124875
:1039C000FFF79CF8124C114820600F206060102017
:1039D000C4E9020680202061400060618000C4E9E3
:1039E0000606800020622046FFF716F808B1FDF7B2
:1039F000F1F86C65A562C5E7003001400010024097
:103A000000040048003C0040000800480800024054
:103A1000F80600202DE9F84F1D4617468A46044651
:103A2000FFF756F9064694F85D00012826D1BAF151
:103A3000000F6FD0002F6DD094F85C0001281DD0CE
:103A40004FF0010984F85C90032084F85D004FF08A
:103A50000008C4F86080C4F838A0A787E787C4F8D6
:103A60004080A4F84480A4F84680C4F85080C4F88C
:103A70004C80A068B0F5004F03D00CE00220BDE8F8
:103A8000F88F2068016821F040010160206801681A
:103A900041F48041016020680168490603D401684F
:103AA00041F040010160E068B0F5E06F606822D944
:103AB00008B1012F1BD1A06B21680088C86006E007
:103AC00020688168890709D5A16B0988C160A06B4E
:103AD000801CA063E08F401EE08708E0FFF7F8F845
:103AE000801BA84202D3681C01D045E0A5B3E08F3B
:103AF0000028E5D135E008B1012F2FD1E08F012852
:103B0000A06B03D921680088C86010E021680078A4
:103B1000087314E041E0E08720E0206881688907AD
:103B200013D5E18F0129A16B07D90988C160A06B6A
:103B3000801CA063E08F801EEDE709780173A06B05
:103B4000401CA063E08F401EE5E7FFF7C1F8801B33
:103B5000A84202D3681C01D00EE06DB1E08F0028AE
:103B6000DBD132462946204601F0EEFE08B1202086
:103B70002066A06830B109E084F85D9084F85C802C
:103B800003207CE72068C1688068009084F85D901D
:103B900084F85C80206E0028F3D001206FE710B518
:103BA000401EB0F1807F01D3012010BD4FF0E02412
:103BB00060610F21601702F046FD0020A061072020
:103BC0002061002010BD70477047704730B590F8F5
:103BD0003C20012A45D0012280F83C20CA688B682D
:103BE00022F440721A434B6822F480621A430B6835
:103BF00022F400621A430B6922F480521A434B6983
:103C000022F400521A430B6B22F480421A430B8BAE
:103C100022F4702242EA0342CB6922F080521A4316
:103C2000114D03680024AB4205D0104DAB4202D0C9
:103C30000F4DAB4210D10D8D22F4700242EA0552B5
:103C40000D6A22F080722A434D6A22F000722A43E4
:103C5000C96A22F000520A435A6480F83C400020AE
:103C600030BD022030BD0000002C01400034014076
:103C7000005001407047704770470000F0B590F861
:103C80003C20012A43D0012580F83C50022280F8D4
:103C90003D2003685A689C681E4E1F4FDFF87CC0A9
:103CA000B34203D0BB4201D0634504D122F4700E6D
:103CB0004A6842EA0E02DFF868E002EA0E02D1F832
:103CC00000E04EEA020EC3F804E00268B24212D0ED
:103CD000B2F1804F0FD0134B9A420CD0124B9A4244
:103CE00009D0124B9A4206D0BA4204D0104B9A42E5
:103CF00001D0624504D1896824F0800319439160A2
:103D000080F83D50002180F83C100846F0BD0220AC
:103D1000F0BD0000002C0140003401400050014083
:103D20008FFFFFFD0004004000080040000C004031
:103D30000040014010B5044649B104290AD00829C1
:103D40000BD094F8470001280AD0012010BD94F848
:103D50004400F8E794F84500F5E794F84600F2E7E8
:103D60000220A9B3042937D0082938D084F84700A5
:103D70000422206801F0EDFF2068416C41F400410D
:103D8000416418492068884214D0B0F1804F11D0A6
:103D9000154988420ED0154988420BD014498842F3
:103DA00008D01449884205D01349884202D01349EB
:103DB000884207D18168124A1140062906D0B1F520
:103DC000803F03D0016841F001010160002010BD77
:103DD000FFE784F84400CBE784F84500C8E784F89F
:103DE0004600C5E7002C01400004004000080040E8
:103DF000000C0040003401400040014000500140F0
:103E00000700010070B504460D460068002201F06D
:103E1000A0FF2068026A41F211131A4244F24441A1
:103E200006D1026A0A4203D1426C22F40042426483
:103E30002068026A1A4206D1026A0A4203D1016866
:103E400021F00101016001203DB1042D08D0082DB1
:103E500009D084F84700002070BD84F84400FAE7D8
:103E600084F84500F7E784F84600F4E7704710B59A
:103E7000040003D094F83D0010B107E0012010BD0C
:103E8000002084F83C00204600F022F8022084F84C
:103E90003D00211D206801F0DDFE012084F848006E
:103EA00084F83E0084F83F0084F8400084F8410024
:103EB00084F8420084F8430084F8440084F8450004
:103EC00084F8460084F8470084F83D00002010BDC7
:103ED00008B50068144A154990420ED1886D40F02B
:103EE00010008865886D002200F0100000901146D7
:103EF0003620FEF753FF362010E00D4A904211D1D4
:103F0000886D40F020008865886D002200F0200058
:103F1000009011463720FEF741FF3720BDE80840EA
:103F2000FEF72EBF08BD0000001000400010024048
:103F30000014004090F83D10012901D00120704785
:103F4000022180F83D100168CA6842F00102CA608F
:103F500000681349884214D0B0F1804F11D0114944
:103F600088420ED0104988420BD01049884208D0B0
:103F70000F49884205D00F49884202D00E49884235
:103F800007D181680D4A1140062906D0B1F5803F5E
:103F900003D0016841F0010101600020704700007A
:103FA000002C01400004004000080040000C0040CC
:103FB0000034014000400140005001400700010072
:103FC00070472DE9F04104460068C66805694FF066
:103FD0000007A90713D5B10711D5F91E016101200A
:103FE0002077206880698007204602D0FFF7E8FF2D
:103FF00004E000F02DF9204600F036FA2777680734
:1040000016D5700714D521686FF0040008610220EE
:1040100020772068806910F4407F204602D0FFF7A7
:10402000CFFF04E000F014F9204600F01DFA2777D6
:10403000280715D5300713D521686FF008000861EF
:10404000042020772068C0698007204602D0FFF74F
:10405000B7FF04E000F0FCF8204600F005FA2777EF
:10406000E80616D5F00614D521686FF01000086137
:10407000082020772068C06910F4407F204602D0D5
:10408000FFF79EFF04E000F0E3F8204600F0ECF9B3
:104090002777E80708D0F00706D021686FF0010005
:1040A0000861204600F0FEFB280601D4A80408D5CC
:1040B000300606D521686FF4025008612046FFF7EC
:1040C00083FDE80508D5300606D521686FF48070B9
:1040D00008612046FFF777FD680608D5700606D50B
:1040E00021686FF040000861204600F0F1FBA8064F
:1040F00008D5B00606D521686FF02000086120467B
:10410000FFF763FDE80208D5F00206D521686FF4D9
:10411000801008612046FFF7AEFDA80208D5B00266
:1041200006D521686FF4001008612046FFF7A2FD54
:10413000680208D5700206D521686FF48000086116
:104140002046FFF799FD28020AD5300208D52168DC
:104150006FF4000008612046BDE8F041FFF786BE1D
:10416000BDE8F0812DE9F04186B00446142168468F
:10417000FCF769F8324A21680024324802254FF0E2
:104180009048914243D1C16C41F00401C164C16CBB
:1041900001F004010591C16C41F00201C164C16CE0
:1041A00001F002010591C16C41F00101C164C06CD4
:1041B000694600F00100059008200090CDE9015407
:1041C0002148CDE90345FEF799FC4FF4C04000902B
:1041D000CDE9015406261D4FCDE903466946384610
:1041E000FEF78CFCA8030090CDE901540420CDE932
:1041F000034069463846FEF781FC4FF4E0600090CA
:10420000CDE90154CDE903466946404613E0B1F1DA
:10421000804F12D1C16C41F00101C164C06C0294A5
:1042200000F0010005902020CDE900050120CDE936
:10423000035069464046FEF761FC06B0BDE8F081D8
:10424000002C014000100240000800480004004813
:10425000704770B5044690F83C0000260D460128D2
:104260000BD0012084F83C000C2A4AD007DC82B134
:10427000042A20D0082A06D131E0022070BD102A7D
:1042800053D0142A63D00126002084F83C00304625
:1042900070BD206801F06AFD2068816941F0080165
:1042A00081612068816921F0040181612068816950
:1042B0002A69114311E0206801F0AEFD2068816990
:1042C00041F4006181612068816921F4806181612C
:1042D000206881692A6941EA02218161D4E7206866
:1042E00001F0EAFD2068C16941F00801C161206860
:1042F000C16921F00401C1612068C1692A691143C3
:1043000011E0206801F028FE2068C16941F40061D5
:10431000C1612068C16921F48061C1612068C169FF
:104320002A6941EA0221C161AEE7206801F064FE1A
:104330002068016D41F0080101652068016D21F0E0
:10434000040101652068016D2A69114311E02068AC
:1043500001F08EFE2068016D41F400610165206866
:10436000016D21F4806101652068016D2A6941EACF
:104370000221016588E710B5040003D094F83D00E0
:1043800010B107E0012010BD002084F83C00204659
:1043900000F022F8022084F83D00211D206801F081
:1043A00059FC012084F8480084F83E0084F83F005E
:1043B00084F8400084F8410084F8420084F8430007
:1043C00084F8440084F8450084F8460084F84700E7
:1043D00084F83D00002010BD38B5054600681E4A2F
:1043E0001E49904211D1086E40F400600866086EC4
:1043F000002200F40060009011461920FEF7CEFC68
:10440000BDE838401920FEF7BBBCB0F1804F21D188
:10441000886D40F001008865886D124C00F0010045
:1044200000900F482060382060601020A0600020BD
:104430008021C4E90301490061618900C4E90610D3
:10444000C80020622046FEF7E7FA08B1FCF7C2FB7D
:104450006C62A56238BD0000002C014000100240D3
:104460001C00024088080020FCF7B0BA70B5044672
:1044700069B104290ED008290FD00C2910D01029B9
:1044800011D094F84300012810D0012070BD94F899
:104490003E00F8E794F83F00F5E794F84000F2E7B3
:1044A00094F84100EFE794F84200ECE70220E9B30A
:1044B00004294AD008294BD00C294CD010294DD0C2
:1044C00084F843000122206801F036FC2549206869
:1044D000254A264B264D88420BD0904209D098425F
:1044E00007D0244EB04204D0234EB04201D0A8429F
:1044F00003D1466C46F4004646642068884211D0D9
:10450000B0F1804F0ED01D4988420BD01C49884223
:1045100008D01C49884205D0904203D0984201D06F
:10452000A84209D18168184A114000E00AE0062932
:1045300006D0B1F5803F03D0016841F00101016070
:10454000002070BD84F83E00BCE784F83F00B9E766
:1045500084F84000B6E784F84100B3E784F84200ED
:10456000B0E70000002C0140003401400040014051
:104570000050014000440140004801400004004058
:1045800000080040000C004007000100F0B50446A0
:10459000002569B104290ED008290FD00C2910D0AC
:1045A000102911D094F84300012810D00120F0BD4B
:1045B00094F83E00F8E794F83F00F5E794F84000DF
:1045C000F2E794F84100EFE794F84200ECE70220AC
:1045D00091B1042913D0082914D00C2915D0102921
:1045E00016D084F84300B1B1042919D008295AD053
:1045F0000C295DD0012554E084F83E00F3E784F8EF
:104600003F00F0E784F84000EDE784F84100EAE776
:1046100084F84200E7E72068C26842F0020203E043
:104620002068C26842F00402C2600122206801F0E2
:1046300083FB22492068224A224B234E88420BD01A
:10464000904209D0984207D0204FB84204D0204F62
:10465000B84201D0B04203D1476C47F400474764E9
:104660002068884211D0B0F1804F0ED0194988429D
:104670000BD01949884208D01849884205D0904289
:1046800003D0984201D0B04207D18168144A11404A
:10469000062906D0B1F5803F03D0016841F0010141
:1046A00001602846F0BD2068C26842F00802BBE7FE
:1046B0002068C26842F01002B6E70000002C0140FA
:1046C00000340140004001400050014000440140DE
:1046D000004801400004004000080040000C004079
:1046E0000700010030B504460D460068002201F0C5
:1046F00023FB244841F2111122688B0082420ED024
:10470000214882420BD02148824208D02048824270
:1047100005D02048824202D01F48824209D1106A47
:10472000084206D1106A184203D1506C20F40040B0
:1047300050642068026A0A4206D1016A194203D114
:10474000016821F00101016001205DB1042D0CD050
:10475000082D0DD00C2D0ED0102D0FD084F8430055
:10476000002030BD84F83E00FAE784F83F00F7E708
:1047700084F84000F4E784F84100F1E784F842004F
:10478000EEE70000002C01400034014000400140F1
:1047900000440140004801400050014070B50D0048
:1047A00004464FF0000607D0042D0CD0082D50D041
:1047B0000C2D55D001264AE02068C16821F4007113
:1047C000C160606A05E02068C16821F48061C16051
:1047D000A06AFEF787F800222946206801F0ACFAAB
:1047E0002A4A41F2111120688B0090420ED0284ACB
:1047F00090420BD0274A904208D0274A904205D0D9
:10480000264A904202D0264A904209D1026A0A42C0
:1048100006D1026A1A4203D1426C22F40042426479
:104820002068026A0A4206D1016A194203D101686E
:1048300021F0010101600120CDB1042D1AD0082D15
:104840001BD00C2D1CD0102D1DD084F843003046F9
:1048500070BD2068C16821F40061C160E06AB8E7FA
:104860002068C16821F48051C160206BB1E784F8F1
:104870003E00ECE784F83F00E9E784F84000E6E713
:1048800084F84100E3E784F84200E0E7002C0140AF
:104890000034014000400140004401400048014014
:1048A000005001400068084988420BD1074A0020A7
:1048B00052F8201011B1491E42F82010401CC0B21D
:1048C0001428F5D37047000000140040F4000020C5
:1048D000704700002046FCF7BDF90146224602A0C1
:1048E000FCF7C2F9FEE70000486172644661756C2E
:1048F000740000002DE9F04107461C4616460D469F
:104900002A2000F09BF92837B8B200F0B7F9283612
:10491000B0B200F0B3F92B2000F090F93535A8B211
:1049200000F0ACF93534A0B200F0A8F9BDE8F041D0
:104930002C2000F083B910B514460B460246FFF751
:10494000D9FF2046BDE8104000F098B92DE9F047A6
:1049500080461F46581E83B21646501E82B20D4630
:104960004046DDF82090FFF7C5FF0AE0444604E02A
:10497000484600F083F9641CA4B2B442F8D36D1C1D
:10498000ADB2BD42F2D3BDE8F08700002DE9FF4F84
:1049900083B00746DDF8449000904FEA590A4FF083
:1049A00000085FEA4A7000D0012000EBDA0000FB4B
:1049B00009F001900498203A4844401E83B207EB66
:1049C0000A0002F0FF0B401E82B238460499FFF73E
:1049D00091FF002550E0B9F10C0F28D0B9F1100F6C
:1049E0002BD0B9F1180F2CD0B9F1200F47D127499E
:1049F00001EB8B100024465D129800284FF0010057
:104A000000FA04F000EA060021D020B13846069AE8
:104A10000499FFF790FF7F1C0098BFB2391A5145E7
:104A200024D10498009F401C80B2049022E01849D1
:104A30000BEB4B0001EB8000DCE7164901EB0B10A0
:104A4000D8E715490BEB4B0001EB0010D2E708B19A
:104A5000069800E0109800F011F908F10100C0B2CA
:104A6000B0FBFAF280460AFB128058B1641CE4B233
:104A7000082CC1D36D1CADB201988542ABD307B0F1
:104A8000BDE8F08F4FF00008F4E7000090880008C0
:104A90005C6C0008D0700008C07600082DE9FF4F5C
:104AA00085B08B46DDE91391054600904FEAD900A9
:104AB00000264843029003203746039040F24751B6
:104AC00007FB01F02E490190095C0798C05D814207
:104AD0004BD10BF1860083B207EB870005EB00108A
:104AE0004F3082B209FB075080B25946FFF702FFF0
:104AF000002036E0224801990024084400EB080A0F
:104B000015989AF8011000284FF0010000FA04F0FF
:104B100001EA000111D021B159462846089AFFF751
:104B20000AFF6D1C0098ADB2291A494512D10BF14C
:104B300001001FFA80FB009D10E009B1089800E019
:104B4000129800F09BF8761CB6B2B6FBF9F109FB9F
:104B5000116090B1641CA4B2082CD1D308F10100FB
:104B600080B2029980468842C4D37F1C0398BFB2AA
:104B70008742A3D309B0BDE8F08F0026EEE700001E
:104B8000F6A400082DE9FF4F83B00027DDE911A846
:104B90001D4681464FEA58063C46BB462CE0281B82
:104BA000401EC1B20A2001F049FF0599B1FBF0F0A7
:104BB0000A21B0FBF1F201FB120027B9691E8C42F9
:104BC00001DA58B101273030C2B2CDE900A804FBA8
:104BD000069080B2CDF808B0109B08E0CDE900A89F
:104BE00004FB0690109B80B2CDF808B020220499F7
:104BF000FFF7CCFE641CE4B2AC42D0D307B0BDE8F2
:104C0000F08F2DE9FE4F9946DDE90D6714468A467F
:104C10000546DDF830800CE0CDF800804B4651466B
:104C20002846CDE90167FFF7B1FE05EB560085B2D6
:104C3000641C2278002AEFD1BDE8FE8F10B504462F
:104C400000224FF400610448FEF73DF82046BDE81D
:104C50001040012100F066BF0008004810B504466E
:104C60000122D1020448FEF72EF82046BDE810408C
:104C7000012100F057BF00000008004810B50446AD
:104C80000122D1020548FEF71EF8200AFFF7E6FFD1
:104C9000E0B2BDE81040FFF7E1BF000000080048A7
:104CA00000EB8100006E00F0F840704700EB8100DF
:104CB000006E00F0F84070478068C0F3C000704795
:104CC0008068C0F3C00070478068C0F30000704780
:104CD0008068C0F3000070478068C0F380007047B0
:104CE0008068C0F380007047C06810F4406F01D046
:104CF0000020704701207047042303EAD15310B508
:104D000018444369C1F3045107248C40A3438A40EB
:104D10001343436110BD042303EAD15310B5184473
:104D20004369C1F3045107248C40A3438A401343D1
:104D3000436110BD00EB8100016E21F00041114381
:104D40000166704700EB8100016E21F000411143C4
:104D50000166704730B593B000240F9410943C2145
:104D600068461194FBF76FFA34484FF0A0410425D0
:104D700001604FF44031C0E9011485610121C46034
:104D8000C0E9044104774477016280F8244080F848
:104D90003840C46380F84040FDF706F908B1FBF7DE
:104DA00019FF0FA925480F94FCF7C2FC08B1FBF7C7
:104DB00011FF234800900920CDE901047F200594CC
:104DC000CDE9030584200A908DF8244080208DF8D9
:104DD00025400B9008958DF826408DF830406946A7
:104DE0001648FCF729F908B1FBF7F4FE15480090C6
:104DF00040F20F10019069461048FCF71DF908B108
:104E0000FBF7E8FE1048009040F21520019069463B
:104E10000A48FCF711F908B1FBF7DCFE0B480090DB
:104E200040F21B30019069460448FCF705F9002860
:104E300001D0FBF7CFFE13B030BD000044050020C9
:104E400002003004040060080800900C1000C0103C
:104E500030B589B020216846FBF7F5F919481849A3
:104E6000002401604FF44031C0E90114C4600425FE
:104E70000461C0E90545047744770121016280F8A7
:104E80002440C462046380F83840C46380F8404022
:104E9000FDF78AF808B1FBF79DFE0B48009006204D
:104EA000CDE901047F200594CDE903056946054855
:104EB000FCF7E6FC002801D0FBF78CFE09B030BD02
:104EC00000010050B00500202000F01400B58DB0A6
:104ED00030216846FBF7B7F91149104808600846C9
:104EE000FDF765FC08B1FBF775FE0220009000207D
:104EF0008DF804008DF805000290039001210490C4
:104F0000CDE905010246079069460548FDF736FBE5
:104F1000002801D0FBF75EFE0DB000BD0008005078
:104F20001C060020114808B5816C41F00401816421
:104F3000816C01F004010091816C41F001018164F8
:104F4000806C002200F00100009011460B20FDF75C
:104F500025FF0B20FDF714FF002211460C20FDF762
:104F60001DFFBDE808400C20FDF70ABF00100240FD
:104F70002DE9F04F87B014216846FBF764F94448E7
:104F8000C16C41F00401C164C16C01F004010591E0
:104F9000C16C41F02001C164C16C01F02001059198
:104FA000C16C41F00101C164C16C01F001010591C6
:104FB000C16C41F00201C164C16C01F002010591B4
:104FC000C16C41F00801C164C06CDFF8C88000F01A
:104FD00008004FF468440590002221464046FDF742
:104FE00072FEDFF8B4904FF4446600223146484622
:104FF000FDF769FE4FF400474FF0904A0022394612
:105000005046FDF760FEDFF894B0002204215846B8
:10501000FDF759FE0125CDE90045002402946946BB
:1050200040460394FDF76AFDC0208DE831006946D3
:105030005046FDF763FDCDE90054694648460295A8
:10504000FDF75CFD0096CDE901546946484603949E
:10505000FDF754FD4FF47070CDE9000469464046F9
:105060000294FDF74BFD0097CDE901546946504687
:105070000394FDF743FD04200090CDE901546946F7
:1050800058460394FDF73AFD07B0BDE8F08F0000E5
:10509000001002400008004800040048000C0048CE
:1050A000124810B5104901604FF48271416000212F
:1050B0004FF47062C0E902120222026101224261D1
:1050C000520282611822C0E9072107224162C0E929
:1050D0000A1201634163FEF7ABFB002803D0BDE871
:1050E0001040FBF777BD10BD0030014030060020B6
:1050F000124810B5104901604FF4827141600021DF
:105100004FF4E062C0E902120222C0E90421120257
:1051100082611022C0E9072107224162C0E90A1218
:10512000016308214163FEF783FB002803D0BDE83B
:105130001040FBF74FBD10BD003C0040940600201E
:1051400010B598B00024149415941C216846169448
:10515000FBF779F8342107A8FBF775F83248314995
:10516000C0E900142021816042F23411C0E9031427
:105170008021C0E90541FFF7FEF808B1FBF72AFDE1
:105180007020CDE9140414A927481694FEF776FD83
:1051900008B1FBF71FFD6020CDE9000402940394E1
:1051A00004940594002269461F480694FFF751F8BD
:1051B00008B1FBF70FFD042269461B48FFF749F8C9
:1051C00008B1FBF707FD082269461748FFF741F8C9
:1051D00008B1FBF7FFFC41F23E7001900C226946DA
:1051E0001148FFF736F808B1FBF7F4FC0794089470
:1051F00009944FF400500A94CDE90B400D9400033C
:105200000E94CDE90F401194129407A90648139407
:10521000FEF7DCFC08B1FBF7DDFC0348FEF7A2FF5C
:1052200018B010BD002C01405807002010B58AB0FE
:105230000024079408941C2168460994FBF703F89E
:1052400015484FF08041C0E90014D321C0E9024164
:10525000802104618161FFF78EF808B1FBF7BAFC89
:10526000079407A90C480994FEF708FD08B1FBF75D
:10527000B1FC6020CDE90004029400226946064892
:105280000494FEF7E6FF08B1FBF7A4FC0248FEF722
:1052900069FF0AB010BD0000A40700203EB500243D
:1052A0000F48009401940D490294C0E9001444F29F
:1052B0006721C0E9024180218161FEF7D8FD08B174
:1052C000FBF788FC20200090694602940448FEF712
:1052D000D5FC002801D0FBF77DFC3EBD001000404E
:1052E000F00700203EB500240F48009401940D49BA
:1052F00002940160A921C0E9011440F2E731C160C4
:1053000080218161FEF7B3FD08B1FBF763FC0094D7
:10531000694605480294FEF7B1FC002801D0FBF76E
:1053200059FC3EBD001400403C0800202046FBF71D
:1053300091FC0146224602A0FBF796FCFEE7000026
:105340004D656D4D616E61676500000002A1002032
:1053500000F01AFAFEE700000D0A2A2A2A204E4D14
:10536000495F48616E646C6572202A2A2A0D0A0022
:105370007047000010B5074CA068D22807D001F094
:10538000B7FA0520E060D220A060052010BD01F032
:10539000A1FAF6E7AC00002010B588B0202213492E
:1053A0006846FAF737FF124CA068B32808D0FBF71D
:1053B00036FA0A20E060B320A06008B00A2010BDD1
:1053C00000200C492061A082097803206A4612F867
:1053D0003030994204D102EBC00040688047E8E7D2
:1053E000401E40B20028F2DAE3E70000286C000813
:1053F00094000020980900202DE9F04F994C2DEDE4
:10540000028BB1B0606877280BD000F093FF0520C5
:10541000A0607720606031B00520BDEC028BBDE854
:10542000F08FFBF78FF82078002866D1FBF706F99C
:10543000002862D00020FBF7BDF812A800F04EFF54
:105440000120FBF7B7F815A800F048FF0220FBF792
:10545000B1F80FA800F042FF0320FBF7ABF818A843
:1054600000F03CFF0020FBF795F8B6EE008A30EE26
:10547000080ABCEEC00A10EE100A87B20120FBF742
:1054800089F830EE080ABCEEC00A10EE100A86B2A7
:105490000220FBF77FF830EE080ABCEEC00A10EEDF
:1054A000100A85B20320FBF775F8DDE9193C0DF110
:1054B00028081199189A88E80E10DDE90F3CDDE9FB
:1054C00016120DF1180830EE080A88E80E100DF1DA
:1054D0004808BCEEC00A98E80E1010EE100A0DF154
:1054E0000408009580B288E80F1033463A465E49BA
:1054F000002000F056F901202070FBF76BF8684699
:1055000000F0ECFE9DE8E0002097FBF771F868469C
:1055100000F0E4FE9DE80700CDE92F218246FBF76D
:1055200075F8684600F0DAFE9DE80D000390CDE9BD
:105530002423FBF773FBB0EE608A04A800F0CEFED4
:1055400004A8B0EE480A90E80E0008A8229307923B
:10555000009100F0C3FE08AA92E80B00CDE9041008
:105560000B9300F007FE08A800F0B8FE08AB93E824
:10557000070029AB83E8070000F002FE0CA800F04A
:10558000ADFE0CA890E80E001093CDE9112100F0BB
:10559000DFFD0CA800F0A2FE0CA890E88C000F9292
:1055A000CDE9143700F0DAFD16A800F097FE16A832
:1055B00090E80E00934601930C9100F0D5FD16A8DB
:1055C00000F08CFEDDE9178291460020169FFBF764
:1055D0002BF818900120FBF727F817900220FBF713
:1055E00023F8169000F0F8FD16AA92E80A10CDE90B
:1055F0001E31CDE91C9C019A19A9CDF860B081E853
:105600008401DDE914230DF150080F990C9F88E8FF
:105610008E00109A1299CDE912201091DDE929121D
:105620000CAF0B982B9B87E80F00DDE9043208AF25
:105630000798229987E80F00DDE9241204AF039848
:10564000009B87E80F00DDE92F21209FCDE90212A2
:10565000CDE9007A33462A460449002000F0A1F83B
:10566000D5E60000BC000020CCB5000858B5000805
:10567000074B00B51868402807D000F069FE0A20E3
:105680005860402018600A2000BD00F013FEF6E7C5
:10569000C80000202DE9F04104461548DDF81880C7
:1056A0001D46007816460F46532801D000F058FEDC
:1056B0000F48032C18D2EFF31181202282F31188B6
:1056C00004EB440200EBC20018302CB107604660C6
:1056D000856000220261C260C0F81480C8B280F305
:1056E00011880020BDE8F0814FF0FF30FAE700009C
:1056F000C00900202DE9F04107460B4815460E462B
:105700000078532801D000F02BFEEFF31184202005
:1057100080F311882A463146384600F007F8E1B296
:1057200081F31188BDE8F081C009002070B50E46F4
:10573000144900EB400001EBC0051446E86A183537
:1057400020B101280FD0022805D113E0284600F02F
:1057500039FEA04201D2002411E0224631462846FB
:1057600000F050FF0BE0284600F02CFEA042F4D2DF
:105770000446F2E73146284600F017FF044620466B
:1057800070BD0000C009002070B505460C460846F3
:10579000FAF764FD024621462846BDE87040FFF74F
:1057A000A9BF0FB408B504A900916A46039900F097
:1057B00003F801B05DF814FB2DE9F041ADF5087D6B
:1057C000804602A882904FF400700026CDE983063F
:1057D000CDE9856815460C4614F8011B002970D0E8
:1057E000252909D082A800F0C1FE85980028F3DAA7
:1057F0000DF5087DBDE8F0810020012221782329E4
:105800001ED02B2919D02D2902D0302908D102E031
:1058100040F0010001E040F00200641C002AEDD1DC
:1058200000222178A1F130030A2B0CD202EB820274
:1058300001EB4202303A641CF3E740F00400ECE76D
:1058400040F00800E9E70023CFB22E2F0BD114F867
:10585000011FA1F130070A2F05D203EB830301EBEF
:105860004303303BF3E76C290DD068290BD0702936
:105870004CD00BDC252914D058292BD063290CD00F
:10588000642911D112E014F8011FECE773292CD020
:10589000752917D0782907D11CE02868011D2960D7
:1058A000017882A800F062FE641C9EE729680F1D43
:1058B0002F600968CDE900200A2282A800F08DFD42
:1058C000F2E72DE029680F1D2F600968CDE900205F
:1058D0000A2206E029680F1D2F600968CDE9002023
:1058E000102282A800F0DCFDDEE72868011D296097
:1058F000076807B912A717F8011B0029D4D082A89E
:1059000000F034FE85980028F5DACDE72868011DFF
:10591000296001680820CDE9000603461022E0E76F
:10592000859800287FF764AF849820B1024602A9C9
:105930004046FFF7DFFEDDE984100844859057E715
:10594000284E554C4C290000F8B515460E460B461E
:105950000092044600224FF4C05100F019F888B9B3
:105960003346002280212046009500F07FF848B998
:10597000334600224FF4C0612046009500F008F83D
:10598000002804D0206E40F0200020660320F8BDDF
:105990002DE9FC5F4FF0000B984616460F46044673
:1059A0000C9D8DF804B0FDF793F9411BA8EB0105A0
:1059B000FDF78EF98246206800F10C092A4800683C
:1059C000C0EBC00000EB8000000D684343E0B7F57A
:1059D000C06F06D12EB999F800008DF804009DF82B
:1059E0000400B8F1FF3F37D0FDF772F9A0EB0A00D1
:1059F000A84203D215B1009858B32BE02068416843
:105A000021F0E00141606068B0F5827F0BD1A068B1
:105A1000B0F5004F02D0B0F5806F04D12068016866
:105A200021F040010160A06AB0F5005F09D1206853
:105A3000016821F4005101602068016841F40051BF
:105A40000160012084F85D0084F85CB00320BDE8AB
:105A5000FC9F0025401E0090206880683840B042BE
:105A6000B5D10020F3E70000100000202DE9F84335
:105A70001E46914688460446089DFDF729F9401BBD
:105A8000351AFDF725F9074625480068C0F3CB30E5
:105A9000684338E0701C37D0FDF71AF9C01BA842E4
:105AA00003D215B1009860B32CE02068416821F062
:105AB000E00141606068B0F5827F0BD1A068B0F56D
:105AC000004F02D0B0F5806F04D12068016821F04A
:105AD00040010160A06AB0F5005F09D1206801684B
