:020000040800F2
:10000000E8120020F101000843500008BF45000835
:10001000415000088D090008CD6100080000000073
:100020000000000000000000000000003F57000832
:10003000210A000800000000BD50000841570008D8
:100040000B0200080B0200080B0200080B0200085C
:100050000B0200080B0200080B0200080B0200084C
:100060000B0200080B0200080B020008A50900089B
:10007000B10900080B0200080B0200080B0200087F
:100080000B0200080B0200083D0300080B020008E9
:100090000B0200080B0200080B0200080B0200080C
:1000A0000B020008BD5700080B0200080B020008F5
:1000B0000B0200080B0200080B0200080B020008EC
:1000C0000B0200080B0200080B0200080B020008DC
:1000D0000B0200080B0200080B020008C1610008B7
:1000E0000B0200080B0200080B0200080B020008BC
:1000F0000B0200080B0200080B0200080B020008AC
:100100000B0200080B0200080B0200080B0200089B
:100110000B0200080B020008C9570008D557000859
:100120000B0200080B0200080B0200080B0200087B
:100130000B0200080B0200080B0200080B0200086B
:100140000B0200080B0200080B0200080B0200085B
:100150000B0200080B0200080B0200080B0200084B
:100160000B0200080B0200080B0200080B0200083B
:100170000B0200080B0200080B0200080B0200082B
:100180000B0200080B0200080B0200080B0200081B
:100190000B020008000000000B0200080B02000820
:1001A0000B0200080B0200080B0200080B020008FB
:1001B0000B0200080B0200080B0200080B020008EB
:1001C0000B0200080B0200080B0200080B020008DB
:1001D0000B0200080B020008DFF810D000F096F8C0
:1001E000004800472D6E0008AFF30080E8120020A1
:1001F0000648804706480047FEE7FEE7FEE7FEE7C1
:10020000FEE7FEE7FEE7FEE7FEE7FEE7AD57000884
:10021000D90100082DE9F05F0546002092469B4673
:1002200088460646814640241BE02846414647460C
:10023000224600F05AF853465A46C01A914110D34C
:1002400011461846224600F041F82D1A67EB0108C6
:100250004F4622460120002100F038F817EB000934
:100260004E41201EA4F10104DFDC484631462A46F7
:100270004346BDE8F09F40EA01039B0703D009E035
:1002800008C9121F08C0042AFAD203E011F8013B82
:1002900000F8013B521EF9D27047D2B201E000F8DB
:1002A000012B491EFBD270470022F6E710B513461A
:1002B0000A4604461946FFF7F0FF204610BD421CCF
:1002C00010F8011B0029FBD1801A7047202A04DB9B
:1002D000203A00FA02F1002070479140C2F1200359
:1002E00020FA03F3194390407047202A04DB203A98
:1002F00021FA02F00021704721FA02F3D040C2F146
:10030000200291400843194670470000064C074DF3
:1003100006E0E06840F0010394E8070098471034D5
:10032000AC42F6D3FFF75CFF5CBA00089CBA000849
:1003300040F2010CC1F2000C6047000010B5044807
:1003400001F074FBBDE81040024801F06FBB0000F3
:10035000300500209C0500202DE9F04104460E46A2
:100360000025006804F03CFB0746206804F028FBE9
:1003700007435BD02068C168890111D5617F0129DD
:100380000ED1217F01290BD10126294902E08D429E
:100390003DD26D1C0268D2435206F8D44021016060
:1003A000244D022E0FD0206804F01AFB48B12068BB
:1003B0008168C1F3400121B98168294041F01001F1
:1003C0008160012E0DD0206804F0FAFA48B120684F
:1003D0008168C1F3400121B98168294041F02001C1
:1003E0008160022E08D0032E04D0042502F086F985
:1003F000064617E00C25F9E70825F7E702F07EF935
:10040000801B05280ED92068806828420AD0E06D3C
:1004100040F01000E065206E40F0010020660120F1
:10042000BDE8F081206880682842E7D10020F7E726
:10043000000040A3C0FFFF7F70B5044600688168DC
:10044000C1F3400504F0C4FA48B345BB2068816895
:1004500001F00D01012914D18168124A1140891C53
:10046000816021680320086002F048F9054612E027
:1004700002F044F9401B02280DD920688068C007AB
:1004800009D0E06D40F01000E065206E40F0010002
:100490002066012070BD20688068C007E8D1002078
:1004A00070BD0000C0FFFF7FF8B50446002000903B
:1004B000206804F08DFAE8BB20688168264A114262
:1004C00037D18168D6433140491C81602068B0F142
:1004D000A04F02D02149884201D1214800E02148A3
:1004E000806800F0E07000020DD51F481F490068C9
:1004F000B0FBF1F0401C00EB4000800000E0401E2B
:1005000000900028FBD102F0F9F805461DE004F048
:100510005FFA20B9206881683140491C816002F08F
:10052000EDF8401B022810D920680068C043C007BE
:100530000BD000E00EE0E06D40F01000E065206EB2
:1005400040F0010020660120F8BD20680168C94321
:10055000C907DCD10020F8BD3F0000800001005039
:10056000000300500007005010000020400D030061
:10057000052801D300207047014931F81000704769
:10058000100A002030B589B00D4604462021684687
:10059000FFF78AFE0620CDE9004004207F21CDE947
:1005A000020104900020059069460D4801F006F80C
:1005B000002812D10A4801F0C3FD00280DD1022104
:1005C000074801F021FD040003D1054801F02AFA93
:1005D0002880034801F050FE204609B030BD0000DD
:1005E0009C050020F8B50F4C607838B97F210E4883
:1005F00000F074FB002814D1012060700B4D0C4EEC
:100600000024694655F82400FFF7BCFF002808D1F4
:10061000BDF8000026F81400641CE4B2052CF0D3E9
:100620000020F8BDB80000209C05002040710008A3
:10063000100A0020034890ED000A0838008800F0F6
:100640001DB80000C4000020034890ED010A0838DE
:10065000408800F013B80000C4000020034890ED6B
:10066000020A0838808800F009B80000C4000020A1
:100670000148007870470000B800002000EE900AA2
:100680009FED041AF8EE600A30EEC00A20EE010A6F
:10069000704700000000303B10B500200F4A9FED6E
:1006A000100A104B014642F8201003EB8004401C56
:1006B000C0B284ED000A0428F5D30A480C38418002
:1006C00001707F21084800F009FB002804D1BDE833
:1006D0001040054800F01CBE10BD00001C0A0020A0
:1006E00000000045C40000203005002070B5050062
:1006F00003D02868B0F1A04F01D0002070BD0921BF
:10070000284600F0EDFD224C208040F20F112846D3
:1007100000F0E6FD608040F21521284600F0E0FD83
:10072000A08040F21B31284600F0DAFDE080221F55
:10073000107850BB1749002051F8203034F8105081
:100740002B4441F82030401CC0B20428F4D3508818
:10075000401C50805088B0F5806F16D30C4B0020A1
:100760009FED0D0A083351F8204000EE904A03EB4C
:100770008004401CF8EE600AC0B2042860EE800AD3
:10078000C4ED000AEFD301201070012070BD0000FD
:10079000BC0000201C0A00200000803A0B4A0128FF
:1007A00007D0022807D0032807D0042808D000204B
:1007B0007047402106E0802104E04FF4807101E0A1
:1007C0004FF40071104601F08FBF00000008004890
:1007D00010B500F019F8010A4900020C41EA820143
:1007E0000143C8B210BD40214FF0904001F07CBFE2
:1007F00080214FF0904001F077BF000001210148B7
:1008000001F072BF0004004808B5FFF7ECFF8DF857
:100810000000FFF7EDFF8DF80100FFF7EFFF014645
:10082000BDF8000040EA014008BD06F075BBFEB50A
:1008300018264FF6FF7500248DE8700092B204F080
:1008400025F8FEBD02480068C06A80B2704700000B
:1008500030070020002801DA00207047884201DDBF
:100860000846704780B27047044B10B51C6860633F
:10087000186881631868C26310BD0000300700204B
:100880002DE9F041FFF7DEFF044601EE904AB6EE97
:10089000002A2146F8EE611A61EE821A9FED182AAD
:1008A000C0EE022AB0EE610A02EEA10AC0EE822A70
:1008B000BDEEC00A10EE106AB0EE610AC1EE020A87
:1008C00002EEA10ABDEEC00A10EE105AB0EE610AA7
:1008D00000EEA10ABDEEC00A10EE100AFFF7BAFF43
:1008E000074621462846FFF7B5FF05462146304614
:1008F000FFF7B0FF3A462946BDE8F041FFF7B4BF25
:100900000000C84210B5FFF79DFF4008024611469F
:10091000FFF7AAFF0021124803F0A8FAC0B900218E
:100920000F4802F03BFF98B904210D4803F09EFAEE
:1009300070B904210A4802F031FF48B9082108487B
:1009400003F094FA20B90821054802F027FF08B106
:10095000012010BDBDE810400C21014803F086BA0B
:100960003007002010B50068B0F1804F09D1002198
:10097000044803F00BFB034900200968486302495F
:10098000087010BD7C070020D8000020FEE70000A2
:1009900070EEC10A9FED021A60EE810A70470000F6
:1009A00036CD133F014801F0F7BC0000D00600200F
:1009B000014801F0F1BC0000600800200D49026808
:1009C0008A4201D20C4901E00B492031D2B21423F2
:1009D000083AB2FBF3F2436C02F01F0223F0030368
:1009E0001944816404498031C16401219140016549
:1009F0007047000008040240000802400179074ADD
:100A000002EB81024265054A4432491E826501F0CB
:100A10001F0201219140C16570470000FC0802409F
:100A2000704700001FB50D48FF2101704170002183
:100A3000817010380278002A0FD1012202705022F2
:100A40004FF6FF73CDE9003287200023CDE9020184
:100A500003A21946184603F0A5FE1FBD9000002012
:100A6000464F4300704700000EB50C48FF2101704F
:100A700000214170817010384278002A0DD1012286
:100A8000427010204FF6FF72CDE900200023029142
:100A900003A21946184603F038FF0EBD900000204F
:100AA000594A52515A3737370000000070B52DEDC2
:100AB000028BFFF78DFE00F0D7F828480021FF22B7
:100AC00001704270A0F110048170A078401CC0B287
:100AD000A0700A283ED3A1700320FFF749FD02460B
:100AE000042330210020FFF7A2FE05F093FB9FEDC9
:100AF0001C8A20EE080ABCEEC00A10EE100A85B26D
:100B000005F08EFB20EE080A04232A464821BCEE9D
:100B1000C00A10EE100A86B20020FFF788FE0423F8
:100B2000324660210020FFF782FE022005F050FBD4
:100B30000246012300216020FFF779FEA2880623E8
:100B4000501CA0800021BDEC028B7820BDE87040D5
:100B5000FFF76DBEBDEC028B70BD00009000002061
:100B600000007A4472B6FEE770B53C4C2DED028B66
:100B7000B0EE618A84EC030AFFF70AFF84ED030AF2
:100B8000C4ED040A84ED178AB0EE480A05F036FE7B
:100B900084ED180AB0EE480A05F088FD84ED190AC4
:100BA000F0EE401A94ED181AD4ED040A94ED030AFD
:100BB00004F079FA84ED050AC4ED060A94ED071AEB
:100BC00004F1340031EE400A94ED081A71EE602A07
:100BD000D4ED1A0A04F036FAD4ED1A0AB0EE620A1D
:100BE00004F1480004F02EFA94ED100A9FED1C8ADF
:100BF00084ED090AD4ED150A20EE000A04F124055B
:100C0000F1EE600AC4ED0A0A00EEA00ADFED150A53
:100C1000B4EEE00AF1EE10FA0FDD05F0B7FEC8EE13
:100C2000000A95ED000A20EE200A85ED000A95EDF8
:100C3000010A20EE200A85ED010AD4ED191A94ED7F
:100C4000181AD4ED0A0A94ED090A03F0CBFC84EDDE
:100C50000B0AC4ED0C0ABDEC028B70BD1400002021
:100C60000000A0420000C845024890ED050AD0ED02
:100C7000060A7047140000200348D0ED0C0A90EDDE
:100C80000B0A03F09DBC0000140000200E489FEDED
:100C90000D0A80ED070A80ED080A80ED050A80ED57
:100CA000060A80ED090A80ED0A0A80ED0B0A80ED44
:100CB0000C0A80ED0F0A80ED100A80ED140A80ED19
:100CC000150A70470000000014000020024880ED63
:100CD000070AC0ED080A704714000020F8B5002587
:100CE0000446009590F858000E4601280BD00120CC
:100CF00084F858002046FFF79FFB0200E06D04D007
:100D000040F010002AE00220F8BD20F4885040F0A6
:100D10000200E06520688168134B194006F08043AB
:100D2000194341F000418160104B20680EE00099AA
:100D3000491C0091994209D3E06D20F0020040F077
:100D40001000E06584F858500120F8BD8168C90F93
:100D5000EDD1E06D20F0020040F00100E06584F884
:100D600058501046F8BD0000C0FFFF3F02DE0400EF
:100D7000704700002DE9F84F4FF000090446CDF808
:100D800000900D4694F85820DFF8008461694F46C2
:100D90004846012A0AD00126FD4A84F8586041B12C
:100DA000296A012905D0A36EEBB129E00220BDE834
:100DB000F88F6868092838D1A96A4FF4785041B192
:100DC0002B6801F07C0100EA53400843E96A0843BC
:100DD00002E0296800EA51402168CB6C13400343CC
:100DE000CB64606621E0C4E91971A96A286A31B14F
:100DF00001F07C01401E0843E96A084300E0401E00
:100E00002968C1F38463297901F01F018B40A16E29
:100E10000343491EA166606E40EA0300606604D188
:100E20002168CB6C13400343CB64206803F0CCFDF6
:100E300058B995F8250098B12068C16895F8262022
:100E400021F4401141EA4251C160206803F0CCFD19
:100E50008246206803F0B8FD5AEA00010DD0FAE09E
:100E600095F8260095F82410400540EA01512068C5
:100E7000C26822F440121143E6E7A86A30B1E86A7A
:100E800020B195F8250001285DD003E095F82500F4
:100E9000012804D02068C16821F0007103E02068B7
:100EA000C16841F00071C16095F83000012851D04F
:100EB0002068016921F002010161AA68296820689F
:100EC000B2F1004F37D003F0AAFD2068416921F04C
:100ED0000041416120686969C268C2F3C1025200E1
:100EE00091402A69042A43D000EB82002B68026EED
:100EF000DFF8A0C203F0F84302EA0C020B431A43E6
:100F000042F00041016622682869A96902EB80006D
:100F1000026E22F080720A430266297F22682869E5
:100F2000012922D0002102EB8000026E22F0007223
:100F30000A4302668FE0002203F071FD20684169D8
:100F400041F00041C5E7E06D40F02000E0654FF062
:100F50000109A9E7D5E90D1001432068026922F4CF
:100F6000FF7242F002021143A6E74FF00071DAE788
:100F7000002103F01FFD400320684FF0000171D0F5
:100F800003F018FD90FAA0F0B0FA80F1286842034F
:100F90006DD090FAA0F0B0FA80F0814204D1002226
:100FA0001146206803F052FD0121206803F002FD84
:100FB000400320684FF001015CD003F0FBFC90FA85
:100FC000A0F0B0FA80F12868420358D090FAA0F05F
:100FD000B0FA80F0814204D100220121206803F0A0
:100FE00035FD0221206803F0E5FC400320684FF046
:100FF000020147D003F0DEFC90FAA0F0B0FA80F1D5
:101000002868420343D090FAA0F0B0FA80F0814201
:1010100004D100220221206803F018FD032120687A
:1010200003F0C8FC400320684FF0030132D003F006
:10103000C1FC90FAA0F0B0FA80F1286842032ED0EB
:1010400090FAA0F0B0FA80F0814204D1002203218E
:10105000206803F0FBFC206803F0BEFC10B3B3E093
:1010600000E004E003F0A6FCC0F384618EE7C0F367
:10107000846092E703F09EFCC0F38461A3E7C0F3B1
:101080008460A7E703F096FCC0F38461B8E7C0F37F
:101090008460BCE703F08EFCC0F38461CDE7C0F34D
:1010A0008460D1E721682A7B286851F8B03FC0F3FB
:1010B000120C23EA0C0302F0180C374A22FA0CF245
:1010C000024013430B60E96841457DD12868410324
:1010D0001AD090FAA0F1B1FA81F1491C01F01F0178
:1010E00009294FEA403130D8002910D090FAA0F1F8
:1010F000B1FA81F101F1010101F01F0106FA01F6D7
:1011000008D1C0F3846109E0C0F38461E5E7C0F36E
:101110008461EFE790FAA0F1B1FA81F101F10101E8
:1011200001F01F0146EA816102D1C0F3846003E04F
:1011300090FAA0F0B0FA80F000F1010000F01F007A
:1011400000EB400041EA00513AE000290DD090FA4E
:10115000A0F1B1FA81F101F1010101F01F0106FADC
:1011600001F605D1C0F3846106E0C0F38461F2E7C3
:1011700090FAA0F1B1FA81F101F1010101F01F0132
:1011800046EA81610BD1C0F384600CE000007F402F
:101190000040100400F0FF03FFFF070014E090FA86
:1011A000A0F0B0FA80F000F1010000F01F003A4A10
:1011B00000EB400002EB005041EA000141F00071F9
:1011C000AA68206803F02BFC34482A6802425ED0EB
:1011D00020684FF0A04C324B324E334D604501D069
:1011E000A84201D1194600E031468968DFF8BC8089
:1011F00001F0E071424503D0DFF8B480424520D1D0
:101200005FEA01281DD4604505D02A4A90423ED1AC
:10121000A84200D0334641F40000996821F0E07103
:1012200001439960244825490068B0FBF1F0801C17
:1012300000EB4000800000E0401E00900028FBD141
:1012400025E0DFF87C8042450FD15FEAC1180CD45D
:10125000A84202D11B4A904219D0604502D0A84250
:1012600000D0334641F080700CE0DFF85C804245EE
:101270000DD14A020BD4A84209D0604500D03346B4
:1012800041F48000996821F0E0710143996084F88D
:10129000587048468BE50000000020FE00000880E2
:1012A000000300500007005000010050000021C35F
:1012B0001000C0900006005010000020400D0300F8
:1012C000000052C700050050000084CB10B5FFF7A6
:1012D0000DFA002803D0BDE81040FFF729B810BD73
:1012E0000068A1F580710F390ED0B1F5837F08D069
:1012F000B1F5037F02D0D0F880007047D0F88C00A1
:101300007047D0F888007047D0F884007047704765
:101310002DE9F041044600684FF0A0464C4FB04222
:1013200001D0B84201D14B4900E04B49896801F036
:101330001F0503F049FB08BB2068C168C06C01F0C1
:10134000004110F4C07F00D191B194F858000128F9
:1013500014D0012084F858002046FFF7A5F80100BA
:101360004FF000020CD084F858200846BDE8F08108
:10137000E06D40F02000E0650120F7E70220F5E78E
:10138000E06DC00504D5206E20F00800206600E066
:101390002266E06D42F20103984340F48050E0651C
:1013A00020682E4BDFF8B8C0B84201D1B64604E041
:1013B000984201D1E64600E08646864500D02DB928
:1013C000D4F85CE02EF4801EC4F85CE04FF0600EB0
:1013D000C0F800E084F858202068C268920203D563
:1013E000426842F480624260A0690828206842682E
:1013F00007D022F0400242602068426842F020029A
:1014000006E022F0200242602068426842F040027A
:1014100042602068B84204D0984201D1664600E09C
:101420000646864209D045B1062D06D0072D04D0C8
:10143000E06D40F48010E06597E7C26812F0007F2D
:1014400093D18268074B1A4042F0080282608CE711
:10145000000100500003005000070050000500503C
:1014600000040050C0FFFF7F704770472DE9F04F28
:10147000044690F858009BB00D464FF0000B012831
:1014800012D0012084F85800002717971897206879
:101490004FF0A048DFF80C91DFF80CA1434E404517
:1014A00006D13046009608E002201BB0BDE8F08F60
:1014B00048450AD15046CDF800A003F095FA0090B7
:1014C000206803F091FA40B109E0E06D40F020009F
:1014D000E06584F858700120E7E7009848B1E06DB6
:1014E00040F02000E0654FF0010B84F8587058463A
:1014F000DBE72068C446604501D0B04201D12C48EA
:1015000000E02C4829682C4B0029816840F61F72A6
:1015100021F4604128D094F8388041EA4831D5F868
:10152000048041EA080181602168614501D0B1422F
:1015300005D1DCF80810B368C1F3000109E0D9F85F
:101540000810DAF80860C1F30001C6F300069B68D2
:101550003143C3F300031943C7D1AB68296819436A
:101560008368934319431BE081602168614501D082
:10157000B14205D1DCF80810B368C1F3000109E0FD
:10158000D9F80810DAF80850C1F30001C5F30005D6
:101590009B682943C3F300031943A6D18168914393
:1015A0008160A2E7000400500005005000010050D7
:1015B0000003005000070050000600502DE9F84FCE
:1015C00000270446009790F85800DFF814840D4671
:1015D000B946012810D0012684F85860206803F02D
:1015E000FFF958B1E06D40F02000E065012784F874
:1015F00058903846BDE8F88F0220FBE7D5E9002077
:101600000C23216803EA901319440B6B00F01F00B0
:101610004FF01F0C0CFA00FCC2F3846223EA0C03A7
:10162000824013430B63206803F0DAF98246206896
:1016300003F0C6F95AEA00013CD1AA68296820687B
:10164000B2F1004F37D003F0DBF92068416921F097
:101650000041416120686A69C168C1F3C101490064
:101660008A402969042931D000EB81002B68016E82
:10167000DFF870C303F0F84301EA0C011343194388
:1016800041F00041016620682A69A96900EB8200E7
:10169000026E22F080720A430266297F226828695E
:1016A000012910D0002102EB8000026E22F00072AE
:1016B0000A4302667DE0002203F0A2F92068416936
:1016C00041F00041C5E74FF00071ECE7002103F065
:1016D0006BF9400320684FF0000171D003F064F90A
:1016E00090FAA0F0B0FA80F1286842036DD090FA29
:1016F000A0F0B0FA80F0814204D1002211462068A7
:1017000003F09CF90121206803F04EF940032068A2
:101710004FF001015CD003F047F990FAA0F0B0FA65
:1017200080F12868420358D090FAA0F0B0FA80F017
:10173000814204D100220121206803F07FF90221B7
:10174000206803F031F9400320684FF0020147D0D0
:1017500003F02AF990FAA0F0B0FA80F12868420369
:1017600043D090FAA0F0B0FA80F0814204D1002278
:101770000221206803F062F90321206803F014F9C4
:10178000400320684FF0030132D003F00DF990FAC6
:10179000A0F0B0FA80F1286842032ED090FAA0F0B1
:1017A000B0FA80F0814204D100220321206803F0C6
:1017B00045F9206803F00CF910B3AAE000E004E05A
:1017C00003F0F2F8C0F384618EE7C0F3846092E71F
:1017D00003F0EAF8C0F38461A3E7C0F38460A7E7ED
:1017E00003F0E2F8C0F38461B8E7C0F38460BCE7BB
:1017F00003F0DAF8C0F38461CDE7C0F38460D1E789
:1018000021682A7B286851F8B03FC0F3120C23EA04
:101810000C0302F0180C744A22FA0CF20240134333
:101820000B60E968414574D1286841031AD090FAE9
:10183000A0F1B1FA81F1491C01F01F0109294FEA19
:10184000403130D8002910D090FAA0F1B1FA81F1DE
:1018500001F1010101F01F0106FA01F608D1C0F300
:10186000846109E0C0F38461E5E7C0F38461EFE7D8
:1018700090FAA0F1B1FA81F101F1010101F01F012B
:1018800046EA816102D1C0F3846003E090FAA0F0DF
:10189000B0FA80F000F1010000F01F0000EB400002
:1018A00041EA005131E000290DD090FAA0F1B1FADF
:1018B00081F101F1010101F01F0106FA01F605D1E4
:1018C000C0F3846106E0C0F38461F2E790FAA0F10E
:1018D000B1FA81F101F1010101F01F0146EA8161D4
:1018E00002D1C0F3846003E090FAA0F0B0FA80F077
:1018F00000F1010000F01F003C4A00EB400002EB49
:10190000005041EA000141F00071AA68206803F02C
:1019100077F837482A6802423FF469AE20684FF0F2
:10192000A04C344B344E354D604501D0A84201D116
:10193000194600E031468968DFF8C48001F0E071A3
:10194000424503D0DFF8BC80424521D15FEA01283F
:101950001ED4604506D02C4A90427FF448AEA8427F
:1019600000D0334641F40000996821F0E071014352
:101970009960264826490068B0FBF1F0401C00EB56
:101980004000800000E0401E00900028FBD12EE6C1
:10199000DFF8808042450FD15FEAC1180CD4A8421D
:1019A00002D11D4A9042F2D0604502D0A84200D038
:1019B000334641F080700CE0DFF860804245E6D1AC
:1019C0004A02E4D4A842E2D0604500D0334641F454
:1019D0008000996821F0E0710143996007E60000FA
:1019E00000007F4000F0FF03FFFF0700000020FE23
:1019F0000000088000030050000700500001005064
:101A0000000021C31000C09000060050100000200C
:101A1000400D0300000052C700050050000084CBB9
:101A2000704770470068006C704700002DE9F84F60
:101A300004460068066845684FF0A048DFF89092B9
:101A4000404501D0484501D1A24800E0A248806845
:101A500000F01F07B0070ED5A8070CD5E06DC00633
:101A600003D4E06D40F40060E0652046FFF780F9A4
:101A7000216802200860DFF864B2DFF864A2700712
:101A800001D5680703D430073FD528073DD5E06D61
:101A9000C00603D4E06D40F40070E065206802F0F9
:101AA000A7FF60B32068484501D1414604E058458E
:101AB00001D1514600E00146814208D03FB1052FD7
:101AC00005D0092F03D0484503D1414606E0C1683F
:101AD00005E0584501D1514600E00146C968890436
:101AE0000DD4016809070AD502F07AFF58B3E06DFA
:101AF00040F01000E065206E40F0010020662046B6
:101B0000FFF78EFF21680C200860B00601D5A806FB
:101B100003D470065FD568065DD5E06DC00603D4BA
:101B2000E06D40F40050E0652068C16C11F4C07FA6
:101B30001AD00021009102F05BFF02462068484560
:101B400014D1414617E02068416821F00C01416042
:101B5000E06D20F48070E065E06DC004CFD4E06DEE
:101B600040F00100E065CAE70121E3E7584501D1F3
:101B7000514600E00146814208D03FB1062F05D012
:101B8000072F03D0484503D1414606E0C16805E070
:101B9000584501D1514600E00146C968009BA3B1F8
:101BA0008B0102D58AB18A040FD4026852060CD583
:101BB00089020AD402F004FFF0B3E06D40F0100097
:101BC000E065206E40F0010020662046FFF77EFBB6
:101BD00021686020086030060BD5280609D5E06D25
:101BE00040F48030E065204600F096F921688020BE
:101BF0000860F0050CD5E8050AD5E06D40F400302A
:101C0000E0652046FFF730FC21684FF480700860E3
:101C1000B0050CD5A8050AD5E06D40F48020E0653C
:101C20002046FFF722FC21684FF400700860F006A0
:101C300031D5E8062FD500E009E0E06BE8B1206877
:101C4000EFB3404501D0484512D1224811E0206849
:101C5000416821F060014160E06D20F48050E06552
:101C6000E06DC005B1D4E06D40F00100E065ACE787
:101C70001948806800F4604050B1E06D40F4806025
:101C8000E065206E40F0020020662046FFF7C9FEA6
:101C9000216810200860700517D5680515D5E06D1E
:101CA00040F48040E065206E40F008002066216826
:101CB0004FF4806008602046BDE8F84F00E001E086
:101CC000FFF725BBC068C007D6E7BDE8F88F000066
:101CD00000010050000300500007005000050050B4
:101CE00000040050F8B54FF0000504002E460095A2
:101CF00002D0E06D10B107E00120F8BD204600F0F1
:101D00000DF9266684F8586020688168C1F3407137
:101D100019B18168744A1140816020688168C1F3FB
:101D2000007189B98168714A114041F08051816028
:101D30006F4870490068B0FBF1F04000801C00E083
:101D4000401E00900028FBD120688168C1F300711B
:101D500041B9E16D41F01001E165216E41F00101F1
:101D60002166012502F03CFEE16DC90600D430B1C8
:101D7000E06D40F01000E06501252846F8BDE06DFB
:101D800020F4807040F00200E065206802F020FE40
:101D900040BB20684FF0A043574A984201D0904280
:101DA00004D199689668C1F300010AE05349896833
:101DB000534EC1F30001B668C6F300063143514EDD
:101DC000B668C6F3000631430CD1984201D0904268
:101DD00001D14D4800E04D486168826822F47C12D0
:101DE0000A438260E168E06B627F0843A16841EAD0
:101DF0004231084394F8241040EA0140012904D1FB
:101E0000218D434A02EB41410843E16A29B101F4C3
:101E10007871226B014342EA01002168CA683D4B98
:101E20001A400243CA6020680169626B21F0406178
:101E300011430161206802F0C3FD70BB207F94F85C
:101E40003810800340EA41012068C26844F202036E
:101E50009A430A43C26020690028206801690AD0B9
:101E600041F480310161206850F8C01F22696FF38E
:101E70000D01114307E021F480310161206850F821
:101E8000C01F6FF30D01016094F84000012813D0CA
:101E90002068016921F00101016160690128206861
:101EA000016B19D021F00F010163E06D20F00200F9
:101EB00040F00100E06560E7D4E911200243D4E975
:101EC0001301084302432068016940F2FC739943FF
:101ED0000A4342F00101DFE721F00F02216A491EA7
:101EE0000A430263E1E70000C0FFFF5FC0FFFF7F1E
:101EF00010000020400D03000001005000040050BD
:101F0000000500500006005000030050000700507C
:101F10000000FEFF0740F0FF70470000F0B59BB0E7
:101F20000446142115A8FEF7BFF954216846FEF7B0
:101F3000BBF94FF40041206800268A032E4D032789
:101F40002E4CB0F1A04F10D02D4B984252D1684684
:101F50001192009100F0D0FC08B1FEF703FE286852
:101F6000401C2860012825D02CE068461192009181
:101F700000F0C2FC08B1FEF7F5FD2868401C28609F
:101F8000012807D1E06C40F40050E064E06C00F4FC
:101F900000501A90E06C40F00100E064E06C17968D
:101FA00000F001001A900F20CDE9150715A94FF098
:101FB000904015E0E06C40F40050E064E06C00F408
:101FC00000501A90E06C40F00400E064E06C17965A
:101FD00000F004001A903720CDE9150715A909482B
:101FE00000F0AAFA00221146122000F0EDFB1220A8
:101FF00000F0DCFB1BB0F0BD000000200010024030
:1020000000010050000800482DE9F04704460F4643
:1020100000684FF0A0494549454BDFF818A14845F5
:1020200001D0504501D10A4600E01A46926802F0FC
:102030001F06A269082A14D0AEB1052E13D0092EAE
:1020400011D0484502D0504500D01946886800F4A8
:10205000604058B1E06D40F02000E0650120BDE82F
:10206000F087082503E0C068C007F2E7042500F008
:1020700045FB804615E0781C13D000F03FFBA0EB39
:102080000800B84200D867B920680068284208D123
:10209000E06D40F00400E065002084F85800032063
:1020A000DDE7206800682842E5D0E06D40F400706C
:1020B000E065206802F09CFC80B1607F70B9206808
:1020C000006800070AD5E06D20F48070E065E06DDF
:1020D000C00403D4E06D40F00100E0652068164CB8
:1020E0001649504501D14A4604E0A04201D10A46B2
:1020F00000E00246824208D03EB1052E05D0092EEE
:1021000003D0504503D1494604E0C16803E0A04232
:1021100000D00146C968082D05D0490401D40C211E
:10212000016000209BE70821FAE70000000300504F
:10213000000700500001005000050050000400504E
:102140002DE9F041044600684FF0A046444FB042EC
:1021500001D0B84201D1434900E04349896801F008
:102160001F0502F03DFC18B102210846BDE8F081D0
:1021700094F8580001280CD0012084F8580020461B
:10218000FEF792F901004FF0000304D084F85830B4
:10219000EBE70220EAE7E06D40F60162904340F48D
:1021A0008070E0652068314ADFF8C4C0B84201D1D0
:1021B000B64604E0904201D1E64600E086468645F8
:1021C00000D02DB9D4F85CE02EF4801EC4F85CE099
:1021D000D4F85CE05FEACE4E06D5D4F860E02EF08D
:1021E000060EC4F860E000E023664FF01C0EC0F855
:1021F00000E084F858302068B84201D1334604E04A
:10220000904201D1634600E0034683420ED06DB197
:10221000052D0BD0092D09D0E36D43F48013E36540
:10222000B84213D0904210D166460FE0C2689201C6
:1022300005D5E26D22F4005242F48052E2658268D4
:102240000C4B1A40121D82608FE70646F068800131
:102250008BD5E06D20F4005040F48050E06584E7B9
:10226000000100500003005000070050000500501E
:1022700000040050C0FFFF7F10B5044690F85800DE
:10228000012808D0012084F8580003212046FEF7D9
:1022900063F810B10BE0022010BD2046FEF7CCF829
:1022A00028B9E16D21F4885141F00101E165002177
:1022B00084F8581010BD10B590F825200021012396
:1022C000022A03D00421C163012122E002681468BC
:1022D00024F00E041460826C146824F4807414607A
:1022E0000268146824F00104146090F84420046C1F
:1022F00002F01F0203FA02F26260D0E91324546074
:10230000426D32B1146824F480741460D0E916244C
:10231000546080F82530002280F82420084610BD43
:1023200070B590F82510002401222346022907D019
:102330000421C16380F8252080F82430012429E09D
:1023400001680D6825F00E050D6001680D6825F027
:1023500001050D60816C0D6825F480750D6090F8A5
:102360004410154601F01F018A40016C4A60D0E913
:1023700013124A60416D31B10A6822F480720A601A
:10238000D0E916124A6080F8255080F82430816B1D
:1023900001B18847204670BDF0B4016C0B6801683C
:1023A0000A6890F84440042504F01F0405FA04F676
:1023B0001E4211D056070FD50A68920603D40A6848
:1023C00022F004020A6090F8441001F01F018D40D1
:1023D000016C4D60016B1DE0022606FA04F71F42F6
:1023E0004FF0000C4FF0010518D0970716D50A687A
:1023F000920605D40A6822F00A020A6080F8255085
:1024000090F8441001F01F018E40016C4E6080F87E
:1024100024C0C16A00291AD0F0BC08470826A6408B
:102420001E4214D0120712D50A6822F00E020A606A
:1024300090F84410026C01F01F0105FA01F151609F
:10244000C56380F8255080F824C0416BE2E7F0BCFA
:102450007047000070B504000CD02B4A206814218E
:10246000904209D2294A0244B2FBF1F18900616429
:1024700027490AE0012070BD234A52420244B2FBC0
:10248000F1F189006164204908392164022184F84E
:102490002510016847F6F0729143D4E902231A43EC
:1024A000D4E904352B431A43A3691A43E3691A4359
:1024B000236A1A430A4302602046FEF77FFAA068A7
:1024C0000025B0F5804F00D16560A16C20790860CF
:1024D000D4E9130141606068401E032808D82046F3
:1024E000FEF78CFA606D0560D4E91601416002E0E8
:1024F0006565A565E565E563012084F8250084F838
:102500002450002070BD000008040240F8FFFDBF09
:102510000000024070B5044600F0F0F80546601C6B
:1025200002D004484068044400F0E8F8401BA04290
:10253000FAD370BD040000202DE9F84FDFF8889130
:102540000022A9F1040B03274FF00F0C09F1040A34
:10255000ABF1040EB1E0012595402B4073D00C790E
:1025600004F00304012C01D0022C15D1866854001C
:1025700007FA04F826EA0806D1F80C8008FA04F8ED
:1025800048EA0608C0F808804468AC430D79C5F3F2
:1025900000159540254345600C79E443A40708D015
:1025A000C568540007FA04F6B5438E68A6402E436A
:1025B000C6600C7904F00304022C11D1D40800EB9E
:1025C0008406356A5407E40E0CFA04F825EA080577
:1025D000D1F8108008FA04F848EA0508C6F8208007
:1025E0000568540007FA04F6B5430E7906F00306B1
:1025F000A6402E4306604C6814F4403F5CD0334C38
:10260000256E45F001052566246E22F0030504F0D1
:10261000010400942E4C05EB0408D8F808509407E8
:10262000260F0CFA06F4A543B0F1904F04D0294CC4
:10263000A04203D1012417E0002415E0264CA0425B
:1026400002D1022410E037E0244CA04201D103243F
:102650000AE0234CA04201D1042405E0214CA04211
:1026600001D1052400E00624B4402C43C8F80840FA
:10267000D9F800404D464E689C43F60200D51C43F5
:102680002C60DAF8004055464E689C43B60200D5EF
:102690001C432C60DBF800405D464E689C43B6034B
:1026A00000D51C432C60DEF8004075464E689C4304
:1026B000F60300D51C432C60521C0B6833FA02F45D
:1026C0007FF449AFBDE8F88F0804014000100240D4
:1026D000000001400004004800080048000C0048C9
:1026E00000100048001400480069084000D0012094
:1026F00070470AB181617047816270470148806804
:1027000070470000040000200248816842681144BC
:10271000816070470400002010B50024032000F001
:1027200073F80F2000F008F808B1012401E000F070
:1027300025F8204610BD000070B50E4E0546002459
:10274000706898B14FF47A71B1FBF0F00A490968EA
:10275000B1FBF0F000F057FF40B9102D06D2002277
:102760002946501E00F030F8356000E00124204674
:1027700070BD000004000020100000200A4882B054
:10278000016E41F001010166016E01F0010100914D
:10279000816D41F080518165806D00F08050009026
:1027A00002B000F0A1B8000000100240002809DBD0
:1027B00000F01F02012191404009800000F1E0205B
:1027C000C0F8001170470000F0B40E4B1B68C3F353
:1027D0000223C3F10704042C00D904241D1D072D76
:1027E00001D2002300E0DB1E012606FA04F56D1E6F
:1027F0000D409D409E40761E164045EA0601F0BC05
:1028000003F044BF0CED00E0064A00F00701106839
:102810004FF6FF03184040EA0120034908431060C7
:10282000704700000CED00E00000FA052B492C4B2E
:102830000A6832214A432B4940B1B0F5007F08684D
:1028400029D020F4C06040F480602CE00868C0F318
:102850004120022804D051F8800F20F4807022E03B
:10286000D1F8800020F48070C1F88000086820F45E
:10287000C06040F400700860B2FBF3F0401C00E060
:10288000401E4A69520501D50028F9D14869400522
:102890000AD503207047C0F34120022806D051F822
:1028A000800F40F48070086000207047D1F88000ED
:1028B00040F48070C1F88000086820F4C06040F4E3
:1028C00000700860B2FBF3F0401C00E0401E4A6953
:1028D0005205DBD50028F9D1D8E700001000002010
:1028E00040420F00007000400248816841F480417E
:1028F00081607047007000402DE9F84F04460026C3
:102900000068C14D374600035DD5A86D4FF0000942
:10291000C00009D4A86D40F08050A865A86D4FF0A4
:10292000010900F080500090DFF8E0A2DAF8001012
:1029300041F48071CAF80010FFF7E0FE804607E01E
:10294000FFF7DCFEA0EB0800022801D9032632E0E5
:10295000DAF80000C005F3D56EBBD5F8900010F48E
:10296000407014D0216D814211D0D5F89000D5F877
:10297000901020F4407041F48031C5F89010D5F8E3
:10298000901021F48031C5F89010C5F89000C00770
:102990007ED0FFF7B3FE804641F2883A05E0FFF7AC
:1029A000ADFEA0EB08015145D0D8D5F890008007C6
:1029B000F5D5002E6CD03746B9F1000F03D0A86DC5
:1029C00020F08050A8652078C00707D0D5F888008F
:1029D000616820F003000843C5F88800207880076C
:1029E00007D5D5F88800A16820F00C000843C5F889
:1029F00088002078400707D5D5F88800E16820F0E6
:102A000030000843C5F888002078000707D5D5F8BE
:102A10008800216920F0C0000843C5F888002078AC
:102A2000C00607D5D5F88800616920F440700843D6
:102A3000C5F888002078800607D5D5F88800A169F8
:102A400020F440600843C5F888002078400607D588
:102A5000D5F88800E16920F440500843C5F88800A3
:102A60002078000607D5D5F88800216A20F4404078
:102A70000843C5F888002088C00507D5D5F8880028
:102A8000616A20F440300843C5F88800206800E0FF
:102A900024E0800307D5D5F89C00A16A20F003004C
:102AA0000843C5F89C002088800507D5D5F8880024
:102AB000E16A20F440200843C5F8880020884005DA
:102AC00019D5D5F88800216B20F440100843C5F8CB
:102AD0008800206BB0F5801F09D00CE0D5F890007D
:102AE000216D20F440700843C5F8900064E7E86861
:102AF00040F48010E860208800050FD5D5F88800E4
:102B0000616B20F440000843C5F88800606BB0F5A5
:102B1000800F03D1E86840F48010E8602088C0048A
:102B20000FD5D5F88800A16B20F040700843C5F898
:102B30008800A06BB0F1807F03D1E86840F480107A
:102B4000E860208881044FF000600ED5D5F8881029
:102B5000E26B21F040611143C5F88810E16B8142BE
:102B600003D1E96841F48011E960218849040ED558
:102B7000D5F88810226C21F040611143C5F8881007
:102B8000216C814203D1E86840F48010E86020881D
:102B900000040FD5D5F88800616C20F04050084340
:102BA000C5F88800606CB0F1805F03D1E86840F43C
:102BB0008030E8602068C0030FD5D5F88800A16C8C
:102BC00020F040400843C5F88800A06CB0F1804F69
:102BD00003D1E86840F48030E860206840030FD5F6
:102BE000D5F89C00E16C20F440100843C5F89C0027
:102BF000E06CB0F5001F03D1E86840F48010E86095
:102C00003846BDE8F88F0000001002400070004018
:102C10002DE9F0470D4604004FF0000725D0DFF8FE
:102C2000AC91D9F8000000F00F00A8420CD2D9F8FE
:102C3000001021F00F012943C9F80010D9F8000055
:102C400000F00F00A84210D12168614EC80741F280
:102C5000883A58D06068DFF87C81032808D00228C1
:102C600030682CD0400500282BDB0120BDE8F08720
:102C700030688001F9D5F06800F00302F068C0F315
:102C80000310401C032A18D0534AB2FBF0F0F2683C
:102C9000C2F306225043F268C2F34162521C520052
:102CA000B0FBF2F0404517D9B06810F0F00F0CD02F
:102CB000880711D5A06840B10EE0484AE5E78003D7
:102CC000D1E700F0B7F8404506D9B06820F0F00031
:102CD00040F08000B0608027B068616820F0030099
:102CE0000843B060FFF70AFD804605E0FFF706FDE8
:102CF000A0EB080151453BD8B068616800F00C00BA
:102D0000B0EB810FF2D12068810714D5400703D5BD
:102D1000B06840F4E060B0602078000705D5B06886
:102D200020F4605040F4E060B060B068A16820F02A
:102D3000F000084304E0802F03D1B06820F0F000D9
:102D4000B060D9F80010484601F00F01A94217D928
:102D50000168C84621F00F0129430160FFF7CEFC4E
:102D60000746D14606E0FFF7C9FCC11B494501D91A
:102D700003207BE7D8F8000000F00F00A842F2D152
:102D80002078400705D5B068E16820F4E06008438A
:102D9000B0602078000706D5B068216920F4605043
:102DA00040EAC100B06000F045F8B1680C4AC1F3D8
:102DB0000311515C01F01F01C8400A4908600A482C
:102DC0000068BDE8F047FFF7B7BC000000200240F4
:102DD0000010024000B4C4040024F40040787D01D7
:102DE0000871000810000020040000200548064972
:102DF00000688968054AC1F30221515C01F01F0196
:102E0000C8407047100000200010024018710008F0
:102E10000548064900688968054AC1F3C221515C2A
:102E200001F01F01C8407047100000200010024050
:102E300018710008184A10B59068C0F3810117484E
:102E400001290BD09168164CC1F38101022906D0EB
:102E50009168C1F38101032903D0002010BD2046F1
:102E600010BDD16801F00303D168C1F30311491CFF
:102E7000032B02D0B0FBF1F001E0B4FBF1F0D1681C
:102E8000C1F306214843D168C1F34161491C49009F
:102E9000B0FBF1F010BD0000001002400024F4006F
:102EA00040787D012DE9F843040078D02078F54D75
:102EB000C00745D0A868E96800F00C0001F00301E4
:102EC0000C2802D0082817D001E0032914D060682C
:102ED000B0F5803F17D0B0F5A02F286817D020F4A8
:102EE00080302860286820F4802028606068D8B18D
:102EF000FFF704FC064613E02868800320D56068CD
:102F00000028D2D01CE0286840F48030EDE740F47F
:102F100080202860F7E7FFF7F1FB801B64286ED85C
:102F200028688003F7D50BE0FFF7E8FB064604E0CE
:102F3000FFF7E4FB801B6428F1D828688003F7D4EE
:102F4000207880074BD5A868E96800F00C0001F0F4
:102F500003010C2802D004280DD001E002290AD078
:102F6000E068002828682BD040F480702860FFF7C4
:102F7000C5FB064619E02868400502D5E068002830
:102F800093D06868217C20F0FE4040EA01606860D0
:102F9000BD480068FFF7D0FB002800D11FE06DE1BD
:102FA000FFF7ACFB801B0228B9D828684005F7D58D
:102FB0006868217C20F0FE4040EA016068600EE015
:102FC00020F480702860FFF799FB064604E0FFF7C5
:102FD00095FB801B0228A2D828684005F7D42078EA
:102FE000000728D560690028D5F8940012D040F079
:102FF0000100C5F89400FFF781FB064605E08FE06D
:10300000FFF77CFB801B022889D8D5F89400800745
:10301000F6D510E020F00100C5F89400FFF76EFB34
:10302000064604E0FFF76AFB801B022878D8D5F833
:1030300094008007F6D42078400761D5A86D00275A
:10304000C00008D4A86D40F08050A865A86D012785
:1030500000F0805000908D480168C90511D40168C6
:10306000804641F480710160FFF748FB064604E0AA
:10307000FFF744FB801B022852D8D8F80000C00597
:10308000F6D5A068012815D00528D5F8900016D0EF
:1030900020F00100C5F89000D5F8900020F0040061
:1030A000C5F89000A06841F28838B8B1FFF726FB58
:1030B00006460EE0D5F8900040F00100F0E740F041
:1030C0000400C5F89000F5E7FFF718FB811B4145A8
:1030D00026D8D5F890008007F6D50CE0FFF70EFB58
:1030E000064604E0FFF70AFB811B414518D8D5F8D6
:1030F00090008007F6D41FB1A86D20F08050A8651D
:103100002078800628D5A0690028D5F8980012D02C
:1031100040F00100C5F89800FFF7F0FA064605E018
:1031200072E0FFF7EBFA801B02286DD8D5F8980003
:103130008007F6D510E020F00100C5F89800FFF7F1
:10314000DDFA064604E0FFF7D9FA801B02285BD8B7
:10315000D5F898008007F6D4E069E8B3A968C1F310
:10316000810103295BD00228286820F08070286044
:1031700003D0FFF7C3FA044649E0FFF7BFFA06465B
:1031800004E0FFF7BBFA801B02283DD828688001C5
:10319000F7D4F4E908016FF00F0202EB01110843C4
:1031A000218A5204490802EB4151A26841EA0221F6
:1031B0000843217D4FF07E42490802EB41610843FC
:1031C000217B40EAC160E968314A11400843E86068
:1031D000286840F0807000E052E02860E86840F025
:1031E0008070E860FFF78AFA044604E0FFF786FA89
:1031F000001B022808D828688001F7D540E0FFF7B7
:103200007DFA001B022802D90320BDE8F883286854
:103210008001F4D4E8681F490840E86030E00128E4
:10322000F3D0E868226A00F00301914226D1616A76
:1032300000F0F0020901103991421FD1A26A00F496
:10324000FE41B1EB022F19D194F82C2000F0784107
:10325000B1EBC26F12D1218E00F4C00249084905BA
:10326000A1F50011914209D194F8341000F0C0602A
:1032700049084906A1F10071814201D00120C4E74B
:103280000020C2E70010024004000020007000404F
:103290000C809F01FCFFEEFE70B5040009D0606A4F
:1032A000002540B125616561A56294F85D0040B1DB
:1032B0000CE0012070BD6068B0F5827FF4D0E5615C
:1032C000F2E784F85C50204600F05CF8022084F8B5
:1032D0005D002068016821F040010160E0684FF462
:1032E000E062904201D9002101E04FF48051B0F535
:1032F000706F02D0904200D0A562A088228900F4AD
:10330000827002F404421043227C02F00202104355
:10331000227D02F001021043228B02F4007210435E
:10332000227F02F03802104394F8202002F080023D
:103330001043228D02F40052104322681060A069ED
:10334000042202EA104094F8242001F4805102F093
:103350001002104394F8342002F008021043A289AE
:1033600002F4706210430843216848602068C16914
:1033700021F40061C1612566012084F85D00002010
:1033800070BD0000F0B587B0054614216846FCF713
:103390008BFF334A2868002632490224904227D105
:1033A000086E40F480500866086E00F48050059066
:1033B000C86C40F00200C864C86C052500F002002B
:1033C000059018208DE85100274FCDE90365694627
:1033D0003846FFF7B1F82020CDE900040120CDE9FF
:1033E0000206694604953846FFF7A6F807B0F0BD17
:1033F0001E4A9042FAD1886D40F400408865886D7D
:1034000000F400400590C86C40F00400C864C86C2B
:10341000694600F0040005904FF4A0508DE851007B
:103420000620CDE903601248FFF786F8124C1148D8
:1034300020600F2060601020C4E902068020206117
:10344000400060618000C4E90606800020622046DA
:10345000FFF700F808B1FDF785FB6C65A562C5E7CD
:10346000003001400010024000040048003C0040D1
:103470000008004808000240D00600202DE9F84F5F
:103480001D4617468A460446FFF738F9064694F863
:103490005D00012826D1BAF1000F6FD0002F6DD04A
:1034A00094F85C0001281DD04FF0010984F85C906D
:1034B000032084F85D004FF00008C4F86080C4F871
:1034C00038A0A787E787C4F84080A4F84480A4F810
:1034D0004680C4F85080C4F84C80A068B0F5004F16
:1034E00003D00CE00220BDE8F88F2068016821F0CD
:1034F000400101602068016841F48041016020685A
:103500000168490603D4016841F040010160E068A8
:10351000B0F5E06F606822D908B1012F1BD1A06B14
:1035200021680088C86006E020688168890709D59D
:10353000A16B0988C160A06B801CA063E08F401E56
:10354000E08708E0FFF7DAF8801BA84202D3681C86
:1035500001D045E0A5B3E08F0028E5D135E008B102
:10356000012F2FD1E08F0128A06B03D9216800889B
:10357000C86010E021680078087314E041E0E0873B
:1035800020E020688168890713D5E18F0129A16BAC
:1035900007D90988C160A06B801CA063E08F801EE2
:1035A000EDE709780173A06B401CA063E08F401E1B
:1035B000E5E7FFF7A3F8801BA84202D3681C01D0FF
:1035C0000EE06DB1E08F0028DBD13246294620465F
:1035D00001F0A6FF08B120202066A06830B109E004
:1035E00084F85D9084F85C8003207CE72068C168E3
:1035F0008068009084F85D9084F85C80206E0028DC
:10360000F3D001206FE710B5401EB0F1807F01D3E9
:10361000012010BD4FF0E02460610F21601703F01E
:1036200035F80020A06107202061002010BD704700
:103630007047704730B590F83C20012A45D00122F0
:1036400080F83C20CA688B6822F440721A434B68A9
:1036500022F480621A430B6822F400621A430B6959
:1036600022F480521A434B6922F400521A430B6B26
:1036700022F480421A430B8B22F4702242EA034266
:10368000CB6922F080521A43114D03680024AB42EB
:1036900005D0104DAB4202D00F4DAB4210D10D8D75
:1036A00022F4700242EA05520D6A22F080722A4327
:1036B0004D6A22F000722A43C96A22F000520A437E
:1036C0005A6480F83C40002030BD022030BD00002C
:1036D000002C014000340140005001407047704709
:1036E00070470000F0B590F83C20012A43D0012536
:1036F00080F83C50022280F83D2003685A689C689C
:103700001E4E1F4FDFF87CC0B34203D0BB4201D036
:10371000634504D122F4700E4A6842EA0E02DFF8D3
:1037200068E002EA0E02D1F800E04EEA020EC3F8A9
:1037300004E00268B24212D0B2F1804F0FD0134BB6
:103740009A420CD0124B9A4209D0124B9A4206D0A0
:10375000BA4204D0104B9A4201D0624504D1896824
:1037600024F080031943916080F83D50002180F8D7
:103770003C100846F0BD0220F0BD0000002C0140C6
:1037800000340140005001408FFFFFFD0004004065
:1037900000080040000C00400040014010B5044605
:1037A00049B104290AD008290BD094F84700012810
:1037B0000AD0012010BD94F84400F8E794F84500C1
:1037C000F5E794F84600F2E70220A9B3042937D0C0
:1037D000082938D084F847000422206802F07FF8D6
:1037E0002068416C41F400414164184920688842D6
:1037F00014D0B0F1804F11D0154988420ED0154930
:1038000088420BD01449884208D01449884205D018
:103810001349884202D01349884207D18168124A6D
:103820001140062906D0B1F5803F03D0016841F070
:1038300001010160002010BDFFE784F84400CBE7E0
:1038400084F84500C8E784F84600C5E7002C01402D
:103850000004004000080040000C0040003401401B
:10386000004001400050014007000100704710B5C2
:10387000040003D094F83D0010B107E0012010BD12
:10388000002084F83C00204600F022F8022084F852
:103890003D00211D206801F0A3FF012084F84800AD
:1038A00084F83E0084F83F0084F8400084F841002A
:1038B00084F8420084F8430084F8440084F845000A
:1038C00084F8460084F8470084F83D00002010BDCD
:1038D00008B50068144A154990420ED1886D40F031
:1038E00010008865886D002200F0100000901146DD
:1038F0003620FEF769FF362010E00D4A904211D1C4
:10390000886D40F020008865886D002200F020005E
:10391000009011463720FEF757FF3720BDE80840DA
:10392000FEF744BF08BD0000001000400010024038
:103930000014004090F83D10012901D0012070478B
:10394000022180F83D100168CA6842F00102CA6095
:1039500000681349884214D0B0F1804F11D011494A
:1039600088420ED0104988420BD01049884208D0B6
:103970000F49884205D00F49884202D00E4988423B
:1039800007D181680D4A1140062906D0B1F5803F64
:1039900003D0016841F00101016000207047000080
:1039A000002C01400004004000080040000C0040D2
:1039B0000034014000400140005001400700010078
:1039C00070472DE9F04104460068C66805694FF06C
:1039D0000007A90713D5B10711D5F91E0161012010
:1039E0002077206880698007204602D0FFF7E8FF33
:1039F00004E000F02DF9204600F036FA277768073A
:103A000016D5700714D521686FF0040008610220F4
:103A100020772068806910F4407F204602D0FFF7AD
:103A2000CFFF04E000F014F9204600F01DFA2777DC
:103A3000280715D5300713D521686FF008000861F5
:103A4000042020772068C0698007204602D0FFF755
:103A5000B7FF04E000F0FCF8204600F005FA2777F5
:103A6000E80616D5F00614D521686FF0100008613D
:103A7000082020772068C06910F4407F204602D0DB
:103A8000FFF79EFF04E000F0E3F8204600F0ECF9B9
:103A90002777E80708D0F00706D021686FF001000B
:103AA0000861204600F0F6FA280601D4A80408D5DB
:103AB000300606D521686FF4025008612046FFF7F2
:103AC000B7FDE80508D5300606D521686FF480708B
:103AD00008612046FFF7ABFD680608D5700606D5DD
:103AE00021686FF040000861204600F0E9FAA8065E
:103AF00008D5B00606D521686FF020000861204681
:103B0000FFF797FDE80208D5F00206D521686FF4AB
:103B1000801008612046FFF7E2FDA80208D5B00238
:103B200006D521686FF4001008612046FFF7D6FD26
:103B3000680208D5700206D521686FF4800008611C
:103B40002046FFF7CDFD28020AD5300208D52168AE
:103B50006FF4000008612046BDE8F041FFF786BE23
:103B6000BDE8F0812DE9F04186B004461421684695
:103B7000FCF79AFB324A21680024324802254FF0B4
:103B80009048914243D1C16C41F00401C164C16CC1
:103B900001F004010591C16C41F00201C164C16CE6
:103BA00001F002010591C16C41F00101C164C06CDA
:103BB000694600F00100059008200090CDE901540D
:103BC0002148CDE90345FEF7B7FC4FF4C040009013
:103BD000CDE9015406261D4FCDE903466946384616
:103BE000FEF7AAFCA8030090CDE901540420CDE91A
:103BF000034069463846FEF79FFC4FF4E0600090B2
:103C0000CDE90154CDE903466946404613E0B1F1E0
:103C1000804F12D1C16C41F00101C164C06C0294AB
:103C200000F0010005902020CDE900050120CDE93C
:103C3000035069464046FEF77FFC06B0BDE8F081C0
:103C4000002C014000100240000800480004004819
:103C5000704770B5044690F83C0000260D460128D8
:103C60000BD0012084F83C000C2A4AD007DC82B13A
:103C7000042A20D0082A06D131E0022070BD102A83
:103C800053D0142A63D00126002084F83C0030462B
:103C900070BD206801F030FE2068816941F00801A4
:103CA00081612068816921F0040181612068816956
:103CB0002A69114311E0206801F074FE20688169CF
:103CC00041F4006181612068816921F48061816132
:103CD000206881692A6941EA02218161D4E720686C
:103CE00001F0B0FE2068C16941F00801C16120689F
:103CF000C16921F00401C1612068C1692A691143C9
:103D000011E0206801F0EEFE2068C16941F4006115
:103D1000C1612068C16921F48061C1612068C16905
:103D20002A6941EA0221C161AEE7206801F02AFF59
:103D30002068016D41F0080101652068016D21F0E6
:103D4000040101652068016D2A69114311E02068B2
:103D500001F054FF2068016D41F4006101652068A5
:103D6000016D21F4806101652068016D2A6941EAD5
:103D70000221016588E710B5040003D094F83D00E6
:103D800010B107E0012010BD002084F83C0020465F
:103D900000F022F8022084F83D00211D206801F087
:103DA0001FFD012084F8480084F83E0084F83F009D
:103DB00084F8400084F8410084F8420084F843000D
:103DC00084F8440084F8450084F8460084F84700ED
:103DD00084F83D00002010BD38B5054600681E4A35
:103DE0001E49904211D1086E40F400600866086ECA
:103DF000002200F40060009011461920FEF7E4FC58
:103E0000BDE838401920FEF7D1BCB0F1804F21D178
:103E1000886D40F001008865886D124C00F001004B
:103E200000900F482060382060601020A0600020C3
:103E30008021C4E90301490061618900C4E90610D9
:103E4000C80020622046FEF705FB08B1FCF78AFE99
:103E50006C62A56238BD0000002C014000100240D9
:103E60001C00024060080020FCF77CBD70B50446D1
:103E700069B104290ED008290FD00C2910D01029BF
:103E800011D094F84300012810D0012070BD94F89F
:103E90003E00F8E794F83F00F5E794F84000F2E7B9
:103EA00094F84100EFE794F84200ECE70220E9B310
:103EB00004294AD008294BD00C294CD010294DD0C8
:103EC00084F843000122206801F0FCFC25492068A9
:103ED000254A264B264D88420BD0904209D0984265
:103EE00007D0244EB04204D0234EB04201D0A842A5
:103EF00003D1466C46F4004646642068884211D0DF
:103F0000B0F1804F0ED01D4988420BD01C49884229
:103F100008D01C49884205D0904203D0984201D075
:103F2000A84209D18168184A114000E00AE0062938
:103F300006D0B1F5803F03D0016841F00101016076
:103F4000002070BD84F83E00BCE784F83F00B9E76C
:103F500084F84000B6E784F84100B3E784F84200F3
:103F6000B0E70000002C0140003401400040014057
:103F7000005001400044014000480140000400405E
:103F800000080040000C00400700010070B50D0063
:103F900004464FF0000607D0042D0CD0082D50D059
:103FA0000C2D55D001264AE02068C16821F400712B
:103FB000C160606A05E02068C16821F48061C16069
:103FC000A06AFEF7ADF900222946206801F07AFCCC
:103FD0002A4A41F2111120688B0090420ED0284AE3
:103FE00090420BD0274A904208D0274A904205D0F1
:103FF000264A904202D0264A904209D1026A0A42D9
:1040000006D1026A1A4203D1426C22F40042426491
:104010002068026A0A4206D1016A194203D1016886
:1040200021F0010101600120CDB1042D1AD0082D2D
:104030001BD00C2D1CD0102D1DD084F84300304611
:1040400070BD2068C16821F40061C160E06AB8E712
:104050002068C16821F48051C160206BB1E784F809
:104060003E00ECE784F83F00E9E784F84000E6E72B
:1040700084F84100E3E784F84200E0E7002C0140C7
:10408000003401400040014000440140004801402C
:10409000005001400068084988420BD1074A0020BF
:1040A00052F8201011B1491E42F82010401CC0B235
:1040B0001428F5D37047000000140040E0000020F1
:1040C000704790F88410012918D0012180F88410DD
:1040D0002421C0F8881001680A680B6823F00103E6
:1040E0000B6022F000510022426603681960202113
:1040F000C0F8881080F8842010467047022070476E
:104100007047704770B5044690F8840001281DD0B0
:10411000012084F884002420C4F888002068056801
:10412000026822F0010202602068826822F0606268
:104130000A438260204601F09FFD20680560202030
:10414000C4F88800002084F8840070BD022070BD8F
:1041500070B5044690F8840001281DD0012084F831
:1041600084002420C4F8880020680568026822F0D2
:10417000010202602068826822F060420A43826085
:10418000204601F079FD206805602020C4F88800F1
:10419000002084F8840070BD022070BD7047704715
:1041A000704700002DE9F04103680446D86919689A
:1041B0009A6840F60F0528424FF000054FF00206BE
:1041C0000AD187067ED501F0200702F0805C57EA0D
:1041D0000C0777D0616F42E1B64FDFF8DCC21740C1
:1041E00001EA0C0C57EA0C0C6CD05FEAC07C0CD0D6
:1041F0005FEAC15C09D54FF0010CC3F820C0D4F8C8
:10420000903043F00103C4F89030830709D5D307F9
:1042100007D023681E62D4F8903043F00403C4F83A
:10422000903043070AD5D30708D0266804233362A9
:10423000D4F8903043F00203C4F8903003070CD553
:1042400001F020033B4308D0266808233362D4F8EA
:10425000903043F00803C4F8903003050BD54B01B0
:1042600009D526684FF400633362D4F8903043F0E8
:104270002003C4F89030D4F89030002B3DD0800655
:1042800009D501F0200002F08051084303D0616F8E
:1042900009B120468847D4F890002168896849060A
:1042A00002D410F0280F2AD0204601F0C9FD206862
:1042B000806840061ED52068083050E8001F21F0B5
:1042C000400100E021E040E80012002AF3D1D4F8D8
:1042D000800078B179498163D4F88000FEF720F836
:1042E00000280AD0D4F88000816B00E02046BDE8A9
:1042F000F04108472046FFF753FFBDE8F081204614
:10430000FFF74EFFC4F89050F7E7D4F86CC02027B1
:10431000BCF1010F7ED15FEAC06C7BD55FEAC16C56
:1043200078D51020186220688068400651D5D4F8EE
:1043300080100A6850680004000C3ED0B4F85C306D
:1043400083423AD9A4F85E000868006880062CD43D
:10435000206850E8001F21F4807140E80012002A14
:10436000F6D12068083050E8001F21F0010140E834
:104370000012002AF5D12068083050E8001F21F013
:10438000400140E80012002AF5D1C4F88C70E566BF
:10439000206850E8001F21F0100140E80012002AB8
:1043A000F6D1D4F88000FDF786FF2667B4F85C00EC
:1043B000B4F85E10401A81B207E0B4F85C10814294
:1043C0009BD11068800698D526672046FFF798FE97
:1043D00093E7B4F85C00B4F85E10401A81B2B4F808
:1043E0005E00002889D0002987D0206850E8002F7F
:1043F00022F4907240E80023002BF6D12D4BDB43D2
:104400002068083050E8002F1A4040E8002CBCF12A
:10441000000F00E00EE0F3D1C4F88C70E56665672C
:10442000206850E8002F22F0100240E80023002B03
:10443000F6D1C9E7C60209D5560207D54FF4801058
:1044400018622046BDE8F041FFF7A9BE03060AD571
:1044500001F0800302F40002134304D0A16F00298D
:104460007FF444AF49E7420611D54A060FD52046EE
:10447000016851E8002F22F0400241E80023002BA0
:10448000F6D1C0F88870856700F098F835E7020229
:1044900006D54A0004D52046BDE8F041FFF77EBEB0
:1044A000C00195D5002993DA2046BDE8F041FFF719
:1044B00028BE00000100001020010004315E000849
:1044C00010B5040003D0D4F8880010B107E0012033
:1044D00010BD002084F88400204600F027F8242036
:1044E000C4F888002068016821F001010160A06A19
:1044F00010B1204601F0E2FB204601F0CBFC012880
:10450000E6D02068416821F49041416020688168CC
:1045100021F02A0181602068016841F001010160F9
:104520002046BDE8104001F02DBC000010B59CB045
:104530000446142115A8FBF7B7FE54216846FBF783
:10454000B3FE1B49206888422FD10420002400902C
:1045500003946846FEF7D0F908B1FCF703FB154851
:10456000816D41F480218165816D01F480211A9172
:10457000C16C41F00201C164C06C15A900F00200D9
:104580001A904FF4406015900220CDE916040720E0
:10459000CDE918400848FDF7CFFF0022114627203B
:1045A000FEF712F92720FEF701F91CB010BD00003C
:1045B0000048004000100240000400487047FEE739
:1045C000BEEE001A9FED062A20EE011AF0EE411A07
:1045D00000EEC21A40EE821AF0EE610A7047000047
:1045E000D0B35D3F20EE212A01EE602A20EE011AB1
:1045F00001EEA01AB0EE420AF0EE410A70472DE932
:10460000F04107461C4616460D462A2000F09AF94E
:104610002837B8B200F0B6F92836B0B200F0B2F9D7
:104620002B2000F08FF93535A8B200F0ABF9353406
:10463000A0B200F0A7F9BDE8F0412C2000F082B94B
:1046400010B514460B460246FFF7D9FF2046BDE8D9
:10465000104000F097B92DE9F04780461F46581EDC
:1046600083B21646501E82B20D464046DDF82090B9
:10467000FFF7C5FF0AE0444604E0484600F082F92F
:10468000641CA4B2B442F8D36D1CADB2BD42F2D3E7
:10469000BDE8F0872DE9FF4F83B00746DDF8449071
:1046A00000904FEA590A4FF000085FEA4A7000D0C4
:1046B000012000EBDA0000FB09F001900498203A99
:1046C0004844401E83B207EB0A0002F0FF0B401E75
:1046D00082B238460499FFF792FF002550E0B9F105
:1046E0000C0F28D0B9F1100F2BD0B9F1180F2CD026
:1046F000B9F1200F47D1274901EB8B100024465D0B
:10470000129800284FF0010000FA04F000EA0600B9
:1047100021D020B13846069A0499FFF791FF7F1CFB
:104720000098BFB2391A514524D10498009F401C0B
:1047300080B2049022E018490BEB4B0001EB8000A3
:10474000DCE7164901EB0B10D8E715490BEB4B00E2
:1047500001EB0010D2E708B1069800E0109800F0D5
:1047600011F908F10100C0B2B0FBFAF280460AFB71
:10477000128058B1641CE4B2082CC1D36D1CADB2D8
:1047800001988542ABD307B0BDE8F08F4FF0000829
:10479000F4E70000888D000854710008C87500080F
:1047A000B87B00082DE9FF4F85B08B46DDE91391FA
:1047B000054600904FEAD9000026484302900320A6
:1047C0003746039040F2475107FB01F02E49019014
:1047D000095C0798C05D81424BD10BF1860083B222
:1047E00007EB870005EB00104F3082B209FB075042
:1047F00080B25946FFF703FF002036E022480199B6
:104800000024084400EB080A15989AF801100028C3
:104810004FF0010000FA04F001EA000111D021B1CB
:1048200059462846089AFFF70BFF6D1C0098ADB259
:10483000291A494512D10BF101001FFA80FB009D96
:1048400010E009B1089800E0129800F09BF8761C7F
:10485000B6B2B6FBF9F109FB116090B1641CA4B2C9
:10486000082CD1D308F1010080B202998046884219
:10487000C4D37F1C0398BFB28742A3D309B0BDE85D
:10488000F08F0026EEE70000EEA900082DE9FF4FAB
:1048900083B00027DDE911A81D4681464FEA58067E
:1048A0003C46BB462CE0281B401EC1B20A2002F049
:1048B00029FB0599B1FBF0F00A21B0FBF1F201FBF5
:1048C000120027B9691E8C4201DA58B10127303035
:1048D000C2B2CDE900A804FB069080B2CDF808B0C2
:1048E000109B08E0CDE900A804FB0690109B80B265
:1048F000CDF808B020220499FFF7CCFE641CE4B286
:10490000AC42D0D307B0BDE8F08F2DE9FE4F9946F9
:10491000DDE90D6714468A460546DDF830800CE077
:10492000CDF800804B4651462846CDE90167FFF798
:10493000B1FE05EB560085B2641C2278002AEFD147
:10494000BDE8FE8F10B5044600224FF40061044814
:10495000FDF7CFFE2046BDE81040012100F0CEBE9D
:104960000008004810B504460122D1020448FDF7B2
:10497000C0FE2046BDE81040012100F0BFBE00008F
:104980000008004810B504460122D1020548FDF791
:10499000B0FE200AFFF7E6FFE0B2BDE81040FFF7E7
:1049A000E1BF00000008004800EB8100006E00F04D
:1049B000F840704700EB8100006E00F0F84070474F
:1049C0008068C0F3C00070478068C0F3C0007047C3
:1049D0008068C0F3000070478068C0F30000704733
:1049E0008068C0F3800070478068C0F38000704723
:1049F000C06810F4406F01D000207047012070475C
:104A0000042303EAD15310B518444369C1F3045198
:104A100007248C40A3438A401343436110BD042301
:104A200003EAD15310B518444369C1F30451072474
:104A30008C40A3438A401343436110BD00EB8100C7
:104A4000016E21F0004111430166704700EB8100C7
:104A5000016E21F0004111430166704730B593B0FB
:104A600000240F9410943C2168461194FBF71CFC21
:104A700034484FF0A041042501604FF44031C0E9B3
:104A8000011485610121C460C0E9044104774477C1
:104A9000016280F8244080F83840C46380F84040C8
:104AA000FDF720F908B1FCF75DF80FA925480F9430
:104AB000FCF7DCFC08B1FCF755F82348009009200E
:104AC000CDE901047F200594CDE9030584200A90F7
:104AD0008DF8244080208DF825400B9008958DF8A6
:104AE00026408DF8304069461648FCF743F908B176
:104AF000FCF738F81548009040F20F100190694615
:104B00001048FCF737F908B1FCF72CF81048009072
:104B100040F21520019069460A48FCF72BF908B1CC
:104B2000FCF720F80B48009040F21B3001906946DA
:104B30000448FCF71FF9002801D0FCF713F813B064
:104B400030BD000030050020020030040400600881
:104B50000800900C1000C01030B589B020216846C4
:104B6000FBF7A2FB19481849002401604FF44031BB
:104B7000C0E90114C46004250461C0E90545047757
:104B800044770121016280F82440C462046380F804
:104B90003840C46380F84040FDF7A4F808B1FBF743
:104BA000E1FF0B4800900620CDE901047F20059429
:104BB000CDE9030569460548FCF700FD002801D052
:104BC000FBF7D0FF09B030BD000100509C0500206C
:104BD0002000F014114808B5816C41F00401816493
:104BE000816C01F004010091816C41F0010181644C
:104BF000806C002200F00100009011460B20FDF7B0
:104C0000E3FD0B20FDF7D2FD002211460C20FDF73D
:104C1000DBFDBDE808400C20FDF7C8BD00100240D8
:104C20002DE9F04786B014216846FBF73DFB434869
:104C3000C16C41F00401C164C16C01F00401059133
:104C4000C16C41F02001C164C16C01F020010591EB
:104C5000C16C41F00101C164C16C01F00101059119
:104C6000C16C41F00201C164C16C01F00201059107
:104C7000C16C41F00801C164C06C314F00F0080004
:104C80004FF468440590002221463846FDF731FD77
:104C90004FF400464FF09048002231464046FDF761
:104CA00028FDDFF8A090002204214846FDF721FDF1
:104CB000DFF894A0002240215046FDF71AFD01259F
:104CC000CDE9004500240294694638460394FDF777
:104CD00033FCC0208DE8310069464046FDF72CFCCE
:104CE000CDE90054694650460295FDF725FC4FF486
:104CF0007070CDE90004694638460294FDF71CFC4B
:104D00000096CDE90154694640460394FDF714FC32
:104D100004200090CDE90154694648460394FDF70C
:104D20000BFC40200090CDE90154694650460394A5
:104D3000FDF702FC06B0BDE8F0870000001002405D
:104D400000080048000C004800040048124810B554
:104D5000104901604FF48271416000214FF470628C
:104D6000C0E9021202220261012242615202826102
:104D70001822C0E9072107224162C0E90A12016333
:104D80004163FEF789FA002803D0BDE81040FBF725
:104D9000E9BE10BD0030014008060020124810B5E1
:104DA000104901604FF48271416000214FF4E062CC
:104DB000C0E902120222C0E904211202826110221B
:104DC000C0E9072107224162C0E90A1201630821F4
:104DD0004163FEF761FA002803D0BDE81040FBF7FD
:104DE000C1BE10BD003C00406C06002010B598B05C
:104DF0000024149415941C2168461694FBF754FA69
:104E0000342107A8FBF750FA32483149C0E90014B1
:104E10002021816041F29A01C0E903148021C0E998
:104E20000541FEF7A8FF08B1FBF79CFE7020CDE915
:104E3000140414A927481694FEF754FC08B1FBF794
:104E400091FE6020CDE9000402940394049405943B
:104E5000002269461F480694FEF7FBFE08B1FBF7E7
:104E600081FE042269461B48FEF7F3FE08B1FBF7FA
:104E700079FE082269461748FEF7EBFE08B1FBF7FA
:104E800071FE40F64D0001900C2269461148FEF774
:104E9000E0FE08B1FBF766FE0794089409944FF40E
:104EA00000500A94CDE90B400D9400030E94CDE917
:104EB0000F401194129407A906481394FEF7BAFB09
:104EC00008B1FBF74FFE0348FEF74CFE18B010BDCB
:104ED000002C01403007002010B58AB00024079450
:104EE00008941C2168460994FBF7DEF915484FF039
:104EF0008041C0E90014D321C0E90241802104614E
:104F00008161FEF738FF08B1FBF72CFE079407A973
:104F10000C480994FEF7E6FB08B1FBF723FE60207E
:104F2000CDE9000402940022694606480494FEF785
:104F300090FE08B1FBF716FE0248FEF713FE0AB01A
:104F400010BD00007C0700203EB500240F480094EF
:104F500001940D490294C0E9001444F26721C0E9AC
:104F6000024180218161FEF782FC08B1FBF7FAFD66
:104F700020200090694602940448FEF7B3FB002805
:104F800001D0FBF7EFFD3EBD00100040C807002038
:104F90003EB500240F48009401940D49029401602D
:104FA000A921C0E9011440F2E731C160802181618B
:104FB000FEF75DFC08B1FBF7D5FD00946946054896
:104FC0000294FEF78FFB002801D0FBF7CBFD3EBD1E
:104FD0000014004014080020184810B5164901605C
:104FE0004FF4E1314160002181600C22C160C0E9D1
:104FF00004128161C161016241628162FFF760FA5E
:1050000008B1FBF7AFFD00210C48FFF7A1F808B18C
:10501000FBF7A8FD00210948FFF774F808B1FBF77A
:10502000A1FD0648FFF74DF8002803D0BDE8104069
:10503000FBF798BD10BD000000480040C0080020EC
:10504000FEE7FEE790ED001A61EE001A90ED021AFD
:1050500000EE201A80ED021A90ED012A22EE012ABC
:1050600031EE822A80ED032AD0ED041AB4EEE12A53
:10507000F1EE10FA05DD00EE601AC0ED031A80EDC6
:10508000021A90ED032AB1EE611AB4EEC12AF1EED4
:1050900010FA07D280ED031A90ED021A00EE601AA2
:1050A00080ED021A704720EE212A01EE202A60EEE0
:1050B000A10A41EE400AB0EE420A70477047000074
:1050C00010B5074CA068D22807D001F085FE052056
:1050D000E060D220A060052010BD01F06FFEF6E771
:1050E0009800002010B588B0202213496846FBF7CD
:1050F000C2F8124CA068AE2808D0FBF796FB0A2035
:10510000E060AE20A06008B00A2010BD00200C496D
:105110002061A082097803206A4612F83030994253
:1051200004D102EBC00040688047E8E7401E40B26F
:105130000028F2DAE3E70000207100088000002078
:10514000040A00202DE9F04F3D482DED028B93B06D
:1051500000684B280CD001F0EBF83948052141607C
:105160004B21016013B00520BDEC028BBDE8F08F30
:10517000FBF738FAFBF75EFA684601F0ADF8DDE9B7
:1051800001510F46009CFBF75FFA684601F0A4F856
:10519000DDE9008ADDF80890FBF760FA684601F067
:1051A0009BF89DE807000492CDE90510FBF75CFD34
:1051B000B0EE608A684601F08FF8DDE90121CDE9A3
:1051C0000812B0EE480A6846009E01F085F89DE896
:1051D0000D000C930392079001F01CF80DA801F04C
:1051E0007BF80DAA92E80B00CDE900109B4601F078
:1051F00017F80DA801F070F80DAB93E8070010AB9D
:10520000CDF83CB083E80700DDE90001039B0B9378
:10521000CDE90D1007AB93E80700CDE90910CDE902
:105220000762049906980691CDE903908DE8800500
:105230002B4622460349002000F09FF88DE700002E
:10524000A800002014BA0008074B00B518682428ED
:1052500007D001F08DF80A205860242018600A2039
:1052600000BD01F025F8F6E7B00000202DE9F0417F
:1052700004461548DDF818801D46007816460F468E
:10528000532801D001F07CF80F48032C18D2EFF31B
:105290001181202282F3118804EB440200EBC2004A
:1052A00018302CB107604660856000220261C26040
:1052B000C0F81480C8B280F311880020BDE8F081E6
:1052C0004FF0FF30FAE700002C0A00202DE9F041F2
:1052D00007460B4815460E460078532801D001F0CA
:1052E0004FF8EFF31184202080F311882A463146CD
:1052F000384600F007F8E1B281F31188BDE8F0818B
:105300002C0A002070B50E46144900EB400001EB5A
:10531000C0051446E86A183520B101280FD00228CC
:1053200005D113E0284601F05DF8A04201D2002427
:1053300011E022463146284601F074F90BE0284678
:1053400001F050F8A042F4D20446F2E73146284674
:1053500001F03BF90446204670BD00002C0A0020F5
:1053600070B505460C460846FAF7A9FF02462146E5
:105370002846BDE87040FFF7A9BF0FB408B504A9DF
:1053800000916A46039900F003F801B05DF814FB40
:105390002DE9F041ADF5087D804602A882904FF4DA
:1053A00000700026CDE98306CDE9856815460C46D8
:1053B00014F8011B002970D0252909D082A801F01A
:1053C000E5F885980028F3DA0DF5087DBDE8F08151
:1053D00000200122217823291ED02B2919D02D2924
:1053E00002D0302908D102E040F0010001E040F095
:1053F0000200641C002AEDD100222178A1F13003C3
:105400000A2B0CD202EB820201EB4202303A641CFE
:10541000F3E740F00400ECE740F00800E9E7002380
:10542000CFB22E2F0BD114F8011FA1F130070A2F94
:1054300005D203EB830301EB4303303BF3E76C2915
:105440000DD068290BD070294CD00BDC252914D045
:1054500058292BD063290CD0642911D112E014F8FB
:10546000011FECE773292CD0752917D0782907D1B3
:105470001CE02868011D2960017882A801F086F8E7
:10548000641C9EE729680F1D2F600968CDE9002084
:105490000A2282A800F0B1FFF2E72DE029680F1D73
:1054A0002F600968CDE900200A2206E029680F1D57
:1054B0002F600968CDE90020102282A801F000F8D1
:1054C000DEE72868011D2960076807B912A717F8E9
:1054D000011B0029D4D082A801F058F88598002833
:1054E000F5DACDE72868011D296001680820CDE9BB
:1054F000000603461022E0E7859800287FF764AF96
:10550000849820B1024602A94046FFF7DFFEDDE99C
:1055100084100844859057E7284E554C4C290000CC
:10552000F8B515460E460B460092044600224FF48D
:10553000C05100F019F888B9334600228021204676
:10554000009500F07FF848B9334600224FF4C0615F
:105550002046009500F008F8002804D0206E40F0A6
:10556000200020660320F8BD2DE9FC5F4FF0000B02
:10557000984616460F4604460C9D8DF804B0FDF77C
:10558000BDF8411BA8EB0105FDF7B8F8824620687D
:1055900000F10C092A480068C0EBC00000EB800055
:1055A000000D684343E0B7F5C06F06D12EB999F8F6
:1055B00000008DF804009DF80400B8F1FF3F37D0DB
:1055C000FDF79CF8A0EB0A00A84203D215B10098A1
:1055D00058B32BE02068416821F0E0014160606829
:1055E000B0F5827F0BD1A068B0F5004F02D0B0F5C6
:1055F000806F04D12068016821F040010160A06A39
:10560000B0F5005F09D12068016821F40051016004
:105610002068016841F400510160012084F85D00B8
:1056200084F85CB00320BDE8FC9F0025401E00907C
:10563000206880683840B042B5D10020F3E7000010
:10564000100000202DE9F8431E4691468846044686
:10565000089DFDF753F8401B351AFDF74FF8074634
:1056600025480068C0F3CB30684338E0701C37D061
:10567000FDF744F8C01BA84203D215B1009860B3EF
:105680002CE02068416821F0E00141606068B0F5DD
:10569000827F0BD1A068B0F5004F02D0B0F5806FCB
:1056A00004D12068016821F040010160A06AB0F5D2
:1056B000005F09D12068016821F400510160206871
:1056C000016841F400510160012084F85D00002070
:1056D00084F85C000320BDE8F8830025401E00909C
:1056E0002068816838EA010004D000204845BDD117
:1056F0000020F0E70120F9E71000002013B50A466A
:105700004FF0FF3369460248FDF7B8FE1CBD0000AC
:105710006C06002010B504463620FFF713F944B19B
:10572000012C08D0022C08D0A020BDE81040FFF7C3
:1057300019B90020F9E7C020F7E77020F5E77047B6
:10574000FCF7E2BF10B594B038216846FAF7ACFD1B
:1057500014210EA8FAF7A8FD0020FDF767F8012034
:1057600000900004032405210190CDE908410220A6
:105770004421CDE90A1007900C900D906846FDF782
:1057800091FB08B172B6FEE70F20CDE90E040020B0
:1057900010901190129004210EA8FDF739FA0028FC
:1057A00001D072B6FEE714B010BD000002480168D7
:1057B00041F470010160704788ED00E00148FEF798
:1057C00000B90000300700200148FEF7FAB80000D9
:1057D000C80700200148FEF7F4B8000014080020B4
:1057E0002DE9F04F02682E4D2E4E2F4FDFF8BCC032
:1057F0002F4B304C4FF0804BA8420BD0584509D06E
:10580000B04207D0B84205D0604503D0984201D0DD
:10581000A04204D122F070084A6842EA0802DFF888
:105820009880DFF89890DFF898A0A84211D05845EA
:105830000FD0B0420DD0B8420BD0604509D098428D
:1058400007D0404505D0484503D0504501D0A0427F
:1058500003D122F44076CA6832434E6922F08002B6
:10586000324302608A68C2620A688262A84209D032
:10587000984207D0404505D0484503D0504501D057
:10588000A04201D109690163012141610169C90790
:1058900003D0016921F001010161BDE8F08F000032
:1058A000002C01400004004000080040000C0040B3
:1058B00000340140005001400040014000440140DC
:1058C0000048014010B501F01F010123046A8B401C
:1058D0009C430462036A8A401343036210BD10B5FF
:1058E00001F00F010423046A8B409C430462036AA5
:1058F0008A401343036210BD2DE9F047056A026A2E
:1059000022F001020262426883691F4C25F0020501
:1059100023400C6823F003031C438B681C4E2B436D
:105920001A4D1C4FDFF870C0DFF87090DFF870A0E0
:10593000A84209D0B04207D0B84205D0604503D094
:10594000484501D0504506D123F00808CB6843EA0A
:10595000080323F00403A84209D0B04207D0B8429C
:1059600005D0604503D0484501D0504505D14D696B
:1059700022F4407215438A692A434260846149686F
:1059800041630362BDE8F0878FFFFEFF002C0140FA
:105990000034014000400140004401400048014003
:1059A00000500140F0B5056A026A22F0100202625E
:1059B000426883691C4C1E4E23400C6823F44073DC
:1059C00043EA042425F020038D681A4F43EA0513A7
:1059D000164DA84203D0B04201D0B84207D1D1F849
:1059E0000CC023F0800343EA0C1323F04003A842C9
:1059F0000CD0B0420AD0104DA84207D00F4DA8429B
:105A000004D00F4DA84201D0B84207D14D6922F40D
:105A1000406242EA85028D6942EA85024260846101
:105A2000496881630362F0BDFF8FFFFE002C0140D7
:105A3000003401400050014000400140004401405A
:105A400000480140F0B5056A026A22F480720262E1
:105A50004268C3691C4C1E4E23400C6823F00303AC
:105A60001C4325F400738D681A4F43EA0523174D34
:105A7000A84203D0B04201D0B84207D1D1F80CC03F
:105A800023F4006343EA0C2323F48063A8420CD080
:105A9000B0420AD0104DA84207D0104DA84204D001
:105AA0000F4DA84201D0B84207D14D6922F44052AF
:105AB00042EA05128D6942EA05124260C4614968F2
:105AC000C1630362F0BD00008FFFFEFF002C0140A8
:105AD00000340140005001400040014000440140BA
