:020000040800F2
:10000000E0110020F1010008A3470008AF3D0008FF
:10001000A14700080D070008E9570008000000008C
:100020000000000000000000000000005B4D000820
:100030009507000800000000434800085D4D0008D7
:100040000B0200080B0200080B0200080B0200085C
:100050000B0200080B0200080B0200080B0200084C
:100060000B0200080B0200080B020008250700081D
:100070000B0200080B0200080B0200080B0200082C
:100080000B0200080B020008310300080B020008F5
:100090000B0200080B0200080B0200080B0200080C
:1000A0000B020008D94D00080B0200080B020008E3
:1000B0000B0200080B0200080B0200080B020008EC
:1000C0000B0200080B0200080B0200080B020008DC
:1000D0000B0200080B0200080B020008DD570008A5
:1000E0000B0200080B0200080B0200080B020008BC
:1000F0000B0200080B0200080B0200080B020008AC
:100100000B0200080B0200080B0200080B0200089B
:100110000B0200080B020008E54D0008F14D000835
:100120000B0200080B0200080B0200080B0200087B
:100130000B0200080B0200080B0200080B0200086B
:100140000B0200080B0200080B0200080B0200085B
:100150000B0200080B0200080B0200080B0200084B
:100160000B0200080B0200080B0200080B0200083B
:100170000B0200080B0200080B0200080B0200082B
:100180000B0200080B0200080B0200080B0200081B
:100190000B020008000000000B0200080B02000820
:1001A0000B0200080B0200080B0200080B020008FB
:1001B0000B0200080B0200080B0200080B020008EB
:1001C0000B0200080B0200080B0200080B020008DB
:1001D0000B0200080B020008DFF810D000F096F8C0
:1001E0000048004709660008AFF30080E0110020D6
:1001F0000648804706480047FEE7FEE7FEE7FEE7C1
:10020000FEE7FEE7FEE7FEE7FEE7FEE7C94D000872
:10021000D90100082DE9F05F0546002092469B4673
:1002200088460646814640241BE02846414647460C
:10023000224600F05AF853465A46C01A914110D34C
:1002400011461846224600F041F82D1A67EB0108C6
:100250004F4622460120002100F038F817EB000934
:100260004E41201EA4F10104DFDC484631462A46F7
:100270004346BDE8F09F40EA01039B0703D009E035
:1002800008C9121F08C0042AFAD203E011F8013B82
:1002900000F8013B521EF9D27047D2B201E000F8DB
:1002A000012B491EFBD270470022F6E710B513461A
:1002B0000A4604461946FFF7F0FF204610BD421CCF
:1002C00010F8011B0029FBD1801A7047202A04DB9B
:1002D000203A00FA02F1002070479140C2F1200359
:1002E00020FA03F3194390407047202A04DB203A98
:1002F00021FA02F00021704721FA02F3D040C2F146
:10030000200291400843194670470000064C074DF3
:1003100006E0E06840F0010394E8070098471034D5
:10032000AC42F6D3FFF75CFFE0B1000800B2000872
:1003300010B5044801F050F9BDE81040024801F042
:100340004BB90000000500206C05002070B5044684
:10035000006881688268C1F3400112F0010F28D063
:1003600039BB816801F00D01012914D18168124A5D
:100370001140891C816021680320086001F086FE1D
:10038000054612E001F082FE401B02280DD92068CC
:100390008068C00709D0E06D40F01000E065206E75
:1003A00040F001002066012070BD20688068C00711
:1003B000E8D1002070BD0000C0FFFF7FF8B5044603
:1003C000002000902068816811F0010F4AD18168F7
:1003D000254A114237D18168D5432940491C8160A3
:1003E0002068B0F1A04F02D02049884201D12048B6
:1003F00000E02048806800F0E07000020DD51E4843
:100400001E490068B0FBF1F0401C00EB400080008A
:1004100000E0401E00900028FBD101F037FE0646A8
:100420001BE0816811F0010F03D181682940491C4C
:10043000816001F02BFE801B02280ED92068006825
:10044000C043C00709D0E06D40F01000E065206EA9
:1004500040F0010020660120F8BD20680168C94312
:10046000C907DED10020F8BD3F0000800001005028
:10047000000300500007005010000020400D030052
:100480000148008800F018B8A0000020014840880A
:1004900000F012B8A00000200148808800F00CB8DD
:1004A000A0000020042801D300207047014931F842
:1004B00010007047A000002000EE100A9FED061A01
:1004C000DFED040AB8EE400A30EE410A20EE200AC1
:1004D000704700003233D3390000004510B57F214A
:1004E000054800F0C5F9002804D1BDE810400248D5
:1004F00000F0DCBC10BD00000005002070B5050058
:1005000003D02868B0F1A04F01D0002070BD0921B0
:10051000284600F0B3FC0B4C208040F20F11284617
:1005200000F0ACFC608040F21521284600F0A6FCEB
:10053000A08040F21B31284600F0A0FCE0800120A2
:1005400070BD0000A000002001460B48012907D023
:10055000022907D0032907D0042908D000207047BA
:10056000402106E0802104E04FF4807101E04FF467
:10057000007101F081BD00000008004810B500F0D6
:1005800019F8010A4900020C41EA82010143C8B28C
:1005900010BD40214FF0904001F06EBD80214FF022
:1005A000904001F069BD00000121014801F064BDE7
:1005B0000004004808B5FFF7ECFF8DF80000FFF7D6
:1005C000EDFF8DF80100FFF7EFFF0146BDF80000D9
:1005D00040EA014008BD06F07BB8FEB518260025AC
:1005E0004FF6FF748DE8700092B203F047FDFEBD38
:1005F00002480068C06A80B270470000000700200F
:10060000002801DA00207047884201DD0846704763
:1006100080B27047044B10B51C6860631868816332
:100620001868C26310BD0000000700202DE9F041EA
:10063000FFF7DEFF044601EE904AB6EE002A21469F
:10064000F8EE611A61EE821A9FED182AC0EE022AB6
:10065000B0EE610A02EEA10AC0EE822ABDEEC00A27
:1006600010EE106AB0EE610AC1EE020A02EEA10AB3
:10067000BDEEC00A10EE105AB0EE610A00EEA10AFB
:10068000BDEEC00A10EE100AFFF7BAFF074621467A
:100690002846FFF7B5FF054621463046FFF7B0FF75
:1006A0003A462946BDE8F041FFF7B4BF0000C84212
:1006B00010B50021144803F05BF8002823D1002175
:1006C000114802F031FD00281DD104210E4803F02D
:1006D0004FF8002817D104210B4802F025FD00280F
:1006E00011D10821084803F043F800280BD1082154
:1006F000054802F019FD002805D1BDE810400C2185
:10070000014803F035B810BD00070020FEE70000E7
:1007100070EEC10A9FED021A60EE810A7047000078
:10072000D0B35D3F014801F0B4BA0000A00600203C
:100730000D4902688A4201D20C4901E00B4920317F
:10074000D2B21423083AB2FBF3F2436C02F01F0258
:1007500023F003031944816404498031C1640121F9
:100760009140016570470000080402400008024003
:100770000179074A02EB81024265054A4432491E6B
:10078000826501F01F0201219140C16570470000A0
:10079000FC080240704772B6FEE7000010B52A4C14
:1007A0002DED028BB0EE618A84EC030AFFF7B0FFF7
:1007B00084ED030AC4ED040A84ED178AB0EE480AFA
:1007C00005F0AAFB84ED180AB0EE480A05F0FCFA21
:1007D00084ED190AF0EE401A94ED181AD4ED040ACB
:1007E00094ED030A04F022F884ED050AC4ED060A2C
:1007F00094ED071A04F1340031EE400A94ED081A22
:1008000071EE602AD4ED1A0A03F0CCFFD4ED1A0A77
:10081000B0EE620A04F1480003F0C4FF94ED100A40
:1008200084ED090AD4ED150AC4ED0A0AD4ED191AAB
:1008300094ED181A03F0D0FA84ED0B0AC4ED0C0AFB
:10084000BDEC028B10BD000014000020024890EDAA
:10085000050AD0ED060A7047140000200348D0EDC9
:100860000C0A90ED0B0A03F0A3BA0000140000205C
:10087000F8B500260446009690F858000D46012869
:100880000BD0012084F858002046FFF75FFD0100DF
:10089000E06D04D040F010002AE00220F8BD20F402
:1008A000885040F00200E06520688268134B1A40CF
:1008B00005F080431A4342F000428260104A2068EB
:1008C0000EE0009B5B1C0093934209D3E06D20F087
:1008D000020040F01000E06584F858600120F8BD87
:1008E0008368DB0FEDD1E06D20F0020040F00100E5
:1008F000E06584F858600846F8BD0000C0FFFF3F7F
:1009000002DE0400704700002DE9F84F4FF00009A7
:100910000446CDF800900D4694F85820DFF8EC839B
:1009200061694F464846012A0AD00126F84A84F8F0
:10093000586041B1296A012905D0A36EEBB129E0C5
:100940000220BDE8F88F6868092838D1A96A4FF4F9
:10095000785041B12B6801F07C0100EA5340084314
:10096000E96A084302E0296800EA51402368D96C2B
:1009700011400143D964606621E0C4E91971A96A94
:10098000286A31B101F07C01401E0843E96A08433E
:1009900000E0401E29682B79C1F3846103F01F0336
:1009A00099400143A06E401EA066636E43EA0103B6
:1009B000636604D12168C86C10401843C86420687D
:1009C00003F0FAFB58B995F8250098B12068C16882
:1009D00095F8262021F4401141EA4251C160206877
:1009E00003F0F2FB8246206803F0E6FB5AEA0000BF
:1009F0000DD0FCE095F8260095F82410400540EA5B
:100A000001512068C26822F440121143E6E7A86A47
:100A100030B1E86A20B195F8250001285ED003E0E6
:100A200095F82500012804D02068C16821F00071E4
:100A300003E02068C16841F00071C16095F83000A2
:100A4000012852D02068016921F002010161AA68E1
:100A500029682068B2F1004F38D003F0D0FB20683D
:100A6000416921F00041416120686969C268C2F3AF
:100A7000C102520091402A69042A45D000EB82004D
:100A80002B68026EDFF88CC203F0F84302EA0C0216
:100A90000B431A4342F00041016620682A69A969A4
:100AA00000EB8200026E22F080720A430266297F08
:100AB00022682869012924D05FF0000102EB800040
:100AC000026E22F000720A43026690E0002203F0F8
:100AD00096FB2068416941F00041C4E7E06D40F0B9
:100AE0002000E0654FF00109A8E7D5E90D010843B2
:100AF00021680A6922F4FF7242F002021043086181
:100B0000A5E74FF00071D9E7002103F04BFB40034C
:100B100020684FF0000172D003F044FB90FAA0F07F
:100B2000B0FA80F1286842036ED090FAA0F0B0FAD3
:100B300080F0814204D100221146206803F076FB48
:100B40000121206803F02EFB400320684FF00101D3
:100B50005DD003F027FB90FAA0F0B0FA80F128688E
:100B6000420359D090FAA0F0B0FA80F0814204D14B
:100B700000220121206803F059FB0221206803F0C4
:100B800011FB400320684FF0020148D003F00AFB3C
:100B900090FAA0F0B0FA80F12868420344D090FAAD
:100BA000A0F0B0FA80F0814204D100220221206836
:100BB00003F03CFB0321206803F0F4FA40032068B3
:100BC0004FF0030133D003F0EDFA90FAA0F0B0FA41
:100BD00080F1286842032FD090FAA0F0B0FA80F09C
:100BE000814204D100220321206803F01FFB20680A
:100BF000816811F0010F22D0B5E000E004E003F0BD
:100C0000D1FAC0F384618DE7C0F3846091E703F00B
:100C1000C9FAC0F38461A2E7C0F38460A6E703F0D9
:100C2000C1FAC0F38461B7E7C0F38460BBE703F0A7
:100C3000B9FAC0F38461CCE7C0F38460D0E72A7BC3
:100C4000296850F8B03FC1F3120C23EA0C0302F0FC
:100C5000180C314A22FA0CF20A4013430360E96887
:100C600041457DD1286841031BD090FAA0F1B1FA2B
:100C700081F1491C01F01F0109294FEA403131D8A7
:100C8000002911D090FAA0F1B1FA81F101F101012E
:100C900001F01F0106FA01F609D100BFC0F384611B
:100CA00009E0C0F38461E4E7C0F38461EEE790FA01
:100CB000A0F1B1FA81F101F1010101F01F0146EA51
:100CC000816102D1C0F3846003E090FAA0F0B0FA31
:100CD00080F000F1010000F01F0000EB400041EA4D
:100CE00000513AE000290ED090FAA0F1B1FA81F15A
:100CF00001F1010101F01F0106FA01F60ED100BF5A
:100D0000C0F384610EE0C0F38461F1E700007F402E
:100D10000040100400F0FF03FFFF070090FAA0F16D
:100D2000B1FA81F101F1010101F01F0146EA81618F
:100D300002D1C0F3846003E090FAA0F0B0FA80F032
:100D400000F1010000F01F003A4A00EB400002EB06
:100D5000005041EA000141F00071AA68206800E0FB
:100D600001E003F04CFA34482B6803425ED022685D
:100D70004FF0A04C3148324E324D624501D0AA426C
:100D800001D1014600E031468968DFF8BC8001F0FE
:100D9000E071434503D0DFF8B480434520D15FEADA
:100DA00001281DD4624505D0294B9A423ED1AA4262
:100DB00000D0304641F40001826822F0E0720A431C
:100DC0008260244824490068B0FBF1F0801C00EBED
:100DD0004000800000E0401E00900028FBD125E08C
:100DE000DFF8788043450FD15FEAC1180CD4AA42DE
:100DF00002D11B4B9A4219D0624502D0AA4200D0C0
:100E0000304641F080710CE0DFF8588043450DD149
:100E10004B020BD4AA4209D0624500D0304641F4BF
:100E20008001826822F0E0720A43826084F8587080
:100E3000484686E5000020FE0000088000030050C0
:100E40000007005000010050000021C31000C090B6
:100E50000006005010000020400D0300000052C7A3
:100E600000050050000084CB10B5FFF747FB0028B9
:100E700003D0BDE8104004F083BD10BD0068A1F5AB
:100E800080710F390ED0B1F5837F08D0B1F5037FA3
:100E900002D0D0F880007047D0F88C007047D0F8AE
:100EA00088007047D0F88400704770472DE9F04102
:100EB000044600684FF0A0454C4FA84201D0B8420C
:100EC00001D14B4900E04B49896801F01F0603F04E
:100ED00073F908BB2168C868C96C00F0004011F4C0
:100EE000C07F00D190B194F85800012814D001209F
:100EF00084F858002046FFF761FA01004FF0000225
:100F00000CD084F858200846BDE8F081E06D40F030
:100F10002000E0650120F7E70220F5E7E06DC0055D
:100F200004D5206E20F00800206600E02266E06D07
:100F300042F20103984340F48050E06520682E4B54
:100F4000DFF8B8C0B84201D1AE4604E0984201D102
:100F5000E64600E08646864500D02EB9D4F85CE02F
:100F60002EF4801EC4F85CE04FF0600EC0F800E084
:100F700084F858202068C268920203D5426842F47F
:100F800080624260A06908282068426807D022F089
:100F9000400242602068426842F0200206E022F0EF
:100FA000200242602068426842F0400242602068AD
:100FB000B84204D0984201D1654600E0054685421A
:100FC00009D046B1062E06D0072E04D0E06D40F4BD
:100FD0008010E06597E7C26812F0007F93D18268C5
:100FE000074B1A4042F0080282608CE70001005073
:100FF000000300500007005000050050000400509E
:10100000C0FFFF7F704770472DE9F04F044690F80E
:1010100058009BB00F464FF0000B012812D0012062
:1010200084F8580000261796189620684FF0A048BC
:10103000DFF81C91DFF81CA1474D404506D128463A
:10104000009508E002201BB0BDE8F08F48450AD1AA
:101050005046CDF800A003F0B7F80090206803F0E8
:10106000B3F840B109E0E06D40F02000E06584F89D
:1010700058600120E7E7009850B1E06D40F0200093
:10108000E0654FF0010B00BF84F858605846DAE77E
:1010900020684146884201D0A84201D12F4800E093
:1010A0002F48D7F800C02F4B40F61F72BCF1000F3D
:1010B0002DD0D0F808C094F838802CF4604C4CEA5D
:1010C000483CD7F804804CEA080CC0F808C0D4F8B3
:1010D00000C08C4501D0AC4504D18968AB6801F0F3
:1010E000010109E0D9F80810DAF8085001F001010F
:1010F00005F001059B68294303F001031943C3D19F
:10110000BB68396819438368934319431DE08768B6
:1011100027F46047876027688F4201D0AF4204D12F
:101120008968AB6801F0010109E0D9F80810DAF824
:10113000085001F0010105F001059B68294303F007
:1011400001031943A0D18168914381609CE70000AD
:101150000004005000050050000100500003005042
:1011600000070050000600502DE9F84F0027044604
:10117000009790F85800DFF81C840D46B946012806
:1011800011D0012684F85860206803F019F860B186
:10119000E06D40F02000E0655FF0010784F85890B2
:1011A0003846BDE8F88F0220FBE7D5E900210C2383
:1011B000206803EA91131844036B01F01F014FF0FC
:1011C0001F0C0CFA01FCC2F3846223EA0C038A4070
:1011D00013430363206802F0F3FF8246206802F0A5
:1011E000E7FF5AEA00003CD1AA6829682068B2F1FA
:1011F000004F37D002F0F4FF2068416921F0004130
:10120000416120686969C268C2F3C102520091401D
:101210002A69042A31D000EB82002B68026EDFF8C5
:1012200078C303F0F84302EA0C020B431A4342F07E
:101230000041016622682869A96902EB8000026EFC
:1012400022F080720A430266297F226828690129F8
:1012500010D0002102EB8000026E22F000720A43DF
:1012600002667DE0002202F0BBFF2068416941F088
:101270000041C5E74FF00071ECE7002102F08CFF60
:10128000400320684FF0000172D002F085FF90FA11
:10129000A0F0B0FA80F1286842036ED090FAA0F076
:1012A000B0FA80F0814204D100221146206802F099
:1012B000B5FF0121206802F06FFF400320684FF066
:1012C00001015DD002F068FF90FAA0F0B0FA80F161
:1012D0002868420359D090FAA0F0B0FA80F0814219
:1012E00004D100220121206802F098FF0221206829
:1012F00002F052FF400320684FF0020148D002F094
:101300004BFF90FAA0F0B0FA80F12868420344D075
:1013100090FAA0F0B0FA80F0814204D100220221BC
:10132000206802F07BFF0321206802F035FF4003B4
:1013300020684FF0030133D002F02EFF90FAA0F0A6
:10134000B0FA80F1286842032FD090FAA0F0B0FAEA
:1013500080F0814204D100220321206802F05EFF68
:101360002068816811F0010F22D0ACE000E004E0B9
:1013700002F012FFC0F384618DE7C0F3846091E74F
:1013800002F00AFFC0F38461A2E7C0F38460A6E71D
:1013900002F002FFC0F38461B7E7C0F38460BBE7EB
:1013A00002F0FAFEC0F38461CCE7C0F38460D0E7BA
:1013B0002A7B296850F8B03FC1F3120C23EA0C03D2
:1013C00002F0180C754A22FA0CF20A40134303602B
:1013D000E968414577D1286841031CD090FAA0F113
:1013E000B1FA81F1491C01F01F0109294FEA40318E
:1013F00032D8002912D000BF90FAA0F1B1FA81F1E1
:1014000001F1010101F01F0106FA01F609D100BF47
:10141000C0F3846109E0C0F38461E3E7C0F3846151
:10142000EEE790FAA0F1B1FA81F101F1010101F0CA
:101430001F0146EA816102D1C0F3846003E090FAA3
:10144000A0F0B0FA80F000F1010000F01F0000EB06
:10145000400041EA005132E000290ED090FAA0F19C
:10146000B1FA81F101F1010101F01F0106FA01F663
:1014700006D100BFC0F3846106E0C0F38461F1E7E8
:1014800090FAA0F1B1FA81F101F1010101F01F011F
:1014900046EA816102D1C0F3846003E090FAA0F0D3
:1014A000B0FA80F000F1010000F01F003C4A00EBB0
:1014B000400002EB005041EA000141F00071AA68CF
:1014C000206802F08DFE37482B6803423FF466AE79
:1014D00021684FF0A04C3448344E354D614501D061
:1014E000A94201D1024600E032469268DFF8C4808A
:1014F00002F0E072434503D0DFF8BC80434521D1C0
:101500005FEA02281ED4614506D02C4B99427FF435
:1015100045AEA94200D0304642F40001826822F074
:10152000E0720A438260264826490068B0FBF1F069
:10153000401C00EB4000800000E0401E00900028AE
:10154000FBD12BE6DFF8808043450FD15FEAC2185C
:101550000CD4A94202D11D4B9942F2D0614502D070
:10156000A94200D0304642F080710CE0DFF8608084
:101570004345E6D15302E4D4A942E2D0614500D00C
:10158000304642F48001826822F0E0720A438260B1
:1015900004E6000000007F4000F0FF03FFFF0700AB
:1015A000000020FE000008800003005000070050EB
:1015B00000010050000021C31000C0900006005040
:1015C00010000020400D0300000052C7000500502D
:1015D000000084CB704770472DE9F84F044600683F
:1015E000066845684FF0A048DFF89092404501D06A
:1015F000484501D1A24800E0A248806800F01F07DA
:10160000B0070ED5A8070CD5E06DC00603D4E06D79
:1016100040F40060E0652046FFF774F9216802207D
:101620000860DFF864B2DFF864A2700701D56807CC
:1016300003D430073FD528073DD5E06DC00603D45D
:10164000E06D40F40070E065206802F0C1FD60B319
:101650002068484501D1424604E0584501D1524630
:1016600000E00246824208D03FB1052F05D0092F85
:1016700003D0484503D1414606E0C16805E058451E
:1016800001D1514600E00146C96889040DD40168C2
:1016900009070AD502F094FD58B3E06D40F0100040
:1016A000E065206E40F0010020662046FFF792FFC3
:1016B00021680C200860B00601D5A80603D4700686
:1016C0005FD568065DD5E06DC00603D4E06D40F4DB
:1016D0000050E0652068C16C11F4C07F1AD0002171
:1016E000009102F075FD02462068484514D143463A
:1016F00017E02068416821F00C014160E06D20F4A2
:101700008070E065E06DC004CFD4E06D40F0010072
:10171000E065CAE70121E3E7584501D1534600E0FF
:101720000346834208D03FB1062F05D0072F03D0D0
:10173000484503D1414606E0C16805E0584501D15E
:10174000514600E00146C968009BA3B18B0102D558
:101750008AB18A040FD4026852060CD589020AD4D1
:1017600002F026FDF0B3E06D40F01000E065206E61
:1017700040F0010020662046FFF776FB21686020DC
:10178000086030060BD5280609D5E06D40F480309E
:10179000E065204600F094F9216880200860F0059B
:1017A0000CD5E8050AD5E06D40F40030E065204630
:1017B000FFF728FC21684FF480700860B0050CD555
:1017C000A8050AD5E06D40F48020E0652046FFF7CB
:1017D0001AFC21684FF400700860F00631D5E80665
:1017E0002FD500E009E0E06BE8B12068EFB3404599
:1017F00001D0484512D1224811E02068416821F00B
:1018000060014160E06D20F48050E065E06DC0054E
:10181000B1D4E06D40F00100E065ACE719488068A4
:1018200000F4604050B1E06D40F48060E065206EEF
:1018300040F0020020662046FFF7CDFE2168102010
:101840000860700517D5680515D5E06D40F4804037
:10185000E065206E40F00800206621684FF480604B
:1018600008602046BDE8F84F00E001E0FFF71DBB2F
:10187000C068C007D6E7BDE8F88F0000000100503F
:101880000003005000070050000500500004005005
:10189000F8B54FF0000504002E46009502D0E06D2B
:1018A00010B107E00120F8BD204600F00BF92666D4
:1018B00084F8586020688168C1F3407119B181686B
:1018C000734A1140816020688168C1F3007189B951
:1018D0008168704A114041F0805181606E486F49C3
:1018E0000068B0FBF1F04000801C00E0401E00905A
:1018F0000028FBD120688168C1F3007141B9E16D16
:1019000041F01001E165216E41F0010121660125E0
:1019100002F056FCE16DC90600D430B1E06D40F034
:101920001000E06501252846F8BDE06D20F48070C8
:1019300040F00200E0652068816811F0010F27D1B6
:101940004FF0A043564A984201D0904204D1996882
:10195000966801F001010AE052498968524E01F08F
:101960000101B66806F001063143504EB66806F034
:10197000010631430CD1984201D0904201D14C482C
:1019800000E04C486168826822F47C120A4382605D
:10199000E168E06B627F0843A16841EA4231084395
:1019A00094F8241040EA0140012904D1218D424AD3
:1019B00002EB41410843E16A29B101F47871226BDD
:1019C000014342EA01002268D1683C4B19400143BF
:1019D000D16020680169626B21F0406111430161AF
:1019E000206802F0E5FB70BB207F94F83810226875
:1019F000800340EA4100D16844F202039943014365
:101A0000D16020690028206801690AD041F4803142
:101A10000161206850F8C01F22696FF30D01114366
:101A200007E021F480310161206850F8C01F6FF396
:101A30000D01016094F8400001280CD02068016974
:101A400021F001010161606901282068016B21F02A
:101A50000F0111D013E0D4E911010843D4E91312A6
:101A60001143084321680A6940F2FC739A4310430A
:101A700040F001000861E6E7226A521E114301634B
:101A8000E06D20F0020040F00100E0654BE700004F
:101A9000C0FFFF5FC0FFFF7F10000020400D03006C
:101AA00000010050000400500005005000060050E6
:101AB00000030050000700500000FEFF0740F0FF49
:101AC00070470000F0B59BB00446142115A8FEF73E
:101AD000EBFB54216846FEF7E7FB4FF4004120681A
:101AE00000268A032E4D03272E4CB0F1A04F10D0B4
:101AF0002D4B984252D168461192009100F0C4FBE0
:101B000008B1FEF748FE2868401C2860012825D04F
:101B10002CE068461192009100F0B6FB08B1FEF788
:101B20003AFE2868401C2860012807D1E06C40F488
:101B30000050E064E06C00F400501A90E06C40F05B
:101B40000100E064E06C179600F001001A900F208D
:101B5000CDE9150715A94FF0904015E0E06C40F471
:101B60000050E064E06C00F400501A90E06C40F02B
:101B70000400E064E06C179600F004001A9037202F
:101B8000CDE9150715A9094800F052F900221146C0
:101B9000122000F0E1FA122000F0D0FA1BB0F0BDE4
:101BA0000000002000100240000100500008004822
:101BB00010B590F8253000210122022B03D004211A
:101BC000C163012122E003681C6824F00E041C603C
:101BD000836C1C6824F480741C6003681C6824F007
:101BE00001041C6090F84430046C03F01F0302FAF7
:101BF00003F36360D0E913345C60436D33B11C6858
:101C000024F480741C60D0E916345C6080F82520D0
:101C1000002280F82420084610BD70B590F82520D9
:101C2000002401212346022A07D00422C26380F83F
:101C3000251080F82430012429E00268156825F079
:101C40000E0515600268156825F001051560826CA7
:101C5000156825F48075156090F84420056C02F035
:101C60001F0201FA02F26A60D0E913255560426D45
:101C700032B1156825F480751560D0E916255560D8
:101C800080F8251080F82430816B01B18847204608
:101C900070BDF0B4016C0C6801680D6890F84420C8
:101CA00002F01F06042202FA06F3234211D06B074A
:101CB0000FD50B689B0603D40B6823F004030B605D
:101CC00090F8441001F01F018A40016C4A60016BDA
:101CD0001DE0022303FA06F727424FF0000C4FF0F5
:101CE000010218D0AF0716D50C68A40605D40C68FD
:101CF00024F00A040C6080F8252090F8441001F0CC
:101D00001F018B40016C4B6080F824C0C16A002920
:101D10001AD0F0BC08470823B340234214D02B0745
:101D200012D50B6823F00E030B6090F84410036C7F
:101D300001F01F0102FA01F15960C26380F8252009
:101D400080F824C0416BE2E7F0BC704770B5040036
:101D50000CD02B4A21681420914209D2294A0A4406
:101D6000B2FBF0F08000606427480AE0012070BDFB
:101D7000234A52420A44B2FBF0F0800060642048DB
:101D800008382064022084F825000A6847F6F070BD
:101D90008243D4E902031843D4E904352B431843A2
:101DA000A3691843E3691843236A18431043086082
:101DB0002046FEF7BDFCA0680025B0F5804F00D19D
:101DC0006560A16C20790860D4E913014160606806
:101DD000401E032808D82046FEF7CAFC606D056047
:101DE000D4E91601416002E06565A565E565E56336
:101DF000012084F8250084F82450002070BD0000E4
:101E000008040240F8FFFDBF0000024070B5044620
:101E100000F03CF90546601C02D0044840680444C8
:101E200000F034F9401BA042FAD370BD040000203A
:101E30002DE9F04FDFF82092002301260324A9F1B9
:101E4000040B85B00F2709F1040AABF1040EFAE088
:101E500006FA03F52A407CD091F804C00CF0030C7C
:101E6000BCF1010F02D0BCF1020F26D1D0F808C09E
:101E7000CDF800C04FEA430C04FA0CF8CDF810C0BE
:101E8000DDF800C02CEA080CCDF800C0D1F80C80B9
:101E9000DDF810C008FA0CF8DDF800C048EA0C08BC
:101EA000C0F80880D0F804C02CEA050C0D79C5F301
:101EB00000159D4045EA0C0545600D79ED43AD07E1
:101EC0000ED0C5684FEA430804FA08FC25EA0C0561
:101ED000D1F808C00CFA08FC4CEA050CC0F80CC09C
:101EE0000D7905F00305022D16D1DD0800EB850CF8
:101EF000CDF808C0DCF820805D074FEAD56C07FA02
:101F00000CF528EA05080D6905FA0CF5DDF808C09E
:101F100045EA0805CCF8205005684FEA430CCDF897
:101F200008C004FA0CFC25EA0C0591F804C00CF07A
:101F30000308DDF808C008FA0CF848EA0508C0F8FC
:101F400000804D6815F4403F7CD0444DD5F860C00A
:101F500000E077E04CF0010CC5F860C02D6E23F076
:101F6000030C05F0010500953D4D65440295AD68F3
:101F70004FEA837C4FEA1C7807FA08FC25EA0C0537
:101F8000B0F1904F06D0DFF8DCC0604505D14FF0CE
:101F9000010C20E04FF0000C1DE0DFF8CCC06045E4
:101FA00002D14FF0020C16E0DFF8C0C0604502D14C
:101FB0004FF0030C0FE0DFF8B8C0604502D14FF0DE
:101FC000040C08E0DFF8ACC0604502D14FF0050C0E
:101FD00001E04FF0060C0CFA08FC4CEA050C029DDF
:101FE000C5F808C0D9F80050CC46D1F80480954314
:101FF0005FEAC82800D51543CCF80050DAF8005045
:10200000D446D1F8048095435FEA882800D515436B
:10201000CCF80050DBF80050DC46D1F80480954342
:102020005FEA883800D51543CCF80050DEF8005040
:10203000F446D1F8048095435FEAC83800D51543CB
:10204000CCF800505B1C0A6832FA03F57FF400AF4D
:1020500005B0BDE8F08F0000080401400010024008
:10206000000001400004004800080048000C00483F
:1020700000100048001400480069084000D001200A
:1020800070470AB18161704781627047014880687A
:102090007047000004000020024881684268114433
:1020A000816070470400002010B50024032000F078
:1020B00073F80F2000F008F808B1012401E000F0E7
:1020C00025F8204610BD000070B50E4E05460024D0
:1020D000706898B14FF47A71B1FBF0F00A49096861
:1020E000B1FBF0F000F055FF40B9102D06D20022F0
:1020F0002946501E00F030F8356000E001242046EB
:1021000070BD000004000020100000200A4882B0CA
:10211000016E41F001010166016E01F001010091C3
:10212000816D41F080518165806D00F0805000909C
:1021300002B000F0A1B8000000100240002809DB46
:1021400000F01F02012191404009800000F1E020D1
:10215000C0F8001170470000F0B40E4B1B680C462D
:10216000C3F30223C3F10705042D00D90425191D6B
:10217000072901D2002300E0DB1E012606FA05F143
:10218000491E214099409E40761E16403143F0BCC6
:1021900003F00ABE0CED00E0064900F007020868F3
:1021A0004FF6FF03184040EA0220034A104308603C
:1021B000704700000CED00E00000FA052B492C4BA5
:1021C0000A6832214A432B4940B1B0F5007F0868C4
:1021D00029D020F4C06040F480602CE00868C0F38F
:1021E0004120022804D051F8800F20F4807022E0B2
:1021F000D1F8800020F48070C1F88000086820F4D5
:10220000C06040F400700860B2FBF3F0401C00E0D6
:10221000401E4A69520501D50028F9D14869400598
:102220000AD503207047C0F34120022806D051F898
:10223000800F40F48070086000207047D1F8800063
:1022400040F48070C1F88000086820F4C06040F459
:1022500000700860B2FBF3F0401C00E0401E4A69C9
:102260005205DBD50028F9D1D8E700001000002086
:1022700040420F00007000400248816841F48041F4
:1022800081607047007000402DE9F8430446006803
:102290000026BB4D00035ED5A86D0027C00008D402
:1022A000A86D40F08050A865A86D012700F080500F
:1022B0000090DFF8D092D9F8001041F48071C9F88D
:1022C0000010FFF7E3FE804606E000BFFFF7DEFEEA
:1022D000A0EB080002282BD8D9F80000C005F5D5DE
:1022E000D5F8900010F4407014D0216D814211D0C7
:1022F000D5F89000D5F8901020F4407041F480316A
:10230000C5F89010D5F8901021F48031C5F89010E0
:10231000C5F89000C00711D0FFF7B8FE804641F223
:10232000883907E0FFF7B2FEA0EB0801494501D963
:1023300003260BE0D5F890008007F3D5D5F8900080
:10234000216D20F440700843C5F890001FB1A86DBE
:1023500020F08050A8652078C00707D0D5F8880005
:10236000616820F003000843C5F8880020788007E2
:1023700007D5D5F88800A16820F00C000843C5F8FF
:1023800088002078400707D5D5F88800E16820F05C
:1023900030000843C5F888002078000707D5D5F835
:1023A0008800216920F0C0000843C5F88800207823
:1023B000C00607D5D5F88800616920F4407008434D
:1023C000C5F888002078800607D5D5F88800A1696F
:1023D00020F440600843C5F888002078400607D5FF
:1023E000D5F88800E16920F440500843C5F888001A
:1023F0002078000607D5D5F88800216A20F44040EF
:102400000843C5F888002088C00507D5D5F888009E
:10241000616A20F440300843C5F8880020688003D2
:1024200007D5D5F89C00A16A20F003000843C5F841
:102430009C002088800507D5D5F88800E16A20F443
:1024400040200843C5F88800208840050FD5D5F8FE
:102450008800216B20F440100843C5F88800206BE9
:10246000B0F5801F03D1E86840F48010E860208850
:1024700000050FD5D5F88800616B20F440000843B3
:10248000C5F88800606BB0F5800F03D1E86840F4B0
:102490008010E8602088C0040FD5D5F88800A16BB3
:1024A00020F040700843C5F88800A06BB0F1807F31
:1024B00003D1E86840F48010E86020884FF00061A4
:1024C00080040ED5D5F88800E26B20F04060104300
:1024D000C5F88800E06B884203D1E86840F48010BA
:1024E000E860208840040ED5D5F88800226C20F0E2
:1024F00040601043C5F88800206C884203D1E8682A
:1025000040F48010E860208800040FD5D5F88800DA
:10251000616C20F040500843C5F88800606CB0F151
:10252000805F03D1E86840F48030E8602068C00331
:102530000FD5D5F88800A16C20F040400843C5F8BD
:102540008800A06CB0F1804F03D1E86840F480307F
:10255000E860206840030FD5D5F89C00E16C20F4BA
:1025600040100843C5F89C00E06CB0F5001F03D193
:10257000E86840F48010E8603046BDE8F883000069
:1025800000100240007000402DE9F0470E460500A3
:102590004FF0000725D0DFF8AC81D8F8000000F03C
:1025A0000F00B0420CD2D8F8001021F00F013143D7
:1025B000C8F80010D8F8000000F00F00B04210D1A9
:1025C0002968614CC80741F2883A5AD06868DFF838
:1025D0007C91032808D0022820682DD040050028CF
:1025E0002CDB0120BDE8F08720688001F9D5E06888
:1025F00000F00302E068C0F30310401C032A19D066
:10260000534A00BFB2FBF0F0E268C2F30622504327
:10261000E268C2F34162521C5200B0FBF2F048453E
:1026200017D9A06810F0F00F0CD0880711D5A86852
:1026300040B10EE0474AE5E78003D0E700F0B6F886
:10264000484506D9A06820F0F00040F08000A06066
:102650008027A068696820F003000843A060FFF7A6
:1026600015FD814606E000BFFFF710FDA0EB090154
:1026700051453AD8A068696800F00C00B0EB810FB2
:10268000F2D12868810714D5400703D5A06840F42B
:10269000E060A0602878000705D5A06820F46050AD
:1026A00040F4E060A060A068A96820F0F000084352
:1026B00004E0802F03D1A06820F0F000A060D8F8DB
:1026C0000010404601F00F01B14216D9016821F017
:1026D0000F0131430160FFF7D9FC074607E000BF57
:1026E000FFF7D4FCC11B514501D903207AE7D8F884
:1026F000000000F00F00B042F2D12878400705D565
:10270000A068E96820F4E0600843A060287800072A
:1027100006D5A068296920F4605040EAC100A06095
:1027200000F044F8A1680C4AC1F30311515C01F0B8
:102730001F01C8400949086009480068BDE8F04722
:10274000FFF7C2BC002002400010024000B4C404E5
:102750000024F40040787D01086900081000002082
:10276000040000200548064900688968054AC1F34D
:102770000221515C01F01F01C84070471000002089
:102780000010024018690008054806490068896879
:10279000054AC1F3C221515C01F01F01C8407047D6
:1027A000100000200010024018690008184910B5F8
:1027B0008868C0F381021748012A0BD08A68164B3B
:1027C000C2F38102022A06D08A68C2F38102032A78
:1027D00003D0002010BD184610BDCA6802F00304E3
:1027E000CA68C2F30312521C032C02D0B0FBF2F0F1
:1027F00001E0B3FBF2F0CA68C968C2F30622504395
:10280000C1F34161491C4900B0FBF1F010BD00006B
:10281000001002400024F40040787D012DE9F843C7
:1028200004007AD02078F84DC00747D0A868E9683E
:1028300000F00C0001F003010C2802D0082817D08A
:1028400001E0032914D06068B0F5803F17D0B0F5DF
:10285000A02F286817D020F480302860286820F442
:10286000802028606068E0B1FFF710FC064614E0A5
:102870002868800322D560680028D2D01EE028682E
:1028800040F48030EDE740F480202860F7E700BF97
:10289000FFF7FCFB801B642870D828688003F7D5FD
:1028A0000CE0FFF7F3FB064605E000BFFFF7EEFB89
:1028B000801B6428F0D828688003F7D4207880072C
:1028C0004CD5A868E96800F00C0001F003010C2861
:1028D00002D004280DD001E002290AD0E0680028C7
:1028E00028682BD040F480702860FFF7CFFB0646A5
:1028F00019E02868400502D5E068002891D0686892
:10290000217C20F0FE4040EA01606860BF4800681A
:10291000FFF7DAFB002800D120E072E1FFF7B6FBF9
:10292000801B0228B8D828684005F7D56868217C44
:1029300020F0FE4040EA016068600FE020F4807003
:102940002860FFF7A3FB064605E000BFFFF79EFBEC
:10295000801B0228A0D828684005F7D420780007FB
:1029600029D560690028D5F8940013D040F0010003
:10297000C5F89400FFF78AFB064606E090E000BF2A
:10298000FFF784FB801B022886D8D5F894008007C7
:10299000F6D510E020F00100C5F89400FFF776FBB3
:1029A000064604E0FFF772FB801B022878D8D5F8B2
:1029B00094008007F6D42078400761D5A86D0026E2
:1029C000C00008D4A86D40F08050A865A86D01260D
:1029D00000F0805000908E480168C90511D401684C
:1029E000804641F480710160FFF750FB074604E028
:1029F000FFF74CFBC01B022852D8D8F80000C005D6
:102A0000F6D5A068012815D00528D5F8900016D075
:102A100020F00100C5F89000D5F8900020F00400E7
:102A2000C5F89000A06841F28838B8B1FFF72EFBD6
:102A300007460EE0D5F8900040F00100F0E740F0C6
:102A40000400C5F89000F5E7FFF720FBC11B4145E6
:102A500026D8D5F890008007F6D50CE0FFF716FBD6
:102A6000074604E0FFF712FBC11B414518D8D5F813
:102A700090008007F6D41EB1A86D20F08050A865A4
:102A80002078800629D5A0690028D5F8980013D0B1
:102A900040F00100C5F89800FFF7F8FA064606E096
:102AA00075E000BFFFF7F2FA801B02286FD8D5F857
:102AB00098008007F6D510E020F00100C5F89800D6
:102AC000FFF7E4FA064604E0FFF7E0FA801B02286D
:102AD0005DD8D5F898008007F6D4E069F0B3A9680E
:102AE000C1F3810103295DD00228286820F080709D
:102AF000286003D0FFF7CAFA04464BE0FFF7C6FA96
:102B0000064604E0FFF7C2FA801B02283FD8286877
:102B10008001F7D4F4E908016FF00F0202EB011114
:102B20000843218A5204490802EB4151A26841EA54
:102B300002210843217D4FF07E42490802EB4161AA
:102B40000843217B40EAC160E968324A11400843EA
:102B5000E860286840F08070286000E05EE0E86887
:102B600040F08070E860FFF791FA044605E000BF8E
:102B7000FFF78CFA001B022809D828688001F7D5D6
:102B80004CE000BFFFF782FA001B022802D90320A5
:102B9000BDE8F88328688001F4D4E8681E4908403D
:102BA000E8603BE00128F3D0E868226A00F0030106
:102BB000914226D1616A00F0F00209011039914278
:102BC0001FD1A26A00F4FE41B1EB022F19D194F893
:102BD0002C2000F07841B1EBC26F12D1218E00F4AD
:102BE000C00249084905A1F50011914209D194F8A4
:102BF000341000F0C06049084906A1F1007181421B
:102C00000CD00120C4E700000010024004000020A6
:102C1000007000400C809F01FCFFEEFE0020B7E733
:102C200070B5040009D0606A002540B12561656176
:102C3000A56294F85D0040B10CE0012070BD6068B1
:102C4000B0F5827FF4D0E561F2E784F85C5020466D
:102C500000F05CF8022084F85D002068016821F033
:102C600040010160E1684FF4E062914201D9002027
:102C700001E04FF48050B1F5706F02D0914200D066
:102C8000A562A188228901F4827102F404421143F1
:102C9000227C02F002021143227D02F00102114364
:102CA000228B02F400721143227F02F0380211439A
:102CB00094F8202002F080021143228D02F4005289
:102CC000114322681160A169042202EA114194F8BB
:102CD000242000F4805002F01002114394F83420B4
:102CE00002F008021143A28902F470621143014309
:102CF000206841602068C16921F40061C1612566D6
:102D0000012084F85D00002070BD0000F0B587B0A0
:102D1000064614216846FDF7C7FA334A3068002595
:102D200032490224904227D1086E40F48050086650
:102D3000086E00F480500590C86C40F00200C86432
:102D4000C86C052600F00200059018208DE83100BF
:102D5000274FCDE9035669463846FFF769F820202A
:102D6000CDE9000402AA012082E8610069463846E4
:102D7000FFF75EF807B0F0BD1E4A9042FAD1886DA9
:102D800040F400408865886D00F400400590C86CF0
:102D900040F00400C864C86C694600F00400059067
:102DA0004FF4A0508DE831000620CDE903501248C1
:102DB000FFF73EF8124C114820600F206060102091
:102DC000C4E9020580202061400060618000C4E900
:102DD0000605800020622046FEF7B8FF08B1FDF727
:102DE000DAFC7465A662C5E70030014000100240BD
:102DF00000040048003C0040000800480800024071
:102E0000A00600202DE9F84F984616468A4604464B
:102E1000FFF73CF9814694F85D00012820D1BAF112
:102E2000000F6FD0002E6DD094F85C00012817D0F1
:102E3000012784F85C70032084F85D000025256676
:102E4000C4F838A0A687E6872564A4F84450A4F8FF
:102E500046502565E564A068B0F5004F03D00CE04E
:102E60000220BDE8F88F2068016821F04001016070
:102E70002068016841F480410160206801684906CA
:102E800003D4016841F040010160E068B0F5E06FF3
:102E9000606826D908B1012E1FD1A06B2168008877
:102EA000C86006E020688168890709D5A16B098898
:102EB000C160A06B801CA063E08F401EE0870CE027
:102EC000FFF7E4F8A0EB0901414503D3B8F1FF3F58
:102ED00003D04BE0B8F1000F48D0E08F0028E1D1DB
:102EE00039E008B1012E33D1E08F0128A06B03D95E
:102EF00021680088C86010E021680078087314E039
:102F0000E08725E043E020688168890713D5E18FD9
:102F10000129A16B07D90988C160A06B801CA0633F
:102F2000E08F801EECE709780173A06B401CA06362
:102F3000E08F401EE4E7FFF7A9F8A0EB0901414547
:102F400003D3B8F1FF3F03D010E0B8F1000F0DD06C
:102F5000E08F0028D7D14A464146204601F0ECFDDB
:102F600008B120202066A06830B109E084F85D70C7
:102F700084F85C50032074E72068C1688068009082
:102F800084F85D7004F85C5F60680028F3D001206D
:102F900067E710B5401EB0F1807F01D3012010BD5E
:102FA0004FF0E02460610F21601702F0FDFE002069
:102FB000A06107202061002010BD70477047704756
:102FC00030B590F83C20012A45D0012280F83C2001
:102FD000CA688B6822F440721A434B6822F48062FC
:102FE0001A430B6822F400621A430B6922F48052E0
:102FF0001A434B6922F400521A430B6B22F48042AD
:103000001A430B8B22F4702242EA0342CB6922F06E
:1030100080521A43114D03680024AB4205D0104D75
:10302000AB4202D00F4DAB4210D10D8D22F4700295
:1030300042EA05520D6A22F080722A434D6A22F05C
:1030400000722A43C96A22F000520A435A6480F887
:103050003C40002030BD022030BD0000002C01406B
:103060000034014000500140704770477047000035
:10307000F0B590F83C20012A43D0012580F83C505F
:10308000022280F83D2003685A689C681E4E1F4F3C
:10309000DFF87CC0B34203D0BB4201D0634504D10A
:1030A00022F4700E4A6842EA0E02DFF868E002EA93
:1030B0000E02D1F800E04EEA020EC3F804E0026806
:1030C000B24212D0B2F1804F0FD0134B9A420CD0C3
:1030D000124B9A4209D0124B9A4206D0BA4204D0FF
:1030E000104B9A4201D0624504D1896824F08003D4
:1030F0001943916080F83D50002180F83C1008464B
:10310000F0BD0220F0BD0000002C01400034014061
:10311000005001408FFFFFFD000400400008004008
:10312000000C00400040014010B50446022249B1A5
:1031300004290ED0082913D094F84700012816D08E
:10314000012010BD94F844000128F9D184F84420EE
:103150000FE094F845000128F2D184F8452008E0FA
:1031600094F846000128EBD184F8462001E084F869
:1031700047200422206801F0C0FE2068416C41F421
:103180000041416413492068884214D0B0F1804F57
:1031900011D0114988420ED0104988420BD01049F5
:1031A000884208D00F49884205D00F49884202D092
:1031B0000E49884207D181680D4A1140062906D080
:1031C000B1F5803F03D0016841F0010101600020AA
:1031D00010BD0000002C0140000400400008004029
:1031E000000C00400034014000400140005001400C
:1031F00007000100704710B5040003D094F83D00AB
:1032000010B107E0012010BD002084F83C002046EA
:1032100000F022F8022084F83D00211D206801F012
:10322000EDFD012084F8480084F83E0084F83F005A
:1032300084F8400084F8410084F8420084F8430098
:1032400084F8440084F8450084F8460084F8470078
:1032500084F83D00002010BD08B5154A01681548E6
:1032600091420ED1816D41F010018165806D002287
:1032700000F01000009011463620FEF76DFF36205A
:1032800010E00D4A914211D1816D41F0200181651C
:10329000806D002200F02000009011463720FEF7DC
:1032A0005BFF3720BDE80840FEF748BF08BD0000BF
:1032B00000100040001002400014004090F83D1043
:1032C000012901D001207047022180F83D100168DA
:1032D000CA6842F00102CA6000681349884214D0EB
:1032E000B0F1804F11D0114988420ED01049884268
:1032F0000BD01049884208D00F49884205D00F49A9
:10330000884202D00E49884207D181680D4A114097
:10331000062906D0B1F5803F03D0016841F00101D4
:103320000160002070470000002C014000040040B4
:1033300000080040000C0040003401400040014003
:10334000005001400700010070472DE9F04104469C
:103350000068C66805694FF00007A90713D5B107D3
:1033600011D5F91E0161012020772068806980074E
:10337000204602D0FFF7E8FF04E000F015F92046F0
:1033800000F0F4F92777680716D5700714D521687F
:103390006FF004000861022020772068806910F433
:1033A000407F204602D0FFF7CFFF04E000F0FCF89A
:1033B000204600F0DBF92777280715D5300713D50D
:1033C00021686FF008000861042020772068C06938
:1033D0008007204602D0FFF7B7FF04E000F0E4F8D2
:1033E000204600F0C3F92777E80616D5F00614D575
:1033F00021686FF010000861082020772068C069FC
:1034000010F4407F204602D0FFF79EFF04E000F05A
:10341000CBF8204600F0AAF92777E80708D0F00794
:1034200006D021686FF001000861204600F02AFAFA
:10343000280601D4A80408D5300606D521686FF403
:10344000025008612046FFF7B9FDE80508D53006AF
:1034500006D521686FF4807008612046FFF7ADFD46
:10346000680608D5700606D521686FF0400008612F
:10347000204600F01DFAA80608D5B00606D521683A
:103480006FF0200008612046FFF799FDE80208D59B
:10349000F00206D521686FF4801008612046FFF71E
:1034A000E4FDA80208D5B00206D521686FF400102B
:1034B00008612046FFF7D8FD680208D5700206D5DE
:1034C00021686FF4800008612046FFF7CFFD2802D5
:1034D0000AD5300208D521686FF400000861204643
:1034E000BDE8F041FFF786BEBDE8F081F0B587B0DA
:1034F000044614216846FCF7D7FE27492068884215
:1035000048D12648C16C41F00401C164C16C01F08E
:1035100004010591C16C41F00201C164C16C01F06C
:1035200002010591C16C41F00101C164C06C02252A
:1035300000F001000590082000900024CDE901541E
:1035400069461748CDE90345FEF772FC4FF4C040C9
:103550000090CDE901540626124FCDE90346694695
:103560003846FEF765FCA8030090CDE9015404201D
:10357000CDE9034069463846FEF75AFC4FF4E06057
:103580000090CDE90154CDE9034669464FF09040E3
:10359000FEF74EFC07B0F0BD002C014000100240C9
:1035A0000008004800040048704770B5044690F8D1
:1035B0003C0000260D4601280BD0012084F83C0079
:1035C0000C2A4AD007DC82B1042A20D0082A06D16E
:1035D00031E0022070BD102A53D0142A63D0012696
:1035E000002084F83C00304670BD206801F092FC59
:1035F0002068816941F0080181612068816921F0BA
:1036000004018161206881692A69114311E0206801
:1036100001F0D6FC2068816941F400618161206875
:10362000816921F480618161206881692A6941EAA8
:1036300002218161D4E7206801F012FD2068C16990
:1036400041F00801C1612068C16921F00401C16134
:103650002068C1692A69114311E0206801F050FD1A
:103660002068C16941F40061C1612068C16921F429
:103670008061C1612068C1692A6941EA0221C16192
:10368000AEE7206801F08CFD2068016D41F0080173
:1036900001652068016D21F0040101652068016D5C
:1036A0002A69114311E0206801F0B6FD2068016D20
:1036B00041F4006101652068016D21F480610165BC
:1036C0002068016D2A6941EA0221016588E710B589
:1036D000040003D094F83D0010B107E0012010BDB4
:1036E000002084F83C00204600F022F8022084F8F4
:1036F0003D00211D206801F081FB012084F8480075
:1037000084F83E0084F83F0084F8400084F84100CB
:1037100084F8420084F8430084F8440084F84500AB
:1037200084F8460084F8470084F83D00002010BD6E
:1037300008B500680B49884212D10B48016E41F46C
:1037400000610166006E002200F4006000901146E6
:103750001920FEF701FDBDE808401920FEF7EEBC78
:1037600008BD0000002C014000100240704700001E
:1037700070B50446022269B1042912D0082917D075
:103780000C291CD0102921D094F84300012824D002
:10379000012070BD94F83E000128F9D184F83E2044
:1037A0001DE094F83F000128F2D184F83F2016E094
:1037B00094F840000128EBD184F840200FE094F801
:1037C00041000128E4D184F8412008E094F8420047
:1037D0000128DDD184F8422001E084F84320012251
:1037E000206801F07DFB1D4920681D4A1D4B1E4DC0
:1037F00088420BD0904209D0984207D01B4EB0426D
:1038000004D01B4EB04201D0A84203D1466C46F40E
:10381000004646642068884211D0B0F1804F0ED037
:10382000144988420BD01449884208D01349884271
:1038300005D0904203D0984201D0A84207D18168B8
:103840000F4A1140062906D0B1F5803F03D0016828
:1038500041F001010160002070BD0000002C01401A
:10386000003401400040014000500140004401404C
:10387000004801400004004000080040000C0040E7
:10388000070001000068084988420BD10749002061
:1038900051F8202012B1521E41F82020401CC0B225
:1038A0001428F5D37047000000140040B000002039
:1038B000704790F88410012918D0012180F88410F5
:1038C0002421C0F8881001680A680B6823F00103FE
:1038D0000B6022F00051002242660368196020212B
:1038E000C0F8881080F88420104670470220704786
:1038F0007047704770B5044690F8840001281DD0C9
:10390000012084F884002420C4F888002068056819
:10391000026822F0010202602068826822F0606280
:103920000A438260204601F0B5FC20680560202033
:10393000C4F88800002084F8840070BD022070BDA7
:1039400070B5044690F8840001281DD0012084F849
:1039500084002420C4F8880020680568026822F0EA
:10396000010202602068826822F060420A4382609D
:10397000204601F08FFC206805602020C4F88800F4
:10398000002084F8840070BD022070BD704770472D
:10399000704700002DE9F04103680446D8691968B2
:1039A0009A6840F60F0528424FF000054FF00206D6
:1039B0000AD187067ED501F0200702F0805C57EA25
:1039C0000C0777D0616F42E1B64FDFF8DCC21740D9
:1039D00001EA0C0C57EA0C0C6CD05FEAC07C0CD0EE
:1039E0005FEAC15C09D54FF0010CC3F820C0D4F8E0
:1039F000903043F00103C4F89030830709D5D30712
:103A000007D023681E62D4F8903043F00403C4F852
:103A1000903043070AD5D30708D0266804233362C1
:103A2000D4F8903043F00203C4F8903003070CD56B
:103A300001F020033B4308D0266808233362D4F802
:103A4000903043F00803C4F8903003050BD54B01C8
:103A500009D526684FF400633362D4F8903043F000
:103A60002003C4F89030D4F89030002B3DD080066D
:103A700009D501F0200002F08051084303D0616FA6
:103A800009B120468847D4F8900021688968490622
:103A900002D410F0280F2AD0204601F0DFFC206865
:103AA000806840061ED52068083050E8001F21F0CD
:103AB000400100E021E040E80012002AF3D1D4F8F0
:103AC000800078B179498163D4F88000FEF7A5F8C9
:103AD00000280AD0D4F88000816B00E02046BDE8C1
:103AE000F04108472046FFF753FFBDE8F08120462C
:103AF000FFF74EFFC4F89050F7E7D4F86CC02027CA
:103B0000BCF1010F7ED15FEAC06C7BD55FEAC16C6E
:103B100078D51020186220688068400651D5D4F806
:103B200080100A6850680004000C3ED0B4F85C3085
:103B300083423AD9A4F85E000868006880062CD455
:103B4000216851E8000F20F4807041E80002002A4B
:103B5000F6D12068083050E8001F21F0010140E84C
:103B60000012002AF5D12068083050E8001F21F02B
:103B7000400140E80012002AF5D1C4F88C70E566D7
:103B8000216851E8000F20F0100041E80002002AEF
:103B9000F6D1D4F88000FEF70BF82667B4F85C0085
:103BA000B4F85E10401A81B207E0B4F85C108142AC
:103BB0009BD11068800698D526672046FFF798FEAF
:103BC00093E7B4F85C00B4F85E10401A81B2B4F820
:103BD0005E00002889D0002987D0226852E8000FB3
:103BE00020F4907042E80003002BF6D12D4BDB430C
:103BF0002068083050E8002F1A4040E8002CBCF143
:103C0000000F00E00EE0F3D1C4F88C70E566656744
:103C1000206850E8002F22F0100240E80023002B1B
:103C2000F6D1C9E7C60209D5560207D54FF4801070
:103C300018622046BDE8F041FFF7A9BE03060AD589
:103C400001F0800302F40002134304D0A16F0029A5
:103C50007FF444AF49E7420611D54A060FD5204606
:103C6000016851E8002F22F0400241E80023002BB8
:103C7000F6D1C0F88870856700F098F835E7020241
:103C800006D54A0004D52046BDE8F041FFF77EBEC8
:103C9000C00195D5002993DA2046BDE8F041FFF731
:103CA00028BE000001000010200100044D5400084F
:103CB00010B5040003D0D4F8880010B107E001204B
:103CC00010BD002084F88400204600F027F824204E
:103CD000C4F888002068016821F001010160A06A31
:103CE00010B1204601F0F8FA204601F0E1FB01286E
:103CF000E6D02068416821F49041416020688168E5
:103D000021F02A0181602068016841F00101016011
:103D10002046BDE8104001F043BB000010B59CB048
:103D20000446142115A8FCF7BFFA54216846FCF795
:103D3000BBFA1B49206888422FD104200024009040
:103D400003946846FEF7A0FA08B1FCF724FD154875
:103D5000816D41F480218165816D01F480211A918A
:103D6000C16C41F00201C164C06C15A900F00200F1
:103D70001A904FF4406015900220CDE916040720F8
:103D8000CDE918400848FEF753F8002211462720D5
:103D9000FEF7E2F92720FEF7D1F91CB010BD0000B4
:103DA0000048004000100240000400487047FEE751
:103DB000BEEE001ADFED072A20EE012AF0EE601AAF
:103DC000B0EE421A01EEA22A01EEE21AF0EE420A29
:103DD00070470000D0B35D3FB0EE402A20EE210ACC
:103DE00001EE600A22EE011A01EEA01AF0EE410A7D
:103DF00070472DE9F04107461C4615460E462A201D
:103E000000F098F92837B8B200F0B4F92835A8B214
:103E100000F0B0F92B2000F08DF93536B0B200F08B
:103E2000A9F93534A0B200F0A5F9BDE8F0412C2085
:103E300000F080B910B514460B460246FFF7D9FFD3
:103E40002046BDE8104000F095B92DE9F0478046C6
:103E50001F46581E83B21646501E82B20C4640467C
:103E6000DDF82090FFF7C5FF0AE0454604E048462C
:103E700000F080F96D1CADB2B542F8D3641CA4B259
:103E8000BC42F2D3BDE8F0872DE9FF4F81B0044674
:103E9000DDF83C9000904FEA59074FF00008780792
:103EA00000D0012000EBD70000FB09FB203AD0B284
:103EB0000390029802994844401E83B2E019401EC4
:103EC00082B22046FFF795FF002553E0B9F10C0FB1
:103ED0002AD0B9F1100F2ED0B9F1180F2ED0B9F1A8
:103EE000200F49D12749039801EB8010002610F8D4
:103EF00005A0109800284FF0010000FA06F000EA33
:103F00000A0022D020B12046049A0299FFF792FFBE
:103F1000641C0098A4B2201AB84225D10298009CD3
:103F2000401C80B2029023E00398174900EB400048
:103F300001EB8000DAE71549039803E00398144980
:103F400000EB400001EB0010D0E708B1049800E05E
:103F50000E9800F00FF908F10100C0B2B0FBF7F1C4
:103F6000804607FB118050B1761CF6B2082EC0D3F4
:103F70006D1CADB25D45A9D305B0BDE8F08F4FF023
:103F80000008F5E75485000820690008946D0008D2
:103F9000847300082DE9FF4F83B00546DDE91191D8
:103FA00000904FEAD90000FB01FB4FF0000803200E
:103FB0004446029040F2475104FB01F02E49019023
:103FC000095C0598005D81424AD1049804998630C5
:103FD00083B204EB840005EB00104F3082B209FB82
:103FE000045080B2FFF705FF002737E0224801990F
:103FF0000026084400EB070A13989AF801100028DD
:104000004FF0010000FA06F001EA000111D021B1E1
:104010002846069A0499FFF70DFF6D1C0098ADB273
:10402000291A494514D10498009D401C80B204907F
:1040300012E009B1069800E0109800F09BF808F132
:10404000010080B2B0FBF9F2804609FB128078B122
:10405000761CB6B2082ECFD37F1CBFB25F45C5D346
:10406000641C0298A4B28442A4D307B0BDE8F08FC8
:104070004FF00008F0E70000BAA100082DE9FF4F5B
:1040800083B00026DDE911B81D4682464FEA580785
:104090003446B1462CE0281B401EC1B20A2002F073
:1040A0000DFB0599B1FBF0F00A21B0FBF1F201FB29
:1040B000120026B9691E8C4201DA58B1012630304F
:1040C000C2B204FB07A0CDF800B0CDE9018980B2EF
:1040D000109B08E0CDF800B004FB07A0CDE90189F2
:1040E000109B80B220220499FFF7CEFE641CE4B23C
:1040F000AC42D0D307B0BDE8F08F2DE9FE4F994612
:10410000DDE90D6714468A460546DDF830800CE08F
:10411000CDF800804B4651462846CDE90167FFF7B0
:10412000B3FE05EB560085B2641C2278002AEFD15D
:10413000BDE8FE8F10B5044600224FF4006104482C
:10414000FDF79FFF2046BDE81040012100F0E4BDCF
:104150000008004810B504460122D1020448FDF7CA
:1041600090FF2046BDE81040012100F0D5BD0000C1
:104170000008004810B504460122D1020548FDF7A9
:1041800080FF200AFFF7E6FFE0B2BDE81040FFF72E
:10419000E1BF00000008004800EB8100006E00F065
:1041A000F840704700EB8100006E00F0F840704767
:1041B0008068C0F3C00070478068C0F3C0007047DB
:1041C0008068C0F3800070478068C0F3800070474B
:1041D000C06810F4406F01D0002070470120704784
:1041E000042303EAD15310B518444369C1F30451C1
:1041F00007248C40A3438A401343436110BD04232A
:1042000003EAD15310B518444369C1F3045107249C
:104210008C40A3438A401343436110BD00EB8100EF
:10422000016E21F0004111430166704700EB8100EF
:10423000016E21F0004111430166704730B593B023
:1042400000240F9410943C2168461194FCF72CF83C
:1042500034484FF0A041042501604FF44031C0E9DB
:10426000011485610121C460C0E9044104774477E9
:10427000016280F8244080F83840C46380F84040F0
:10428000FDF706FB08B1FCF786FA0FA925480F9445
:10429000FCF7BAFE08B1FCF77EFA2348009009202B
:1042A000CDE901047F200594CDE9030584200A901F
:1042B0008DF8244080208DF825400B9008958DF8CE
:1042C00026408DF8304069461648FCF71DFB08B1C2
:1042D000FCF761FA1548009040F20F100190694612
:1042E0001048FCF711FB08B1FCF755FA1048009094
:1042F00040F21520019069460A48FCF705FB08B119
:10430000FCF749FA0B48009040F21B3001906946D7
:104310000448FCF7F9FA002801D0FCF73CFA13B086
:1043200030BD0000000500200200300404006008D9
:104330000800900C1000C01030B589B020216846EC
:10434000FBF7B2FF19481849002401604FF44031CF
:10435000C0E90114C46004250461C0E9054504777F
:1043600044770121016280F82440C462046380F82C
:104370003840C46380F84040FDF78AFA08B1FCF782
:104380000AFA0B4800900620CDE901047F2005942D
:10439000CDE9030569460548FCF7E6FE002801D093
:1043A000FCF7F9F909B030BD000100506C050020A0
:1043B0002000F0140D4808B5816C41F004018164BF
:1043C000816C01F004010091816C41F00101816474
:1043D000806C002200F00100009011460B20FDF7D8
:1043E000BBFEBDE808400B20FDF7A8BE0010024050
:1043F0002DE9F04786B014216846FBF755FF434886
:10440000C16C41F00401C164C16C01F0040105916B
:10441000C16C41F02001C164C16C01F02001059123
:10442000C16C41F00101C164C16C01F00101059151
:10443000C16C41F00201C164C16C01F0020105913F
:10444000C16C41F00801C164C06C314F00F008003C
:104450004FF468440590002221463846FDF711FECE
:104460004FF400464FF09048002231464046FDF799
:1044700008FEDFF8A090002204214846FDF701FE67
:10448000DFF894A0002240215046FDF7FAFD0125F7
:10449000CDE9004500240294694638460394FDF7AF
:1044A000C7FCC0208DE8310069464046FDF7C0FCDE
:1044B000CDE90054694650460295FDF7B9FC4FF42A
:1044C0007070CDE90004694638460294FDF7B0FCEF
:1044D0000096CDE90154694640460394FDF7A8FCD7
:1044E00004200090CDE90154694648460394FDF745
:1044F0009FFC40200090CDE901546946504603944A
:10450000FDF796FC06B0BDE8F08700000010024001
:1045100000080048000C004800040048124810B58C
:10452000104901604FF48271416000214FF47062C4
:10453000C0E902120222026101224261520282613A
:104540001822C0E9072107224162C0E90A1201636B
:104550004163FEF765FB002803D0BDE81040FCF77F
:104560001AB910BD00300140D8050020124810B51E
:10457000104901604FF48271416000214FF4E06204
:10458000C0E902120222C0E9042112028261102253
:10459000C0E9072107224162C0E90A12016308212C
:1045A0004163FEF73DFB002803D0BDE81040FCF757
:1045B000F2B810BD003C00403C06002010B598B099
:1045C0000024149415941C2168461694FBF76CFE85
:1045D000342107A8FBF768FE32483149C0E90014CE
:1045E0002021816041F29A01C0E903148021C0E9D1
:1045F0000541FFF76CF808B1FCF7CDF87020CDE964
:10460000140414A927481694FEF732FD08B1FCF7EC
:10461000C2F86020CDE90004029403940494059448
:10462000002269461F480694FEF7BFFF08B1FCF759
:10463000B2F8042269461B48FEF7B7FF08B1FCF741
:10464000AAF8082269461748FEF7AFFF08B1FCF741
:10465000A2F840F64D0001900C2269461148FEF781
:10466000A4FF08B1FCF797F80794089409944FF455
:1046700000500A94CDE90B400D9400030E94CDE94F
:104680000F401194129407A906481394FEF798FC62
:1046900008B1FCF780F80348FEF728FF18B010BDFA
:1046A000002C0140000700203EB500240F48009474
:1046B00001940D490294C0E9001444F26721C0E955
:1046C000024180218161FEF796FD08B1FCF763F895
:1046D00020200090694602940448FEF7C9FC002897
:1046E00001D0FCF758F83EBD001000404C070020F8
:1046F0003EB500240F48009401940D4902940160D6
:10470000A921C0E9011440F2E731C1608021816133
:10471000FEF771FD08B1FCF73EF8009469460548C4
:104720000294FEF7A5FC002801D0FCF734F83EBD4A
:104730000014004098070020184810B51649016081
:104740004FF4E1314160002181600C22C160C0E979
:1047500004128161C161016241628162FFF7A8FABE
:1047600008B1FCF718F800210C48FFF7E9F808B188
:10477000FCF711F800210948FFF7BCF808B1FCF775
:104780000AF80648FFF795F8002803D0BDE8104066
:10479000FCF701B810BD000000480040E40700200D
:1047A000FEE7FEE790ED001A61EE001A90ED021AA6
:1047B00000EE201A80ED021A90ED012A22EE012A65
:1047C00031EE822A80ED032AD0ED041AB4EEE12AFC
:1047D000F1EE10FA05DD00EE601AC0ED031A80ED6F
:1047E000021A90ED032AB1EE611AB4EEC12AF1EE7D
:1047F00010FA07D280ED031A90ED021A00EE601A4B
:1048000080ED021A7047000010B5074C206836286A
:1048100007D0FBF7E0FE6420606036202060642053
:1048200010BD01F02AF8F6E788000020B0EE402A1B
:1048300022EE210A01EE200A60EEA10A41EE420AB0
:104840007047704710B5074CA068952807D001F055
:1048500093FE0520E0609520A060052010BD01F0CA
:104860007DFEF6E7900000202DE9F0410446154852
:10487000DDF818801D46007816460F46532801D0F3
:1048800001F006F90F48032C18D2EFF31181202212
:1048900082F3118804EB440200EBC20018302CB103
:1048A00007604660856000220261C260C0F8148023
:1048B000C8B280F311880020BDE8F0814FF0FF30CE
:1048C000FAE70000280900202DE9F04107460B48CF
:1048D00015460E460078532801D001F0D9F8EFF3C1
:1048E0001184202080F311882A463146384600F092
:1048F00007F8E1B281F31188BDE8F08128090020B2
:1049000070B50E46144900EB400001EBC00514469B
:10491000E86A183520B101280FD0022805D113E02C
:10492000284601F0E7F8A04201D2002411E0224617
:104930003146284601F004FA0BE0284601F0DAF887
:10494000A042F4D20446F2E73146284601F0CBF902
:104950000446204670BD00002809002070B50546B9
:104960000C460846FBF7ABFC024621462846BDE84C
:104970007040FFF7A9BF0FB408B504A900916A46BB
:10498000039900F003F801B05DF814FB2DE9F04144
:10499000ADF5087D064602A882904FF40070002510
:1049A000CDE98305CDE9855690460C4614F8011BE8
:1049B000002975D0252909D082A801F075F98598BC
:1049C0000028F3DA0DF5087DBDE8F0810020012113
:1049D0002278232A1ED02B2A19D02D2A02D0302A41
:1049E00008D102E040F0010001E040F00200641C48
:1049F0000029EDD100222178A1F130030A2B0CD23D
:104A000002EB820201EB4202303A641CF3E740F011
:104A10000400ECE740F00800E9E70023CFB22E2FB6
:104A20000CD100BF14F8011FA1F130070A2F05D2E5
:104A300003EB830301EB4303303BF3E76C290DD019
:104A400068290BD0702956D00BDC252916D058299F
:104A500031D063290CD0642913D114E014F8011F5C
:104A6000ECE7732934D075291BD0782909D122E0CD
:104A7000D8F80000011DC8F80010017882A801F0E4
:104A800013F9641C9BE7D8F800100F1DC8F80070DC
:104A90000968CDE900200A2282A801F037F8F0E782
:104AA00035E0D8F800100F1DC8F800700968CDE98E
:104AB00000200A2208E0D8F800100F1DC8F8007086
:104AC0000968CDE90020102282A801F083F8D8E718
:104AD000D8F80000011DC8F80010076807B914A72E
:104AE00017F8011B0029CCD082A801F0DDF88598C9
:104AF0000028F5DAC5E7D8F80000011DC8F8001055
:104B000001680820CDE9000503461022DCE78598FE
:104B100000287FF757AF849820B1024602A930469B
:104B2000FFF7D2FEDDE98410084485904AE70000D3
:104B3000284E554C4C290000F8B515460E460B463C
:104B40000092044600224FF4C05100F019F888B9D1
:104B50003346002280212046009500F081F848B9B4
:104B6000334600224FF4C0612046009500F008F85B
:104B7000002804D0206E40F0200020660320F8BDFD
:104B80002DE9FE4F4FF0000A984617460E460446A0
:104B90000C9D8DF804A0FDF779FA411BA8EB0105E7
:104BA000FDF774FA814620684FF4C06B0C30029018
:104BB0002A480068C0EBC00000EB8000000D68438D
:104BC000009043E05E4506D12FB9029800788DF839
:104BD00004009DF80400B8F1FF3F37D0FDF756FA06
:104BE000A0EB0900A84203D215B1009858B32BE0FE
:104BF0002068416821F0E00141606068B0F5827F83
:104C00000BD1A068B0F5004F02D0B0F5806F04D191
:104C10002068016821F040010160A06AB0F5005FE2
:104C200009D12068016821F4005101602068016801
:104C300041F400510160012084F85D0084F85CA01B
:104C40000320BDE8FE8F0025401E0090206880688C
:104C50003040B842B6D10020F3E700001000002039
:104C60002DE9F8431E46914688460446089DFDF707
:104C70000DFA401B351AFDF709FA0746254800686A
:104C8000C0F3CB30684338E0701C37D0FDF7FEF935
:104C9000C01BA84203D215B1009860B32CE0206875
:104CA000416821F0E00141606068B0F5827F0BD17E
:104CB000A068B0F5004F02D0B0F5806F04D1206835
:104CC000016821F040010160A06AB0F5005F09D1E0
:104CD0002068016821F4005101602068016841F4F6
:104CE00000510160012084F85D00002084F85C0020
:104CF0000320BDE8F8830025401E009020688168ED
:104D000038EA010004D000214945BDD10020F0E778
:104D10000121F9E71000002013B50A464FF0FF33D8
:104D200069460248FEF76EF81CBD00003C060020F4
:104D300010B504463620FFF7FDF944B1012C08D028
:104D4000022C08D0A020BDE81040FFF703BA0020D5
:104D5000F9E7C020F7E77020F5E77047FDF79CB949
:104D600010B594B038216846FBF79EFA14210EA8BE
:104D7000FBF79AFA0020FDF721FA012000900004C9
:104D8000032405210190CDE9084102204421CDE909
:104D90000A1007900C900D906846FDF73FFD08B192
:104DA00072B6FEE70F20CDE90E040020109011909E
:104DB000129004210EA8FDF7E7FB002801D072B67F
:104DC000FEE714B010BD00000248016841F4700114
:104DD0000160704788ED00E00148FEF7B6BA0000B8
:104DE000000700200148FEF7B0BA00004C07002081
:104DF0000148FEF7AABA0000980700202DE9F04FFD
:104E000002682E4B2E4E2F4FDFF8BCC02F4C304D7A
:104E10004FF0804B98420BD0584509D0B04207D094
:104E2000B84205D0604503D0A04201D0A84204D1C9
:104E300022F070084A6842EA0802DFF89880DFF83A
:104E40009890DFF898A0984211D058450FD0B04202
:104E50000DD0B8420BD0604509D0A04207D04045E4
:104E600005D0484503D0504501D0A84203D122F4D3
:104E70004076CA6832434E6922F0800232430260B3
:104E80008A68C2620A688262984209D0A04207D04A
:104E9000404505D0484503D0504501D0A84201D136
:104EA00009690163012141610169C90703D00169F1
:104EB00021F001010161BDE8F08F0000002C0140EC
:104EC0000004004000080040000C00400034014095
:104ED00000500140004001400044014000480140B2
:104EE00010B501F01F030121046A99408C4304624C
:104EF000016A9A401143016210BD10B501F00F0321
:104F00000421046A99408C430462016A9A40114367
:104F1000016210BD2DE9F047056A026A22F0010224
:104F20000262436882691F4C25F0020522400C682A
:104F300022F0030214438A681C4E2A431A4D1C4F68
:104F4000DFF870C0DFF87090DFF870A0A84209D0D9
:104F5000B04207D0B84205D0604503D0484501D0E3
:104F6000504506D122F00808CA6842EA080222F039
:104F70000402A84209D0B04207D0B84205D060452B
:104F800003D0484501D0504505D14D6923F4407305
:104F90001D438B692B43436084614968416302620E
:104FA000BDE8F0878FFFFEFF002C01400034014078
:104FB00000400140004401400048014000500140D1
:104FC000F0B5056A026A22F0100202624268836943
:104FD0001C4C1E4E23400C6823F4407343EA042407
:104FE00025F020038D681A4F43EA0513164DA84299
:104FF00003D0B04201D0B84207D1D1F80CC023F0A1
:10500000800343EA0C1323F04003A8420CD0B042C3
:105010000AD0104DA84207D00F4DA84204D00F4D22
:10502000A84201D0B84207D14D6922F4406242EA59
:1050300085028D6942EA8502426084614968816324
:105040000362F0BDFF8FFFFE002C014000340140E1
:105050000050014000400140004401400048014030
:10506000F0B5056A026A22F4807202624368C2697E
:105070001C4C1E4E22400C6822F00302144325F4FF
:1050800000728D681A4F42EA0522174DA84203D0DC
:10509000B04201D0B84207D1D1F80CC022F400626E
:1050A00042EA0C2222F48062A8420CD0B0420AD01C
:1050B000104DA84207D0104DA84204D00F4DA84271
:1050C00001D0B84207D14D6923F4405343EA051398
:1050D0008D6943EA05134360C4614968C163026294
:1050E000F0BD00008FFFFEFF002C014000340140A6
:1050F0000050014000400140004401400048014090
:10510000F0B5056A026A22F4805202624268C369FD
:105110001C4C1E4E23400C6823F4407343EA0424C5
:1051200025F400538D681A4F43EA0533164DA84203
:1051300003D0B04201D0B84207D1D1F80CC023F45B
:10514000004343EA0C3323F48043A8420CD0B0421E
:105150000AD0104DA84207D00F4DA84204D00F4DE1
:10516000A84201D0B84207D14D6922F4404242EA38
:1051700085128D6942EA85124260C4614968016402
:105180000362F0BDFF8FFFFE002C014000340140A0
:1051900000500140004001400044014000480140EF
:1051A00030B5056A026A22F4803202624268036DF9
:1051B000124C23400C681C4325F400330D8943EA4C
:1051C00005430F4DA8420ED00E4DA8420BD00E4DF8
:1051D000A84208D00D4DA84205D00D4DA84202D0DE
:1051E0000C4DA84204D14D6922F4803242EA0522D6
:1051F0004260046549688164036230BD8FFFFEFF31
:10520000002C0140003401400040014000440140B6
:10521000004801400050014030B5046A026A22F49F
:10522000801202624268036D134D24F400142B4077
:105230000D6843EA05230D8944EA05540F4DA84241
:105240000ED00F4DA8420BD00E4DA84208D00E4DE7
:10525000A84205D00D4DA84202D00D4DA84204D160
:105260004D6922F4802242EA852242600365496842
:10527000C164046230BD0000FF8FFFFE002C0140BE
:10528000003401400040014000440140004801401A
:105290000050014030B5416EB9B102689168926822
:1052A000C1F342610B4B520F9C5CE50003F1080413
:1052B000A25CB5FBF2F2A0F86A205A5C615CD200F5
:1052C000B2FBF1F1A0F8681030BD0121A0F86A101E
:1052D000F8E70000F868000890F82810090706D5DC
:1052E00001684A68836B22F400421A434A6090F8CE
:1052F0002810C90706D001684A68C36A22F4003240
:105300001A434A6090F82810890706D501684A6850
:10531000036B22F480321A434A6090F82810490740
:1053200006D501684A68436B22F480221A434A601A
:1053300090F82810C90606D501688A68C36B22F464
:1053400080521A438A6090F82810890606D50168B1
:105350008A68036C22F400521A438A6090F828107D
:10536000490611D501684A68436C22F480121A4339
:105370004A60416CB1F5801F06D101684A68836CB0
:1053800022F4C0021A434A6090F82810090606D594
:1053900001684A68C06C22F4002202434A607047E8
:1053A0002DE9F84300260446C0F89060FCF76EFE35
:1053B0008046206800684FF0200500076FF07E47A8
:1053C00013D54346002229042046009700F0BCF97B
:1053D00058B1216851E8000F20F0800041E8000238
:1053E000002AF6D1C4F8885021E020680068400700
:1053F00022D5434600224FF480012046009700F05A
:10540000A3F9C8B1216851E8000F20F4907041E879
:105410000002002AF6D12068083050E8001F21F071
:10542000010140E80012002AF5D1C4F88C5084F83C
:1054300084600320BDE8F883C4F88850C4F88C5019
:1054400044F86C6F666026760020F3E710B5806A3A
:105450000021A0F85E10FEF79BFA10BD10B502689F
:1054600052E8001F21F4907142E80013002BF6D19E
:105470000E4B0268083252E8001F194042E800143F
:10548000002CF6D1C16E012908D1016851E8002F26
:1054900022F0100241E80023002BF6D12021C0F8B1
:1054A0008C100021C166416710BD0000FEFFFFEFB8
:1054B0002DE9F0410446016880682269E3691043E0
:1054C000626900251A431043DFF84CC20A68934B07
:1054D0001A4002430A6020684168E26821F44051A2
:1054E000114341602168A069614501D0226A1043DF
:1054F0008A688B4B1A4002438A602068C16A626ADC
:1055000021F00F011143C1628649236886488B420E
:105510000DD1D0F8880010F0030006D0012867D024
:10552000022854D0032851D164E001204FE07F4984
:105530008B420BD1D0F8880010F00C0047D0042823
:1055400045D0082852D00C2840D153E078498B42EE
:105550000BD1D0F8880010F0300038D0102847D098
:10556000202843D0302831D144E072498B420BD1FE
:10557000D0F8880010F0C00029D0402838D080280A
:1055800034D0C02822D135E06B498B420ED1D0F8FF
:10559000880010F440701AD0B0F5807F28D0B0F5A4
:1055A000007F23D0B0F5407F10D123E063450DD1BB
:1055B000D0F8880010F4406009D0B0F5806F17D0A3
:1055C000B0F5006F12D0B0F5406F13D010205B4AD9
:1055D0005B4F00264FF40041634539D160B102288A
:1055E0000DD004280DD0082831D10EE00220EEE7BE
:1055F0000420ECE70820EAE7FDF7B4F803E01146E1
:1056000003E0FDF7D3F801007BD0606A37F8102083
:105610006768B1FBF2F007EB4703834269D8B0EB50
:10562000073F66D8002308461946FAF7F3FD09023A
:1056300041EA106102027808101871413A460023CD
:10564000FAF7E8FD3F4AA0F54071914257D950E082
:10565000E3694FF6EF788B422BD1092849D2DFE876
:1056600000F005080D48254848480E00FDF77AF877
:1056700001E0FDF789F8010001D142E01146606ABE
:1056800037F81000B1FBF0F04100606801EB500109
:10569000B1FBF0F1A1F1100040452AD84FF6F072AD
:1056A00001EA0200C1F34201084328E0FDF77EF859
:1056B000E1E709281DD2DFE800F005080D1C1E1CDB
:1056C0001C1C0E00FDF74EF801E0FDF75DF801002F
:1056D00001D116E01146606A37F81000B1FBF0F115
:1056E000606801EB5001B1FBF0F0A0F11001414501
:1056F00004D9012505E0FDF759F8E8E780B22168F3
:10570000C8600120A4F86A0024F8680F2846E66003
:105710002661BDE8F081000000800040F369FFCF02
:10572000FFF4FF1100380140001002400044004027
:1057300000480040004C0040005000400024F400AD
:10574000E0680008FFFC0F002DE9F0479946174676
:105750000D4604464FF00008089E33E0701C31D01F
:10576000FCF794FCA0EB0900B04218D8BEB1206849
:105770000168490726D5802D24D0402D22D0C1694B
:10578000C94309070DD4082505622046FFF766FEC8
:10579000C4F8905084F884800120BDE8F08703208D
:1057A000FBE7C069C04300050CD421684FF40060DA
:1057B00008622046FFF752FE2020C4F8900084F8CB
:1057C0008480ECE72068C06935EA000004D000203E
:1057D000B842C3D00020E0E70120F9E70148FEF716
:1057E000D9B80000E4070020FEE7000008B1042853
:1057F00001D9082070470249084410F8010C70478D
:105800009100002010B5012806D0022806D00328F8
:1058100007D0042811D107E0094807E008482C30D8
:1058200004E00748583001E00548843028B100F012
:1058300073FE002801DD012010BD002010BD000016
:105840007808002010B500240120FFF7DBFF00B12D
:1058500001240220FFF7D6FF08B144F00204032020
:10586000FFF7D0FF08B144F004040420FFF7CAFF9B
:1058700008B144F00804204610BD10B5FAF77EFECA
:105880000446FAF7E3FF0123224618210020FAF725
:10589000A4FE0020FAF706FE024604233021002071
:1058A000FAF79BFE0120FAF7FDFD0246042348218A
:1058B0000020FAF792FE0220FAF7F4FD02460423D4
:1058C00060210020FAF789FE0320FAF7EBFD02467B
:1058D000042378210020FAF780FEFFF7B3FF024689
:1058E000022318216020FAF778FE0120FFF78AFFD3
:1058F0000246012330216020FAF76FFE0220FFF7F5
:1059000081FF0246012348216020FAF766FE03204A
:10591000FFF778FF0246602101230846FAF75DFE93
:105920000420FFF76FFF0246012378216020FAF779
:1059300054FE0120FFF75AFF024601233021902038
:10594000FAF74BFE0220FFF751FF024601234821E0
:105950009020FAF742FE0320FFF748FF024601239A
:1059600060219020FAF739FE0420FFF73FFF02463E
:1059700001237821BDE810409020FAF72EBE0000E8
:1059800010B52E4C2E492DED068B94ED010A10EE2C
:10599000100A884205DADFED2B0A30EE200A84ED8A
:1059A000010A294994EC020A30EE200A10EE100A8E
:1059B00084ED000A884205DDDFED240A30EE600A3E
:1059C00084ED000A00F0A8FA9FED218ADFED210A9C
:1059D00060EE088A94ED000A30EE600A00F09CFA4E
:1059E00020EE089A94ED000ADFED1B0A30EE600A03
:1059F00000F092FA60EE089AFAF742FDB0EE40AA83
:105A0000FAF744FDB0EE408AFAF746FDB0EE401AD0
:105A1000D4ED001AF0EE480AB0EE4A0AFAF7BEFEDC
:105A2000FAF71CFF31EE291A70EE890A30EE280AC7
:105A3000BDEC068BBDE81040FAF7F8BD80000020F1
:105A4000A69BC43BBD370635DB0FC940DB0FC94001
:105A500000005C42920A0640920A864005489FED8B
:105A6000040A80ED000A9FED040A80ED010A7047E8
:105A70000000000080000020A69BC43A10B5FAF791
:105A80002DFD002803D1BDE81040FAF711BE10BD6E
:105A900010B5134CA8212046FAF706FC032020611C
:105AA000606110A0A06104F1A800E0614FF4806083
:105AB00020620020A0626062E0620AA1216604F513
:105AC000956161661021A1662067E06660670849FC
:105AD000C0F10F028A5C2254401C1028F8D310BD7C
