:020000040800F2
:1000000070050020F1010008231E0008F11B000804
:10001000211E0008FD020008F9230008000000006E
:10002000000000000000000000000000271E000883
:100030007103000800000000251E0008291E0008AA
:100040000B0200080B0200080B0200080B0200085C
:100050000B0200080B0200080B0200080B0200084C
:100060000B0200080B0200080B0200080103000845
:100070000B0200080B0200080B0200080B0200082C
:100080000B0200080B0200080B0200080B0200081C
:100090000B0200080B0200080B0200080B0200080C
:1000A0000B0200080B0200080B0200080B020008FC
:1000B0000B0200080B0200080B0200080B020008EC
:1000C0000B0200080B0200080B0200080B020008DC
:1000D0000B0200080B0200080B020008ED230008C9
:1000E0000B0200080B0200080B0200080B020008BC
:1000F0000B0200080B0200080B0200080B020008AC
:100100000B0200080B0200080B0200080B0200089B
:100110000B0200080B0200080B0200080B0200088B
:100120000B0200080B0200080B0200080B0200087B
:100130000B0200080B0200080B0200080B0200086B
:100140000B0200080B0200080B0200080B0200085B
:100150000B0200080B0200080B0200080B0200084B
:100160000B0200080B0200080B0200080B0200083B
:100170000B0200080B0200080B0200080B0200082B
:100180000B0200080B0200080B0200080B0200081B
:100190000B020008000000000B0200080B02000820
:1001A0000B0200080B0200080B0200080B020008FB
:1001B0000B0200080B0200080B0200080B020008EB
:1001C0000B0200080B0200080B0200080B020008DB
:1001D0000B0200080B020008DFF810D000F07CF8DA
:1001E000004800478D240008AFF300807005002010
:1001F0000648804706480047FEE7FEE7FEE7FEE7C1
:10020000FEE7FEE7FEE7FEE7FEE7FEE7951E0008D5
:10021000D90100082DE9F05F0546002092469B4673
:1002200088460646814640241BE02846414647460C
:10023000224600F041F853465A46C01A914110D365
:1002400011461846224600F028F82D1A67EB0108DF
:100250004F4622460120002100F01FF817EB00094D
:100260004E41201EA4F10104DFDC484631462A46F7
:100270004346BDE8F09FD2B201E000F8012B491ED1
:10028000FBD270470022F6E710B513460A46044633
:100290001946FFF7F0FF204610BD202A04DB203A64
:1002A00000FA02F1002070479140C2F1200320FAC9
:1002B00003F3194390407047202A04DB203A21FAC7
:1002C00002F00021704721FA02F3D040C2F120026F
:1002D0009140084319467047064C074D06E0E06818
:1002E00040F0010394E8070098471034AC42F6D37D
:1002F000FFF776FF2025000840250008FEE70000F4
:10030000014800F0A9B80000780000200D490268FB
:100310008A4201D20C4901E00B492031D2B21423A8
:10032000083AB2FBF3F2436C02F01F0223F003031E
:100330001944816404498031C164012191400165FF
:100340007047000008040240000802400179074A93
:1003500002EB81024265054A4432491E826501F082
:100360001F0201219140C16570470000FC08024056
:10037000704772B6FEE710B590F8253000210122D3
:10038000022B03D00421C163012122E003681C6811
:1003900024F00E041C60836C1C6824F480741C60C0
:1003A00003681C6824F001041C6090F84430046C5D
:1003B00003F01F0302FA03F36360D0E913345C60B7
:1003C000436D33B11C6824F480741C60D0E916348A
:1003D0005C6080F82520002280F82420084610BDAB
:1003E00070B590F82520002401212346022A07D069
:1003F0000422C26380F8251080F82430012429E00B
:100400000268156825F00E0515600268156825F06C
:1004100001051560826C156825F48075156090F8EB
:100420004420056C02F01F0201FA02F26A60D0E972
:1004300013255560426D32B1156825F4807515603D
:10044000D0E91625556080F8251080F82430816B9E
:1004500001B18847204670BDF0B4016C0C6801689A
:100460000D6890F8442002F01F06042202FA06F3F9
:10047000234211D06B070FD50B689B0603D40B6882
:1004800023F004030B6090F8441001F01F018A4030
:10049000016C4A60016B1DE0022303FA06F7274254
:1004A0004FF0000C4FF0010218D0AF0716D50C68C2
:1004B000A40605D40C6824F00A040C6080F82520FA
:1004C00090F8441001F01F018B40016C4B6080F8E4
:1004D00024C0C16A00291AD0F0BC08470823B340E1
:1004E000234214D02B0712D50B6823F00E030B60A8
:1004F00090F84410036C01F01F0102FA01F15960F9
:10050000C26380F8252080F824C0416BE2E7F0BC8C
:100510007047000070B504000CD02B4A21681420ED
:10052000914209D2294A0A44B2FBF0F0800060648B
:1005300027480AE0012070BD234A52420A44B2FB18
:10054000F0F080006064204808382064022084F8BD
:1005500025000A6847F6F0708243D4E90203184385
:10056000D4E904352B431843A3691843E3691843BE
:10057000236A1843104308602046FFF7C7FEA068AF
:100580000025B0F5804F00D16560A16C207908602E
:10059000D4E9130141606068401E032808D8204652
:1005A000FFF7D4FE606D0560D4E91601416002E0FA
:1005B0006565A565E565E563012084F8250084F897
:1005C0002450002070BD000008040240F8FFFDBF69
:1005D0000000024070B5044600F038F90546601C82
:1005E00002D004484068044400F030F9401BA042A7
:1005F000FAD370BD000000202DE9F04FDFF8209203
:10060000002301260324A9F1040B85B00F2709F16B
:10061000040AABF1040EFAE006FA03F52A407CD096
:1006200091F804C00CF0030CBCF1010F02D0BCF136
:10063000020F26D1D0F808C0CDF800C04FEA430C15
:1006400004FA0CF8CDF810C0DDF800C02CEA080C54
:10065000CDF800C0D1F80C80DDF810C008FA0CF815
:10066000DDF800C048EA0C08C0F80880D0F804C0E3
:100670002CEA050C0D79C5F300159D4045EA0C05E3
:1006800045600D79ED43AD070ED0C5684FEA4308CC
:1006900004FA08FC25EA0C05D1F808C00CFA08FC9D
:1006A0004CEA050CC0F80CC00D7905F00305022DCD
:1006B00016D1DD0800EB850CCDF808C0DCF82080F1
:1006C0005D074FEAD56C07FA0CF528EA05080D69B5
:1006D00005FA0CF5DDF808C045EA0805CCF820500D
:1006E00005684FEA430CCDF808C004FA0CFC25EA73
:1006F0000C0591F804C00CF00308DDF808C008FAF6
:100700000CF848EA0508C0F800804D6815F4403F31
:100710007CD0444DD5F860C000E077E04CF0010C8F
:10072000C5F860C02D6E23F0030C05F0010500959F
:100730003D4D65440295AD684FEA837C4FEA1C78D5
:1007400007FA08FC25EA0C05B0F1904F06D0DFF857
:10075000DCC0604505D14FF0010C20E04FF0000CEB
:100760001DE0DFF8CCC0604502D14FF0020C16E06E
:10077000DFF8C0C0604502D14FF0030C0FE0DFF896
:10078000B8C0604502D14FF0040C08E0DFF8ACC0FF
:10079000604502D14FF0050C01E04FF0060C0CFA59
:1007A00008FC4CEA050C029DC5F808C0D9F80050B9
:1007B000CC46D1F8048095435FEAC82800D515439C
:1007C000CCF80050DAF80050D446D1F804809543B4
:1007D0005FEA882800D51543CCF80050DBF80050BC
:1007E000DC46D1F8048095435FEA883800D515438C
:1007F000CCF80050DEF80050F446D1F80480954360
:100800005FEAC83800D51543CCF800505B1C0A6875
:1008100032FA03F57FF400AF05B0BDE8F08F0000B9
:10082000080401400010024000000140000400489C
:1008300000080048000C0048001000480014004860
:100840000AB1816170478162704700000148806889
:10085000704700000000002002488168426811448F
:10086000816070470000002010B50024032000F0D4
:1008700073F80F2000F008F808B1012401E000F03F
:1008800025F8204610BD000070B50E4E0546002428
:10089000706898B14FF47A71B1FBF0F00A490968B9
:1008A000B1FBF0F000F0BCFE40B9102D06D20022E2
:1008B0002946501E00F030F8356000E00124204643
:1008C00070BD0000000000200C0000200A4882B02B
:1008D000016E41F001010166016E01F0010100911C
:1008E000816D41F080518165806D00F080500090F5
:1008F00002B000F0A1B8000000100240002809DB9F
:1009000000F01F02012191404009800000F1E02029
:10091000C0F8001170470000F0B40E4B1B680C4685
:10092000C3F30223C3F10705042D00D90425191DC3
:10093000072901D2002300E0DB1E012606FA05F19B
:10094000491E214099409E40761E16403143F0BC1E
:1009500001F05CBD0CED00E0064900F007020868FC
:100960004FF6FF03184040EA0220034A1043086094
:10097000704700000CED00E00000FA052B492C4BFD
:100980000A6832214A432B4940B1B0F5007F08681C
:1009900029D020F4C06040F480602CE00868C0F3E7
:1009A0004120022804D051F8800F20F4807022E00A
:1009B000D1F8800020F48070C1F88000086820F42D
:1009C000C06040F400700860B2FBF3F0401C00E02F
:1009D000401E4A69520501D50028F9D148694005F1
:1009E0000AD503207047C0F34120022806D051F8F1
:1009F000800F40F48070086000207047D1F88000BC
:100A000040F48070C1F88000086820F4C06040F4B1
:100A100000700860B2FBF3F0401C00E0401E4A6921
:100A20005205DBD50028F9D1D8E700000C000020E2
:100A300040420F00007000400248816841F480414C
:100A400081607047007000402DE9F843044600685B
:100A50000026BB4D00035ED5A86D0027C00008D45A
:100A6000A86D40F08050A865A86D012700F0805067
:100A70000090DFF8D092D9F8001041F48071C9F8E5
:100A80000010FFF7E3FE804606E000BFFFF7DEFE42
:100A9000A0EB080002282BD8D9F80000C005F5D536
:100AA000D5F8900010F4407014D0216D814211D01F
:100AB000D5F89000D5F8901020F4407041F48031C2
:100AC000C5F89010D5F8901021F48031C5F8901039
:100AD000C5F89000C00711D0FFF7B8FE804641F27C
:100AE000883907E0FFF7B2FEA0EB0801494501D9BC
:100AF00003260BE0D5F890008007F3D5D5F89000D9
:100B0000216D20F440700843C5F890001FB1A86D16
:100B100020F08050A8652078C00707D0D5F888005D
:100B2000616820F003000843C5F88800207880073A
:100B300007D5D5F88800A16820F00C000843C5F857
:100B400088002078400707D5D5F88800E16820F0B4
:100B500030000843C5F888002078000707D5D5F88D
:100B60008800216920F0C0000843C5F8880020787B
:100B7000C00607D5D5F88800616920F440700843A5
:100B8000C5F888002078800607D5D5F88800A169C7
:100B900020F440600843C5F888002078400607D557
:100BA000D5F88800E16920F440500843C5F8880072
:100BB0002078000607D5D5F88800216A20F4404047
:100BC0000843C5F888002088C00507D5D5F88800F7
:100BD000616A20F440300843C5F88800206880032B
:100BE00007D5D5F89C00A16A20F003000843C5F89A
:100BF0009C002088800507D5D5F88800E16A20F49C
:100C000040200843C5F88800208840050FD5D5F856
:100C10008800216B20F440100843C5F88800206B41
:100C2000B0F5801F03D1E86840F48010E8602088A8
:100C300000050FD5D5F88800616B20F4400008430B
:100C4000C5F88800606BB0F5800F03D1E86840F408
:100C50008010E8602088C0040FD5D5F88800A16B0B
:100C600020F040700843C5F88800A06BB0F1807F89
:100C700003D1E86840F48010E86020884FF00061FC
:100C800080040ED5D5F88800E26B20F04060104358
:100C9000C5F88800E06B884203D1E86840F4801012
:100CA000E860208840040ED5D5F88800226C20F03A
:100CB00040601043C5F88800206C884203D1E86882
:100CC00040F48010E860208800040FD5D5F8880033
:100CD000616C20F040500843C5F88800606CB0F1AA
:100CE000805F03D1E86840F48030E8602068C0038A
:100CF0000FD5D5F88800A16C20F040400843C5F816
:100D00008800A06CB0F1804F03D1E86840F48030D7
:100D1000E860206840030FD5D5F89C00E16C20F412
:100D200040100843C5F89C00E06CB0F5001F03D1EB
:100D3000E86840F48010E8603046BDE8F8830000C1
:100D400000100240007000402DE9F0470E460500FB
:100D50004FF0000725D0DFF8AC81D8F8000000F094
:100D60000F00B0420CD2D8F8001021F00F0131432F
:100D7000C8F80010D8F8000000F00F00B04210D101
:100D80002968614CC80741F2883A5AD06868DFF890
:100D90007C91032808D0022820682DD04005002827
:100DA0002CDB0120BDE8F08720688001F9D5E068E0
:100DB00000F00302E068C0F30310401C032A19D0BE
:100DC000534A00BFB2FBF0F0E268C2F30622504380
:100DD000E268C2F34162521C5200B0FBF2F0484597
:100DE00017D9A06810F0F00F0CD0880711D5A868AB
:100DF00040B10EE0474AE5E78003D0E700F012F982
:100E0000484506D9A06820F0F00040F08000A060BE
:100E10008027A068696820F003000843A060FFF7FE
:100E200015FD814606E000BFFFF710FDA0EB0901AC
:100E300051453AD8A068696800F00C00B0EB810F0A
:100E4000F2D12868810714D5400703D5A06840F483
:100E5000E060A0602878000705D5A06820F4605005
:100E600040F4E060A060A068A96820F0F0000843AA
:100E700004E0802F03D1A06820F0F000A060D8F833
:100E80000010404601F00F01B14216D9016821F06F
:100E90000F0131430160FFF7D9FC074607E000BFAF
:100EA000FFF7D4FCC11B514501D903207AE7D8F8DC
:100EB000000000F00F00B042F2D12878400705D5BD
:100EC000A068E96820F4E0600843A0602878000783
:100ED00006D5A068296920F4605040EAC100A060EE
:100EE00000F0A0F8A1680C4AC1F30311515C01F0B5
:100EF0001F01C8400949086009480068BDE8F0477B
:100F0000FFF7C2BC002002400010024000B4C4043D
:100F10000024F40040787D01082500080C00002022
:100F20000000002070B5FFF791FC284C05462068B2
:100F300040F48070206004E0FFF788FC401B02282A
:100F40002FD820684005F7D5606840F08040606089
:100F5000FFF77CFC05460120A06041F2883604E0E2
:100F6000FFF774FC401BB0421BD8A068C0F381009F
:100F70000128F5D117491648086017480068FFF79F
:100F800083FC08B1012070BD4FF4807020602060A8
:100F9000FFF75CFC054606E0FFF758FC401B022803
:100FA00001D9032070BD20688001F5D44FF4805032
:100FB000E0600020A061401E2062D4F8940040F45C
:100FC0000000C4F89400002070BD00000010024032
:100FD0000024F4000C000020000000200548064911
:100FE00000688968054AC1F30221515C01F01F01C4
:100FF000C84070470C00002000100240182500086F
:101000000548064900688968054AC1F3C221515C58
:1010100001F01F01C84070470C0000200010024082
:1010200018250008184910B58868C0F381021748D0
:10103000012A0BD08A68164BC2F38102022A06D01D
:101040008A68C2F38102032A03D0002010BD18462B
:1010500010BDCA6802F00304CA68C2F30312521C2E
:10106000032C02D0B0FBF2F001E0B3FBF2F0CA684F
:10107000C968C2F306225043C1F34161491C4900CB
:10108000B0FBF1F010BD0000001002400024F4009D
:1010900040787D012DE9F84304007AD02078F84D9E
:1010A000C00747D0A868E96800F00C0001F0030110
:1010B0000C2802D0082817D001E0032914D060685A
:1010C000B0F5803F17D0B0F5A02F286817D020F4D6
:1010D00080302860286820F4802028606068E0B1B3
:1010E000FFF7B4FB064614E02868800322D5606849
:1010F0000028D2D01EE0286840F48030EDE740F4AC
:1011000080202860F7E700BFFFF7A0FB801B642862
:1011100070D828688003F7D50CE0FFF797FB0646E8
:1011200005E000BFFFF792FB801B6428F0D8286819
:101130008003F7D4207880074CD5A868E96800F0D0
:101140000C0001F003010C2802D004280DD001E0AE
:1011500002290AD0E068002828682BD040F480706B
:101160002860FFF773FB064619E02868400502D5A2
:10117000E068002891D06868217C20F0FE4040EAB9
:1011800001606860BF480068FFF77EFB002800D15F
:1011900020E072E1FFF75AFB801B0228B8D82868CC
:1011A0004005F7D56868217C20F0FE4040EA0160E8
:1011B00068600FE020F480702860FFF747FB064668
:1011C00005E000BFFFF742FB801B0228A0D828687B
:1011D0004005F7D42078000729D560690028D5F8A4
:1011E000940013D040F00100C5F89400FFF72EFBE7
:1011F000064606E090E000BFFFF728FB801B0228B0
:1012000086D8D5F894008007F6D510E020F00100CC
:10121000C5F89400FFF71AFB064604E0FFF716FB3B
:10122000801B022878D8D5F894008007F6D420785F
:10123000400761D5A86D0026C00008D4A86D40F015
:101240008050A865A86D012600F0805000908E485F
:101250000168C90511D40168804641F480710160BC
:10126000FFF7F4FA074604E0FFF7F0FAC01B022884
:1012700052D8D8F80000C005F6D5A068012815D0CE
:101280000528D5F8900016D020F00100C5F8900090
:10129000D5F8900020F00400C5F89000A06841F255
:1012A0008838B8B1FFF7D2FA07460EE0D5F89000BB
:1012B00040F00100F0E740F00400C5F89000F5E7C9
:1012C000FFF7C4FAC11B414526D8D5F89000800726
:1012D000F6D50CE0FFF7BAFA074604E0FFF7B6FAD6
:1012E000C11B414518D8D5F890008007F6D41EB12F
:1012F000A86D20F08050A8652078800629D5A069C7
:101300000028D5F8980013D040F00100C5F89800E7
:10131000FFF79CFA064606E075E000BFFFF796FA75
:10132000801B02286FD8D5F898008007F6D510E00A
:1013300020F00100C5F89800FFF788FA064604E09F
:10134000FFF784FA801B02285DD8D5F89800800743
:10135000F6D4E069F0B3A968C1F3810103295DD037
:101360000228286820F08070286003D0FFF76EFA0A
:1013700004464BE0FFF76AFA064604E0FFF766FA18
:10138000801B02283FD828688001F7D4F4E90801BF
:101390006FF00F0202EB01110843218A5204490841
:1013A00002EB4151A26841EA02210843217D4FF03E
:1013B0007E42490802EB41610843217B40EAC1605B
:1013C000E968324A11400843E860286840F08070BC
:1013D000286000E05EE0E86840F08070E860FFF7B9
:1013E00035FA044605E000BFFFF730FA001B02287B
:1013F00009D828688001F7D54CE000BFFFF726FA2E
:10140000001B022802D90320BDE8F8832868800168
:10141000F4D4E8681E490840E8603BE00128F3D0B6
:10142000E868226A00F00301914226D1616A00F067
:10143000F0020901103991421FD1A26A00F4FE4165
:10144000B1EB022F19D194F82C2000F07841B1EBC8
:10145000C26F12D1218E00F4C00249084905A1F5DE
:101460000011914209D194F8341000F0C06049088D
:101470004906A1F1007181420CD00120C4E70000AF
:101480000010024000000020007000400C809F010E
:10149000FCFFEEFE0020B7E770B5040009D0606ADB
:1014A000002540B125616561A56294F85D0040B1F9
:1014B0000CE0012070BD6068B0F5827FF4D0E5617A
:1014C000F2E784F85C50204600F05CF8022084F8D3
:1014D0005D002068016821F040010160E1684FF47F
:1014E000E062914201D9002001E04FF48050B1F553
:1014F000706F02D0914200D0A562A188228901F4C8
:10150000827102F404421143227C02F00202114370
:10151000227D02F001021143228B02F4007211437A
:10152000227F02F03802114394F8202002F080025A
:101530001143228D02F40052114322681160A16907
:10154000042202EA114194F8242000F4805002F0B1
:101550001002114394F8342002F008021143A289CA
:1015600002F4706211430143206841602068C16940
:1015700021F40061C1612566012084F85D0000202E
:1015800070BD000070B586B0064614216846FEF7AF
:1015900079FE1E493068884235D11D49886D40F476
:1015A00000408865886D00F400400590C86C40F0EC
:1015B0000400C864C86C002500F0040005904FF4D6
:1015C000A05000900220CDE901050620CDE903508E
:1015D00069461048FFF710F8104C0F4820600F20A4
:1015E00060601020C4E902058020C4E904054001C0
:1015F000A561C4E907502046FEF78CFF08B1FEF74D
:10160000B8FE7465A66206B070BD0000003C0040E4
:101610000010024000080048080002407800002046
:1016200010B5401EB0F1807F01D3012010BD4FF0F6
:10163000E02460610F21601700F0E8FE0020A06147
:1016400007202061002010BD90F88410012918D0D7
:10165000012180F884102421C0F8881001680A68EC
:101660000B6823F001030B6022F000510022426658
:10167000036819602021C0F8881080F88420104683
:101680007047022070477047704770B5044690F865
:10169000840001281DD0012084F884002420C4F88F
:1016A000880020680568026822F001020260206854
:1016B000826822F060620A438260204600F0F2FBFA
:1016C000206805602020C4F88800002084F8840089
:1016D00070BD022070BD70B5044690F884000128EA
:1016E0001DD0012084F884002420C4F888002068DC
:1016F0000568026822F0010202602068826822F018
:1017000060420A438260204600F0CCFB20680560FE
:101710002020C4F88800002084F8840070BD0220D6
:1017200070BD7047704770472DE9F041036804466B
:10173000D86919689A6840F60F0528424FF00005ED
:101740004FF002060AD187067ED501F0200702F08D
:10175000805C57EA0C0777D0616F42E1B64FDFF843
:10176000DCC2174001EA0C0C57EA0C0C6CD05FEAA3
:10177000C07C0CD05FEAC15C09D54FF0010CC3F806
:1017800020C0D4F8903043F00103C4F890308307B0
:1017900009D5D30707D023681E62D4F8903043F0F0
:1017A0000403C4F8903043070AD5D30708D026684D
:1017B00004233362D4F8903043F00203C4F890302D
:1017C00003070CD501F020033B4308D0266808230B
:1017D0003362D4F8903043F00803C4F89030030526
:1017E0000BD54B0109D526684FF400633362D4F85A
:1017F000903043F02003C4F89030D4F89030002BA0
:101800003DD0800609D501F0200002F08051084348
:1018100003D0616F09B120468847D4F89000216851
:101820008968490602D410F0280F2AD0204600F01B
:101830001DFC2068806840061ED52068083050E8EE
:10184000001F21F0400100E021E040E80012002AE2
:10185000F3D1D4F8800078B179498163D4F880005D
:10186000FEF7BEFD00280AD0D4F88000816B00E0AE
:101870002046BDE8F04108472046FFF754FFBDE889
:10188000F0812046FFF74FFFC4F89050F7E7D4F8F7
:101890006CC02027BCF1010F7ED15FEAC06C7BD504
:1018A0005FEAC16C78D51020186220688068400615
:1018B00051D5D4F880100A6850680004000C3ED05E
:1018C000B4F85C3083423AD9A4F85E000868006836
:1018D00080062CD4216851E8000F20F4807041E884
:1018E0000002002AF6D12068083050E8001F21F0DD
:1018F000010140E80012002AF5D12068083050E8C4
:10190000001F21F0400140E80012002AF5D1C4F880
:101910008C70E566216851E8000F20F0100041E866
:101920000002002AF6D1D4F88000FEF724FD2667D5
:10193000B4F85C00B4F85E10401A81B207E0B4F865
:101940005C1081429BD11068800698D5266720469E
:10195000FFF799FE93E7B4F85C00B4F85E10401A04
:1019600081B2B4F85E00002889D0002987D02268AF
:1019700052E8000F20F4907042E80003002BF6D1EB
:101980002D4BDB432068083050E8002F1A4040E818
:10199000002CBCF1000F00E00EE0F3D1C4F88C7015
:1019A000E5666567206850E8002F22F0100240E8E5
:1019B0000023002BF6D1C9E7C60209D5560207D588
:1019C0004FF4801018622046BDE8F041FFF7AABE30
:1019D00003060AD501F0800302F40002134304D089
:1019E000A16F00297FF444AF49E7420611D54A06AA
:1019F0000FD52046016851E8002F22F0400241E84F
:101A00000023002BF6D1C0F88870856700F0EFF84E
:101A100035E7020206D54A0004D52046BDE8F0416C
:101A2000FFF77FBEC00195D5002993DA2046BDE8B7
:101A3000F041FFF729BE0000010000102001000462
:101A40005D20000810B5040003D0D4F8880010B160
:101A500007E0012010BD002084F88400204600F03B
:101A600027F82420C4F888002068016821F00101CB
:101A70000160A06A10B1204600F036FA204600F05E
:101A80001FFB0128E6D02068416821F490414160A5
:101A90002068816821F02A0181602068016841F096
:101AA000010101602046BDE8104000F081BA00004D
:101AB00010B59CB00446142115A8FEF7E3FB542191
:101AC0006846FEF7DFFB1B49206888422FD10420BF
:101AD0000024009003946846FEF7B6FF08B1FEF7B5
:101AE00048FC1548816D41F480218165816D01F4C8
:101AF00080211A91C16C41F00201C164C06C15A92A
:101B000000F002001A904FF4406015900220CDE9D9
:101B100016040720CDE918400848FEF76DFD0022A5
:101B200011462720FEF7F8FE2720FEF7E7FE1CB03F
:101B300010BD0000004800400010024000040048B2
:101B40002DE9F8430446D0F88800984616460D461D
:101B5000202802D00220BDE8F883A5B19EB1002064
:101B6000C4F890002120C4F888001834FEF76EFEF7
:101B7000A6878146E68754F8100C2027183CB0F55C
:101B8000805F02D003E00120E5E7206910B12E4616
:101B9000002510E000260EE08021204600F0DCFB4E
:101BA000C0B9DEB116F8010B21688862B4F856009E
:101BB000401EA4F85600B4F856004B464FF0000201
:101BC000CDF800800028E7D14FF04001204600F01A
:101BD000C3FB40B1C4F888700320BCE735F8020BA2
:101BE000C0F30800E0E7C4F888700020B3E770474E
:101BF000FEE70000044672B6FFF794F94FF0E021CB
:101C00000020086148618861206880F308880248E4
:101C1000046060688047FEE708ED00E00D4808B505
:101C2000816C41F004018164816C01F00401009138
:101C3000816C41F001018164806C002200F00100A0
:101C4000009011460B20FEF767FEBDE808400B2010
:101C5000FEF754BE001002402DE9F04786B0142173
:101C60006846FEF70FFB3C48C16C41F00401C164BB
:101C7000C16C01F004010591C16C41F02001C16407
:101C8000C16C01F020010591C16C41F00201C164F9
:101C9000C16C01F002010591C16C41F00101C16408
:101CA000C16C01F001010591C16C41F00801C164F2
:101CB000C06C2A4F00F008004FF4684405900022E1
:101CC00021463846FEF7BCFD4FF400464FF09048E1
:101CD000002231464046FEF7B3FDDFF88490002233
:101CE00004214846FEF7ACFDDFF878A00022402131
:101CF0005046FEF7A5FD0125CDE9004500240294DC
:101D0000694638460394FEF777FC4FF47070CDE9CE
:101D10000004694638460294FEF76EFC0096CDE951
:101D20000154694640460394FEF766FC0420009087
:101D3000CDE90154694648460394FEF75DFC402016
:101D40000090CDE90154694650460394FEF754FCD7
:101D500006B0BDE8F087000000100240000800480F
:101D6000000C004800040048124810B510490160FA
:101D70004FF48271416000214FF4E062C0E9021229
:101D80000222C0E90421120282611022C0E9072167
:101D900007224162C0E90A12016308214163FFF78B
:101DA0007BFB002803D0BDE81040FEF7E2BA10BD6F
:101DB000003C004014000020184810B5164901608E
:101DC0004FF4E1314160002181600C22C160C0E923
:101DD00004128161C161016241628162FFF732FEDA
:101DE00008B1FEF7C6FA00210C48FFF774FC08B1F1
:101DF000FEF7BFFA00210948FFF747FC08B1FEF7DC
:101E0000B8FA0648FFF720FC002803D0BDE81040D0
:101E1000FEF7AFBA10BD000000480040D800002017
:101E2000FEE7FEE770477047FEF716BD10B594B0A9
:101E300038216846FEF726FA14210EA8FEF722FA8A
:101E40000020FEF79BFD01200090000403240521E3
:101E50000190CDE9084102204421CDE90A10079004
:101E60000C900D906846FFF715F908B172B6FEE7C1
:101E70000F20CDE90E040020109011901290042143
:101E80000EA8FEF761FF002801D072B6FEE714B07D
:101E900010BD00000248016841F470010160704704
:101EA00088ED00E030B5416EB9B102689168926882
:101EB000C1F342610B4B520F9C5CE50003F1080437
:101EC000A25CB5FBF2F2A0F86A205A5C615CD20019
:101ED000B2FBF1F1A0F8681030BD0121A0F86A1042
:101EE000F8E70000F824000890F82810090706D544
:101EF00001684A68836B22F400421A434A6090F8F2
:101F00002810C90706D001684A68C36A22F4003263
:101F10001A434A6090F82810890706D501684A6874
:101F2000036B22F480321A434A6090F82810490764
:101F300006D501684A68436B22F480221A434A603E
:101F400090F82810C90606D501688A68C36B22F488
:101F500080521A438A6090F82810890606D50168D5
:101F60008A68036C22F400521A438A6090F82810A1
:101F7000490611D501684A68436C22F480121A435D
:101F80004A60416CB1F5801F06D101684A68836CD4
:101F900022F4C0021A434A6090F82810090606D5B8
:101FA00001684A68C06C22F4002202434A6070470C
:101FB0002DE9F84300260446C0F89060FEF746FC81
:101FC0008046206800684FF0200500076FF07E47CC
:101FD00013D54346002229042046009700F0BCF99F
:101FE00058B1216851E8000F20F0800041E800025C
:101FF000002AF6D1C4F8885021E020680068400724
:1020000022D5434600224FF480012046009700F07D
:10201000A3F9C8B1216851E8000F20F4907041E89D
:102020000002002AF6D12068083050E8001F21F095
:10203000010140E80012002AF5D1C4F88C5084F860
:1020400084600320BDE8F883C4F88850C4F88C503D
:1020500044F86C6F666026760020F3E710B5806A5E
:102060000021A0F85E10FFF75EFB10BD10B50268FE
:1020700052E8001F21F4907142E80013002BF6D1C2
:102080000E4B0268083252E8001F194042E8001463
:10209000002CF6D1C16E012908D1016851E8002F4A
:1020A00022F0100241E80023002BF6D12021C0F8D5
:1020B0008C100021C166416710BD0000FEFFFFEFDC
:1020C0002DE9F0410446016880682269E369104304
:1020D000626900251A431043DFF84CC20A68934B2B
:1020E0001A4002430A6020684168E26821F44051C6
:1020F000114341602168A069614501D0226A104303
:102100008A688B4B1A4002438A602068C16A626AFF
:1021100021F00F011143C1628649236886488B4232
:102120000DD1D0F8880010F0030006D0012867D048
:10213000022854D0032851D164E001204FE07F49A8
:102140008B420BD1D0F8880010F00C0047D0042847
:1021500045D0082852D00C2840D153E078498B4212
:102160000BD1D0F8880010F0300038D0102847D0BC
:10217000202843D0302831D144E072498B420BD122
:10218000D0F8880010F0C00029D0402838D080282E
:1021900034D0C02822D135E06B498B420ED1D0F823
:1021A000880010F440701AD0B0F5807F28D0B0F5C8
:1021B000007F23D0B0F5407F10D123E063450DD1DF
:1021C000D0F8880010F4406009D0B0F5806F17D0C7
:1021D000B0F5006F12D0B0F5406F13D010205B4AFD
:1021E0005B4F00264FF40041634539D160B10228AE
:1021F0000DD004280DD0082831D10EE00220EEE7E2
:102200000420ECE70820EAE7FEF7E8FE03E01146C9
:1022100003E0FEF707FF01007BD0606A37F810206B
:102220006768B1FBF2F007EB4703834269D8B0EB74
:10223000073F66D8002308461946FDF7EBFF090261
:1022400041EA106102027808101871413A460023F1
:10225000FDF7E0FF3F4AA0F54071914257D950E0A9
:10226000E3694FF6EF788B422BD1092849D2DFE89A
:1022700000F005080D48254848480E00FEF7AEFE60
:1022800001E0FEF7BDFE010001D142E01146606AA7
:1022900037F81000B1FBF0F04100606801EB50012D
:1022A000B1FBF0F1A1F1100040452AD84FF6F072D1
:1022B00001EA0200C1F34201084328E0FEF7B2FE42
:1022C000E1E709281DD2DFE800F005080D1C1E1CFF
:1022D0001C1C0E00FEF782FE01E0FEF791FE0100DD
:1022E00001D116E01146606A37F81000B1FBF0F139
:1022F000606801EB5001B1FBF0F0A0F11001414525
:1023000004D9012505E0FEF78DFEE8E780B22168DB
:10231000C8600120A4F86A0024F8680F2846E66027
:102320002661BDE8F081000000800040F369FFCF26
:10233000FFF4FF110038014000100240004400404B
:1023400000480040004C0040005000400024F400D1
:10235000E0240008FFFC0F002DE9F04799461746DE
:102360000D4604464FF00008089E33E0701C31D043
:10237000FEF76CFAA0EB0900B04218D8BEB1206895
:102380000168490726D5802D24D0402D22D0C1696F
:10239000C94309070DD4082505622046FFF766FEEC
:1023A000C4F8905084F884800120BDE8F0870320B1
:1023B000FBE7C069C04300050CD421684FF40060FE
:1023C00008622046FFF752FE2020C4F8900084F8EF
:1023D0008480ECE72068C06935EA000004D0002062
:1023E000B842C3D00020E0E70120F9E70148FFF739
:1023F0009BB90000D8000020FEE70000014A024916
:1024000000F023B86D240008100000200907090E11
:10241000002804DB00F1E02080F80014704700F091
:102420000F0000F1E02080F8141D704702E008C89A
:10243000121F08C1002AFAD170477047002001E03E
:1024400001C1121F002AFBD170472DE9F041164649
:102450000F460446002503E03946B047641C6D1C56
:1024600020780028F8D12846BDE8F08138B5044628
:102470008DF800004FF6FF73012269460248FFF70E
:102480005FFB204638BD0000D8000020FEF7ECF9C5
:1024900062B6FFF7CBFCFFF7DFFBFFF7BFFBFFF7F1
:1024A00063FCFFF789FC06A0FFF7A8FF07A0FFF772
:1024B000A5FF4FF47A70FEF78DF80848FFF79AFBF6
:1024C000496E20426F6F7420210A0000496E20423D
:1024D0006F6F74203131210A0000000000000108F4
:1024E000010002000400060008000A000C001000B1
:1024F00020004000800000010101010307010000ED
:1025000008040204080101010000000000000000AE
:102510000102030406070809000000000102030489
:102520004025000800000020140000002C240008B2
:1025300054250008140000205C0500003C2400081D
:102540001000000001000000000000000024F40062
:042550000000000087
:04000005080001D915
:00000001FF
