:020000040801F1
:1000000058080020F1010108DF4B010815420108E2
:10001000DD4B01082F0A0108115A010800000000F9
:10002000000000000000000000000000774F010801
:10003000A10A010800000000514D0108794F010894
:100040000B0201080B0201080B0201080B02010858
:100050000B0201080B0201080B0201080B02010848
:100060000B0201080B0201080B020108310A01080A
:100070000B0201080B0201080B0201080B02010828
:100080000B0201080B020108950701080B02010889
:100090000B0201080B0201080B0201080B02010808
:1000A0000B020108015001080B0201080B020108B4
:1000B0000B0201080B0201080B0201080B020108E8
:1000C0000B0201080B0201080B0201080B020108D8
:1000D0000B0201080B0201080B020108055A010876
:1000E0000B0201080B0201080B0201080B020108B8
:1000F0000B0201080B0201080B0201080B020108A8
:100100000B0201080B0201080B0201080B02010897
:100110000B0201080B0201080D50010819500108DB
:100120000B0201080B0201080B0201080B02010877
:100130000B0201080B0201080B0201080B02010867
:100140000B0201080B0201080B0201080B02010857
:100150000B0201080B0201080B0201080B02010847
:100160000B0201080B0201080B0201080B02010837
:100170000B0201080B0201080B0201080B02010827
:100180000B0201080B0201080B0201080B02010817
:100190000B020108000000000B0201080B0201081D
:1001A0000B0201080B0201080B0201080B020108F7
:1001B0000B0201080B0201080B0201080B020108E7
:1001C0000B0201080B0201080B0201080B020108D7
:1001D0000B0201080B020108DFF810D000F0C8FA8A
:1001E0000048004781610108AFF3008058080020F3
:1001F0000648804706480047FEE7FEE7FEE7FEE7C1
:10020000FEE7FEE7FEE7FEE7FEE7FEE7E54F010853
:10021000D90101082DE9F05F0546002092469B4672
:1002200088460646814640241BE02846414647460C
:10023000224600F0BEF953465A46C01A914110D3E7
:1002400011461846224600F0A5F92D1A67EB010861
:100250004F4622460120002100F09CF917EB0009CF
:100260004E41201EA4F10104DFDC484631462A46F7
:100270004346BDE8F09F40EA01039B0703D009E035
:1002800008C9121F08C0042AFAD203E011F8013B82
:1002900000F8013B521EF9D27047D2B201E000F8DB
:1002A000012B491EFBD270470022F6E710B513461A
:1002B0000A4604461946FFF7F0FF204610BD2DE917
:1002C000FE4F804681EA0300C00F0C46009021F0EB
:1002D000004123F00045B8EB0200A94105D2404699
:1002E000214690461C460B46024623F00040104330
:1002F00047D0270DC7F30A00C3F30A510290401AF2
:10030000019040286BDAC3F3130040F4801B00987F
:10031000924620B10023D2EB030A63EB0B0B01984A
:100320005946C0F14002504600F034F906460D46E9
:1003300050465946019A00F04CF910EB0800614113
:10034000002487EA115284EAE7731A4340D0009AE6
:1003500062B3019A012A4FEA075215DC001B61EBD8
:1003600002014FF0004202EA0752CDE90042001CB0
:1003700041F5801132462B4600F0ACF903B0BDE8E0
:10038000F08F40462146F9E7001B61EB0201001C9B
:1003900041F5801300185B412018A2F5001747EBC8
:1003A000030140EAD570B6196D4111E06D084FEABE
:1003B000360645EAC0754FEA0752001B61EB0201A1
:1003C000001C41F5801149084FEA300000195141E5
:1003D00032462B4603B0BDE8F04F00F06CB90098F0
:1003E000012240000023D0EB020263EBE07300988F
:1003F00021464FEAE074B8EB000061EB0401E9E745
:1004000083F000435BE781F0004158E72DE9FE4FA0
:1004100081EA030404F0004421F0004100944FF00D
:10042000000B23F0004350EA01045ED052EA0304BB
:100430005BD0C3F30A54C1F30A552C44A4F2F3343D
:100440000194A0FB0254C1F3130141F48011C3F3E2
:10045000130343F4801301FB024400FB034E840AA0
:10046000970A44EA815447EA8357A4FB0768029538
:100470008D0A05FB07854FEA932C04FB0C542705D6
:10048000029D4FEA065847EA1637B5EB08056EEBB2
:10049000070C870E920E47EA811742EA8312A7FBE8
:1004A0000201B6EB0B0164EB00042B0D43EA0C33A5
:1004B0005E1844EB1C50DA465146E7FB0201C5F3D7
:1004C00013044FEA0B3343EA14534FEA0432019CFE
:1004D00043EA0603A4F10C040294009CCDE900B4A5
:1004E00000F0F8F803B0BDE8F08F00200146F9E70E
:1004F0000EB540F2334102910021CDE900110A46C8
:100500000B4600F0E7F803B000BD00F0004230F009
:1005100000400AD0C10D01F56071C0F3160042EA37
:100520000151C2084007114370470020014670473F
:1005300001F0004330B421F0004150EA010206D03E
:100540000A0DA2F56072C1F31301002A02DC30BC6F
:1005500000207047440F44EAC104C100E01830BCD9
:1005600000EBC25000F047B830B50B460146002002
:100570002022012409E021FA02F59D4205D303FA65
:1005800002F5491B04FA02F52844151EA2F10102E6
:10059000F1DC30BD202A04DB203A00FA02F1002011
:1005A00070479140C2F1200320FA03F319439040B1
:1005B0007047202A04DB203A21FA02F0002170471C
:1005C00021FA02F3D040C2F12002914008431946BB
:1005D0007047202A06DBCB17203A41FA02F043EAA3
:1005E000E07306E041FA02F3D040C2F120029140EC
:1005F0000843194670470029A8BF7047401C4900AE
:1006000008BF20F00100704710B4B0FA80FC00FA77
:100610000CF050EA010404BF10BC704749B1CCF1A2
:10062000200421FA04F411FA0CF118BF012121432E
:100630000843A3EB0C01CB1D4FEA00614FEA1020E9
:1006400042BF002010BC704700EBC350104400298B
:10065000A4BF10BC7047401C490008BF20F0010037
:1006600010BC7047F0B400F0004221F0004120F0CF
:100670000040CE0DC30DC1F3160141F40001C0F3DB
:1006800016004C42154640F40000761E09E010EBBF
:10069000440002D582F0004240428842F7D8400030
:1006A0005B1EB342F9DA18B1F0BC0021FFF7ACBF12
:1006B0002846F0BC704710B5141E73F1000408DA28
:1006C000401C41F1000192185B411A4301D120F016
:1006D000010010BD2DE9F04D92469B4611B1B1FAD3
:1006E00081F202E0B0FA80F220329046FFF752FF2A
:1006F00004460F4640EA0A0041EA0B0153465A46B7
:10070000084313D0114653EA010019D0C8F1400242
:100710005046FFF74EFF05460E46504659464246A4
:10072000FFF738FF084305D0012004E02046394692
:10073000BDE8F08D0020054346EAE0762C433743C0
:100740000A986305E40AA0EB08000022FD0A44EAC7
:1007500047540A3002D500200146E9E70105101987
:100760006941DDE9084500196941BDE8F04DA2E79E
:10077000064C074D06E0E06840F0010394E80700EE
:1007800098471034AC42F6D3FFF72AFD24B2010893
:1007900044B2010810B5044800F0A2FFBDE81040C3
:1007A000024800F09DBF000080000020EC00002007
:1007B0002DE9F041044600270D46006803F020FFB4
:1007C0000646206803F014FF30435DD02068C168FE
:1007D0002E4E890105D5617F012902D1217F012992
:1007E0000BD0022D1DD0206803F00AFFB8B120689D
:1007F0008168C1F3400169B111E00125244902E09B
:100800008F4232D27F1C0268D2435206F8D4402174
:100810000160E8E78168314041F010018160012DFD
:1008200011D0206803F0E4FE48B120688168C1F36C
:10083000400121B98168314041F020018160022DE1
:1008400008D0032D04D0042501F0FCFD064617E076
:100850000C25F9E70825F7E701F0F4FD801B0528D2
:100860000ED92068806828420AD0E06D40F0100060
:10087000E065206E40F0010020660120BDE8F081B7
:10088000206880682842E7D10020F7E7C0FFFF7F9B
:10089000000040A370B50446006881688268C1F317
:1008A000400112F0010F28D039BB816801F00D0121
:1008B000012914D18168124A1140891C8160216884
:1008C0000320086001F0BEFD054612E001F0BAFD0C
:1008D000401B02280DD920688068C00709D0E06D50
:1008E00040F01000E065206E40F00100206601201D
:1008F00070BD20688068C007E8D1002070BD00008E
:10090000C0FFFF7FF8B50446002000902068816892
:1009100011F0010F4AD18168254A114237D181680F
:10092000D5432940491C81602068B0F1A04F02D016
:100930002049884201D1204800E02048806800F02A
:10094000E07000020DD51E481E490068B0FBF1F0B2
:10095000401C00EB4000800000E0401E009000289A
:10096000FBD101F06FFD06461BE0816811F0010F1D
:1009700003D181682940491C816001F063FD801B1F
:1009800002280ED920680068C043C00709D0E06D76
:1009900040F01000E065206E40F00100206601206C
:1009A000F8BD20680168C943C907DED10020F8BD41
:1009B0003F0000800001005000030050000700507D
:1009C00018000020400D03000FB4202110B588B09E
:1009D0006846259CFFF768FC0620CDE90040002012
:1009E0007F21CDE902010421CDE9041069460AA85E
:1009F00000F03AFC08B100F054F80AA801F0FCF944
:100A000008B100F04EF84FF0FF310AA801F054F998
:100A100008B100F046F80AA800F05EFE84B20AA809
:100A200001F086FA08B0204610BC5DF814FBFEE722
:100A3000014801F00DBB0000200200200D490268B2
:100A40008A4201D20C4901E00B492031D2B2142371
:100A5000083AB2FBF3F2436C02F01F0223F00303E7
:100A60001944816404498031C164012191400165C8
:100A70007047000008040240000802400179074A5C
:100A800002EB81024265054A4432491E826501F04B
:100A90001F0201219140C16570470000FC0802401F
:100AA000704772B6FEE7000010B501F0CBFC0549B7
:100AB0009FED050A086381ED0D0A81ED0E0A81EDB7
:100AC000020A10BD1C00002000000000704700005A
:100AD0002DE9F84F4FF000090446CDF800900D467F
:100AE00094F85820DFF8EC8361694F464846012AA4
:100AF0000AD00126F84A84F8586041B1296A0129D0
:100B000005D0A36EEBB129E00220BDE8F88F68683C
:100B1000092838D1A96A4FF4785041B12B6801F007
:100B20007C0100EA53400843E96A084302E029686F
:100B300000EA51402368D96C11400143D9646066D2
:100B400021E0C4E91971A96A286A31B101F07C0178
:100B5000401E0843E96A084300E0401E29682B79DB
:100B6000C1F3846103F01F0399400143A06E401E4E
:100B7000A066636E43EA0103636604D12168C86C12
:100B800010401843C864206803F036FD58B995F842
:100B9000250098B12068C16895F8262021F44011FD
:100BA00041EA4251C160206803F02EFD8246206870
:100BB00003F022FD5AEA00000DD0FCE095F8260073
:100BC00095F82410400540EA01512068C26822F4DB
:100BD00040121143E6E7A86A30B1E86A20B195F8FF
:100BE000250001285ED003E095F82500012804D0F7
:100BF0002068C16821F0007103E02068C16841F0FD
:100C00000071C16095F83000012852D02068016958
:100C100021F002010161AA6829682068B2F1004F41
:100C200038D003F00CFD2068416921F0004141619A
:100C300020686969C268C2F3C102520091402A6902
:100C4000042A45D000EB82002B68026EDFF88CC2CC
:100C500003F0F84302EA0C020B431A4342F000414E
:100C6000016620682A69A96900EB8200026E22F001
:100C700080720A430266297F22682869012924D0EC
:100C80005FF0000102EB8000026E22F000720A4366
:100C9000026690E0002203F0D2FC2068416941F036
:100CA0000041C4E7E06D40F02000E0654FF001092D
:100CB000A8E7D5E90D01084321680A6922F4FF720B
:100CC00042F0020210430861A5E74FF00071D9E736
:100CD000002103F087FC400320684FF0000172D030
:100CE00003F080FC90FAA0F0B0FA80F1286842038B
:100CF0006ED090FAA0F0B0FA80F0814204D10022C8
:100D00001146206803F0B2FC0121206803F06AFC60
:100D1000400320684FF001015DD003F063FC90FABE
:100D2000A0F0B0FA80F12868420359D090FAA0F000
:100D3000B0FA80F0814204D100220121206803F042
:100D400095FC0221206803F04DFC400320684FF021
:100D5000020148D003F046FC90FAA0F0B0FA80F10E
:100D60002868420344D090FAA0F0B0FA80F08142A3
:100D700004D100220221206803F078FC03212068BE
:100D800003F030FC400320684FF0030133D003F040
:100D900029FC90FAA0F0B0FA80F1286842032FD025
:100DA00090FAA0F0B0FA80F0814204D10022032131
:100DB000206803F05BFC2068816811F0010F22D0ED
:100DC000B5E000E004E003F00DFCC0F384618DE7C2
:100DD000C0F3846091E703F005FCC0F38461A2E7EF
:100DE000C0F38460A6E703F0FDFBC0F38461B7E7BE
:100DF000C0F38460BBE703F0F5FBC0F38461CCE78C
:100E0000C0F38460D0E72A7B296850F8B03FC1F373
:100E1000120C23EA0C0302F0180C314A22FA0CF2ED
:100E20000A4013430360E96841457DD128684103C6
:100E30001BD090FAA0F1B1FA81F1491C01F01F0119
:100E400009294FEA403131D8002911D090FAA0F198
:100E5000B1FA81F101F1010101F01F0106FA01F679
:100E600009D100BFC0F3846109E0C0F38461E4E705
:100E7000C0F38461EEE790FAA0F1B1FA81F101F1DB
:100E8000010101F01F0146EA816102D1C0F38460D3
:100E900003E090FAA0F0B0FA80F000F1010000F059
:100EA0001F0000EB400041EA00513AE000290ED05B
:100EB00090FAA0F1B1FA81F101F1010101F01F01F5
:100EC00006FA01F60ED100BFC0F384610EE0C0F354
:100ED0008461F1E700007F400040100400F0FF0350
:100EE000FFFF070090FAA0F1B1FA81F101F10101D1
:100EF00001F01F0146EA816102D1C0F3846003E082
:100F000090FAA0F0B0FA80F000F1010000F01F00AC
:100F10003A4A00EB400002EB005041EA000141F088
:100F20000071AA68206800E001E003F088FB344803
:100F30002B6803425ED022684FF0A04C3148324EFD
:100F4000324D624501D0AA4201D1014600E031464E
:100F50008968DFF8BC8001F0E071434503D0DFF819
:100F6000B480434520D15FEA01281DD4624505D0F5
:100F7000294B9A423ED1AA4200D0304641F40001AA
:100F8000826822F0E0720A438260244824490068A3
:100F9000B0FBF1F0801C00EB4000800000E0401E40
:100FA00000900028FBD125E0DFF8788043450FD181
:100FB0005FEAC1180CD4AA4202D11B4B9A4219D045
:100FC000624502D0AA4200D0304641F080710CE068
:100FD000DFF8588043450DD14B020BD4AA4209D00B
:100FE000624500D0304641F48001826822F0E07210
:100FF0000A43826084F85870484686E5000020FE67
:10100000000008800003005000070050000100505D
:10101000000021C31000C0900006005018000020FE
:10102000400D0300000052C700050050000084CBB3
:1010300070B5050047D02868B0F1A04F43D1092111
:10104000284600F047F8204CE16B0844E06340F28A
:101050000F11284600F03EF8216C0844206440F24D
:101060001521284600F036F8616C0844606440F2AF
:101070001B31284600F02EF8A16C4218A26420789B
:10108000401CC0B220700A281DD3E16B0A20B1FBBE
:10109000F0F30E490B60236CB3FBF0F34B60636C11
:1010A000B3FBF0F3B2FBF0F0C1E902300020E063E3
:1010B00020646064A0642070BDE870400122510388
:1010C000034801F0B9B970BD1C000020F8030020EE
:1010D000000800480068A1F580710F390ED0B1F505
:1010E000837F08D0B1F5037F02D0D0F8800070472D
:1010F000D0F88C007047D0F888007047D0F8840092
:1011000070477047704770472DE9F04F044690F8DC
:1011100058009BB00F464FF0000B012812D0012061
:1011200084F8580000261796189620684FF0A048BB
:10113000DFF81C91DFF81CA1474D404506D1284639
:10114000009508E002201BB0BDE8F08F48450AD1A9
:101150005046CDF800A003F057FA0090206803F045
:1011600053FA40B109E0E06D40F02000E06584F8FA
:1011700058600120E7E7009850B1E06D40F0200092
:10118000E0654FF0010B00BF84F858605846DAE77D
:1011900020684146884201D0A84201D12F4800E092
:1011A0002F48D7F800C02F4B40F61F72BCF1000F3C
:1011B0002DD0D0F808C094F838802CF4604C4CEA5C
:1011C000483CD7F804804CEA080CC0F808C0D4F8B2
:1011D00000C08C4501D0AC4504D18968AB6801F0F2
:1011E000010109E0D9F80810DAF8085001F001010E
:1011F00005F001059B68294303F001031943C3D19E
:10120000BB68396819438368934319431DE08768B5
:1012100027F46047876027688F4201D0AF4204D12E
:101220008968AB6801F0010109E0D9F80810DAF823
:10123000085001F0010105F001059B68294303F006
:1012400001031943A0D18168914381609CE70000AC
:101250000004005000050050000100500003005041
:1012600000070050000600502DE9F84F0027044603
:10127000009790F85800DFF81C840D46B946012805
:1012800011D0012684F85860206803F0B9F960B1E4
:10129000E06D40F02000E0655FF0010784F85890B1
:1012A0003846BDE8F88F0220FBE7D5E900210C2382
:1012B000206803EA91131844036B01F01F014FF0FB
:1012C0001F0C0CFA01FCC2F3846223EA0C038A406F
:1012D00013430363206803F093F98246206803F008
:1012E00087F95AEA00003CD1AA6829682068B2F15F
:1012F000004F37D003F094F92068416921F0004194
:10130000416120686969C268C2F3C102520091401C
:101310002A69042A31D000EB82002B68026EDFF8C4
:1013200078C303F0F84302EA0C020B431A4342F07D
:101330000041016622682869A96902EB8000026EFB
:1013400022F080720A430266297F226828690129F7
:1013500010D0002102EB8000026E22F000720A43DE
:1013600002667DE0002203F05BF92068416941F0EC
:101370000041C5E74FF00071ECE7002103F02CF9C4
:10138000400320684FF0000172D003F025F990FA75
:10139000A0F0B0FA80F1286842036ED090FAA0F075
:1013A000B0FA80F0814204D100221146206803F097
:1013B00055F90121206803F00FF9400320684FF030
:1013C00001015DD003F008F990FAA0F0B0FA80F1C5
:1013D0002868420359D090FAA0F0B0FA80F0814218
:1013E00004D100220121206803F038F9022120688D
:1013F00003F0F2F8400320684FF0020148D003F0F8
:10140000EBF890FAA0F0B0FA80F12868420344D0DB
:1014100090FAA0F0B0FA80F0814204D100220221BB
:10142000206803F01BF90321206803F0D5F840037E
:1014300020684FF0030133D003F0CEF890FAA0F00B
:10144000B0FA80F1286842032FD090FAA0F0B0FAE9
:1014500080F0814204D100220321206803F0FEF8CD
:101460002068816811F0010F22D0ACE000E004E0B8
:1014700003F0B2F8C0F384618DE7C0F3846091E7B4
:1014800003F0AAF8C0F38461A2E7C0F38460A6E782
:1014900003F0A2F8C0F38461B7E7C0F38460BBE750
:1014A00003F09AF8C0F38461CCE7C0F38460D0E71E
:1014B0002A7B296850F8B03FC1F3120C23EA0C03D1
:1014C00002F0180C754A22FA0CF20A40134303602A
:1014D000E968414577D1286841031CD090FAA0F112
:1014E000B1FA81F1491C01F01F0109294FEA40318D
:1014F00032D8002912D000BF90FAA0F1B1FA81F1E0
:1015000001F1010101F01F0106FA01F609D100BF46
:10151000C0F3846109E0C0F38461E3E7C0F3846150
:10152000EEE790FAA0F1B1FA81F101F1010101F0C9
:101530001F0146EA816102D1C0F3846003E090FAA2
:10154000A0F0B0FA80F000F1010000F01F0000EB05
:10155000400041EA005132E000290ED090FAA0F19B
:10156000B1FA81F101F1010101F01F0106FA01F662
:1015700006D100BFC0F3846106E0C0F38461F1E7E7
:1015800090FAA0F1B1FA81F101F1010101F01F011E
:1015900046EA816102D1C0F3846003E090FAA0F0D2
:1015A000B0FA80F000F1010000F01F003C4A00EBAF
:1015B000400002EB005041EA000141F00071AA68CE
:1015C000206803F02DF837482B6803423FF466AEDD
:1015D00021684FF0A04C3448344E354D614501D060
:1015E000A94201D1024600E032469268DFF8C48089
:1015F00002F0E072434503D0DFF8BC80434521D1BF
:101600005FEA02281ED4614506D02C4B99427FF434
:1016100045AEA94200D0304642F40001826822F073
:10162000E0720A438260264826490068B0FBF1F068
:10163000401C00EB4000800000E0401E00900028AD
:10164000FBD12BE6DFF8808043450FD15FEAC2185B
:101650000CD4A94202D11D4B9942F2D0614502D06F
:10166000A94200D0304642F080710CE0DFF8608083
:101670004345E6D15302E4D4A942E2D0614500D00B
:10168000304642F48001826822F0E0720A438260B0
:1016900004E6000000007F4000F0FF03FFFF0700AA
:1016A000000020FE000008800003005000070050EA
:1016B00000010050000021C31000C090000600503F
:1016C00018000020400D0300000052C70005005024
:1016D000000084CB704770470068006C70470000C2
:1016E0002DE9F84F04460068066845684FF0A048A9
:1016F000DFF89092404501D0484501D1A24800E072
:10170000A248806800F01F07B0070ED5A8070CD5C7
:10171000E06DC00603D4E06D40F40060E065204653
:10172000FFF7D4F9216802200860DFF864B2DFF81F
:1017300064A2700701D5680703D430073FD5280796
:101740003DD5E06DC00603D4E06D40F40070E06567
:10175000206802F05DFF60B32068484501D1424631
:1017600004E0584501D1524600E00246824208D0CA
:101770003FB1052F05D0092F03D0484503D141467D
:1017800006E0C16805E0584501D1514600E0014638
:10179000C96889040DD4016809070AD502F030FF31
:1017A00058B3E06D40F01000E065206E40F001009D
:1017B00020662046FFF78EFF21680C200860B006E7
:1017C00001D5A80603D470065FD568065DD5E06D27
:1017D000C00603D4E06D40F40050E0652068C16CA1
:1017E00011F4C07F1AD00021009102F011FF0246CF
:1017F0002068484514D1434617E02068416821F02D
:101800000C014160E06D20F48070E065E06DC00483
:10181000CFD4E06D40F00100E065CAE70121E3E7C5
:10182000584501D1534600E00346834208D03FB1FA
:10183000062F05D0072F03D0484503D1414606E0C7
:10184000C16805E0584501D1514600E00146C9682C
:10185000009BA3B18B0102D58AB18A040FD4026820
:1018600052060CD589020AD402F0C2FEF0B3E06D34
:1018700040F01000E065206E40F001002066204638
:10188000FFF7D6FB21686020086030060BD52806DC
:1018900009D5E06D40F48030E065204600F094F911
:1018A000216880200860F0050CD5E8050AD5E06DB8
:1018B00040F40030E0652046FFF724FC21684FF437
:1018C00080700860B0050CD5A8050AD5E06D40F41D
:1018D0008020E0652046FFF716FC21684FF4007079
:1018E0000860F00631D5E8062FD500E009E0E06B8E
:1018F000E8B12068EFB3404501D0484512D12248F5
:1019000011E02068416821F060014160E06D20F441
:101910008050E065E06DC005B1D4E06D40F001009D
:10192000E065ACE71948806800F4604050B1E06DB4
:1019300040F48060E065206E40F0020020662046A2
:10194000FFF7C9FE216810200860700517D56805EB
:1019500015D5E06D40F48040E065206E40F0080051
:10196000206621684FF4806008602046BDE8F84F8B
:1019700000E001E0FFF7C5BBC068C007D6E7BDE8DF
:10198000F88F0000000100500003005000070050D5
:101990000005005000040050F8B54FF000050400A9
:1019A0002E46009502D0E06D10B107E00120F8BD91
:1019B000204600F00BF9266684F85860206881689C
:1019C000C1F3407119B18168734A11408160206888
:1019D0008168C1F3007189B98168704A114041F092
:1019E000805181606E486F490068B0FBF1F04000A3
:1019F000801C00E0401E00900028FBD12068816818
:101A0000C1F3007141B9E16D41F01001E165216E52
:101A100041F001012166012502F0F2FDE16DC906E8
:101A200000D430B1E06D40F01000E065012528469B
:101A3000F8BDE06D20F4807040F00200E0652068A1
:101A4000816811F0010F27D14FF0A043564A984208
:101A500001D0904204D19968966801F001010AE032
:101A600052498968524E01F00101B66806F001063C
:101A70003143504EB66806F0010631430CD198420E
:101A800001D0904201D14C4800E04C486168826826
:101A900022F47C120A438260E168E06B627F0843B3
:101AA000A16841EA4231084394F8241040EA014019
:101AB000012904D1218D424A02EB41410843E16AE8
:101AC00029B101F47871226B014342EA01002268D6
:101AD000D1683C4B19400143D16020680169626BB9
:101AE00021F0406111430161206802F081FD70BB6B
:101AF000207F94F838102268800340EA4100D168C2
:101B000044F2020399430143D16020690028206810
:101B100001690AD041F480310161206850F8C01F8A
:101B200022696FF30D01114307E021F48031016157
:101B3000206850F8C01F6FF30D01016094F8400059
:101B400001280CD02068016921F001010161606960
:101B500001282068016B21F00F0111D013E0D4E9B6
:101B600011010843D4E913121143084321680A699B
:101B700040F2FC739A43104340F001000861E6E72D
:101B8000226A521E11430163E06D20F0020040F012
:101B90000100E0654BE70000C0FFFF5FC0FFFF7F73
:101BA00018000020400D0300000100500004005008
:101BB00000050050000600500003005000070050D0
:101BC0000000FEFF0740F0FF70470000F0B59BB03B
:101BD0000446142115A8FEF767FB54216846FEF75A
:101BE00063FB4FF40041206800268A032E4D032733
:101BF0002E4CB0F1A04F10D02D4B984252D16846D8
:101C00001192009100F01CFD08B1FEF74AFF286810
:101C1000401C2860012825D02CE0684611920091D4
:101C200000F00EFD08B1FEF73CFF2868401C28605C
:101C3000012807D1E06C40F40050E064E06C00F44F
:101C400000501A90E06C40F00100E064E06C1796E0
:101C500000F001001A900F20CDE9150715A94FF0EB
:101C6000904015E0E06C40F40050E064E06C00F45B
:101C700000501A90E06C40F00400E064E06C1796AD
:101C800000F004001A903720CDE9150715A909487E
:101C900000F0AEFA00221146122000F039FC1220AA
:101CA00000F028FC1BB0F0BD08000020001002402E
:101CB00000010050000800482DE9F047044688461E
:101CC00000684FF0A0454749474BDFF82091A842F4
:101CD00001D0484501D10A4600E01A46926802F058
:101CE0001F06A269082A14D0AEB1052E13D0092E02
:101CF00011D0A84202D0484500D01946886800F4A7
:101D0000604058B1E06D40F02000E0650120BDE882
:101D1000F087082703E0C068C007F2E7042700F057
:101D200091FB824619E000BFB8F1FF3F15D000F0EB
:101D300089FBA0EB0A01414502D8B8F1000F0CD194
:101D400020680068384208D1E06D40F00400E0658A
:101D5000002084F858000320D9E720680068384242
:101D6000E2D0E06D40F40070E065206802F050FCC5
:101D700080B1607F70B92068006800070AD5E06D07
:101D800020F48070E065E06DC00403D4E06D40F0A5
:101D90000100E0652068164A164B484501D12C46E3
:101DA00004E0904201D11C4600E0044684420AD07F
:101DB0004EB1052E07D0092E05D0484506D09042D9
:101DC00003D11D4602E0C16801E00546E968082F1D
:101DD00005D0490401D40C210160002097E70821B7
:101DE000FAE7000000030050000700500001005017
:101DF00000050050000400502DE9F0410446006841
:101E00004FF0A045444FA84201D0B84201D1434908
:101E100000E04349896801F01F0602F0F1FB18B1A8
:101E200002210846BDE8F08194F8580001280CD042
:101E3000012084F858002046FEF764FD01004FF0B1
:101E4000000204D084F85820EBE70220EAE7E06DB6
:101E500040F60163984340F48070E0652068314BA0
:101E6000DFF8C4C0B84201D1AE4604E0984201D1C7
:101E7000E64600E08646864500D02EB9D4F85CE000
:101E80002EF4801EC4F85CE0D4F85CE05FEACE4E2D
:101E900006D5D4F860E02EF0060EC4F860E000E04D
:101EA00022664FF01C0EC0F800E084F8582020682D
:101EB000B84201D12A4604E0984201D1624600E0CE
:101EC000024682420ED06EB1052E0BD0092E09D0EB
:101ED000E26D42F48012E265B84213D0984210D10C
:101EE00065460FE0C268920105D5E26D22F400520A
:101EF00042F48052E26582680C4B1A40121D8260E7
:101F00008FE70546E86880018BD5E06D20F400502E
:101F100040F48050E06584E7000100500003005069
:101F2000000700500005005000040050C0FFFF7F74
:101F300010B5044690F85800012808D0012084F814
:101F4000580003212046FEF733FC10B10BE00220BD
:101F500010BD2046FEF79EFC28B9E16D21F48851A2
:101F600041F00101E165002184F8581010BD10B561
:101F700090F8253000210122022B03D00421C163F7
:101F8000012122E003681C6824F00E041C60836CAD
:101F90001C6824F480741C6003681C6824F001042D
:101FA0001C6090F84430046C03F01F0302FA03F342
:101FB0006360D0E913345C60436D33B11C6824F472
:101FC00080741C60D0E916345C6080F82520002203
:101FD00080F82420084610BD70B590F82520002414
:101FE00001212346022A07D00422C26380F825106B
:101FF00080F82430012429E00268156825F00E05D8
:1020000015600268156825F001051560826C156879
:1020100025F48075156090F84420056C02F01F02CD
:1020200001FA02F26A60D0E913255560426D32B1BF
:10203000156825F480751560D0E91625556080F87F
:10204000251080F82430816B01B18847204670BD8F
:10205000F0B4016C0C6801680D6890F8442002F03F
:102060001F06042202FA06F3234211D06B070FD594
:102070000B689B0603D40B6823F004030B6090F8F5
:10208000441001F01F018A40016C4A60016B1DE0A1
:10209000022303FA06F727424FF0000C4FF001022B
:1020A00018D0AF0716D50C68A40605D40C6824F028
:1020B0000A040C6080F8252090F8441001F01F01FC
:1020C0008B40016C4B6080F824C0C16A00291AD093
:1020D000F0BC08470823B340234214D02B0712D585
:1020E0000B6823F00E030B6090F84410036C01F0B2
:1020F0001F0102FA01F15960C26380F8252080F8BF
:1021000024C0416BE2E7F0BC7047000070B50400EA
:102110000CD02B4A21681420914209D2294A0A4442
:10212000B2FBF0F08000606427480AE0012070BD37
:10213000234A52420A44B2FBF0F080006064204817
:1021400008382064022084F825000A6847F6F070F9
:102150008243D4E902031843D4E904352B431843DE
:10216000A3691843E3691843236A184310430860BE
:102170002046FEF763FCA0680025B0F5804F00D133
:102180006560A16C20790860D4E913014160606842
:10219000401E032808D82046FEF770FC606D0560DD
:1021A000D4E91601416002E06565A565E565E56372
:1021B000012084F8250084F82450002070BD000020
:1021C00008040240F8FFFDBF0000024070B504465D
:1021D00000F038F90546601C02D004484068044409
:1021E00000F030F9401BA042FAD370BD0C00002073
:1021F0002DE9F04FDFF82092002301260324A9F1F6
:10220000040B85B00F2709F1040AABF1040EFAE0C4
:1022100006FA03F52A407CD091F804C00CF0030CB8
:10222000BCF1010F02D0BCF1020F26D1D0F808C0DA
:10223000CDF800C04FEA430C04FA0CF8CDF810C0FA
:10224000DDF800C02CEA080CCDF800C0D1F80C80F5
:10225000DDF810C008FA0CF8DDF800C048EA0C08F8
:10226000C0F80880D0F804C02CEA050C0D79C5F33D
:1022700000159D4045EA0C0545600D79ED43AD071D
:102280000ED0C5684FEA430804FA08FC25EA0C059D
:10229000D1F808C00CFA08FC4CEA050CC0F80CC0D8
:1022A0000D7905F00305022D16D1DD0800EB850C34
:1022B000CDF808C0DCF820805D074FEAD56C07FA3E
:1022C0000CF528EA05080D6905FA0CF5DDF808C0DB
:1022D00045EA0805CCF8205005684FEA430CCDF8D4
:1022E00008C004FA0CFC25EA0C0591F804C00CF0B7
:1022F0000308DDF808C008FA0CF848EA0508C0F839
:1023000000804D6815F4403F7CD0444DD5F860C046
:1023100000E077E04CF0010CC5F860C02D6E23F0B2
:10232000030C05F0010500953D4D65440295AD682F
:102330004FEA837C4FEA1C7807FA08FC25EA0C0573
:10234000B0F1904F06D0DFF8DCC0604505D14FF00A
:10235000010C20E04FF0000C1DE0DFF8CCC0604520
:1023600002D14FF0020C16E0DFF8C0C0604502D188
:102370004FF0030C0FE0DFF8B8C0604502D14FF01A
:10238000040C08E0DFF8ACC0604502D14FF0050C4A
:1023900001E04FF0060C0CFA08FC4CEA050C029D1B
:1023A000C5F808C0D9F80050CC46D1F80480954350
:1023B0005FEAC82800D51543CCF80050DAF8005081
:1023C000D446D1F8048095435FEA882800D51543A8
:1023D000CCF80050DBF80050DC46D1F8048095437F
:1023E0005FEA883800D51543CCF80050DEF800507D
:1023F000F446D1F8048095435FEAC83800D5154308
:10240000CCF800505B1C0A6832FA03F57FF400AF89
:1024100005B0BDE8F08F0000080401400010024044
:10242000000001400004004800080048000C00487B
:1024300000100048001400480AB1816170478162B1
:102440007047000001488068704700000C000020C1
:102450000248816842681144816070470C00002086
:1024600010B50024032000F073F80F2000F008F8E6
:1024700008B1012401E000F025F8204610BD00005D
:1024800070B50E4E05460024706898B14FF47A710D
:10249000B1FBF0F00A490968B1FBF0F000F055FF1C
:1024A00040B9102D06D200222946501E00F030F807
:1024B000356000E00124204670BD00000C000020C3
:1024C000180000200A4882B0016E41F00101016647
:1024D000016E01F001010091816D41F08051816533
:1024E000806D00F08050009002B000F0A1B80000B4
:1024F00000100240002809DB00F01F02012191407A
:102500004009800000F1E020C0F800117047000091
:10251000F0B40E4B1B680C46C3F30223C3F107054E
:10252000042D00D90425191D072901D2002300E03C
:10253000DB1E012606FA05F1491E214099409E4006
:10254000761E16403143F0BC03F087BA0CED00E074
:10255000064900F0070208684FF6FF03184040EAFA
:102560000220034A10430860704700000CED00E0B1
:102570000000FA052B492C4B0A6832214A432B49AB
:1025800040B1B0F5007F086829D020F4C06040F465
:1025900080602CE00868C0F34120022804D051F884
:1025A000800F20F4807022E0D1F8800020F4807049
:1025B000C1F88000086820F4C06040F40070086032
:1025C000B2FBF3F0401C00E0401E4A69520501D501
:1025D0000028F9D1486940050AD503207047C0F3A7
:1025E0004120022806D051F8800F40F48070086026
:1025F00000207047D1F8800040F48070C1F880005E
:10260000086820F4C06040F400700860B2FBF3F08A
:10261000401C00E0401E4A695205DBD50028F9D174
:10262000D8E700001800002040420F000070004072
:102630000248816841F48041816070470070004029
:102640002DE9F843044600680026BB4D00035ED523
:10265000A86D0027C00008D4A86D40F08050A86580
:10266000A86D012700F080500090DFF8D092D9F8D3
:10267000001041F48071C9F80010FFF7E3FE8046B6
:1026800006E000BFFFF7DEFEA0EB080002282BD813
:10269000D9F80000C005F5D5D5F8900010F44070C9
:1026A00014D0216D814211D0D5F89000D5F890104A
:1026B00020F4407041F48031C5F89010D5F89010A6
:1026C00021F48031C5F89010C5F89000C00711D0F2
:1026D000FFF7B8FE804641F2883907E0FFF7B2FE07
:1026E000A0EB0801494501D903260BE0D5F890007D
:1026F0008007F3D5D5F89000216D20F44070084391
:10270000C5F890001FB1A86D20F08050A865207812
:10271000C00707D0D5F88800616820F0030008439F
:10272000C5F888002078800707D5D5F88800A1680B
:1027300020F00C000843C5F888002078400707D532
:10274000D5F88800E16820F030000843C5F888001B
:102750002078000707D5D5F88800216920F0C0004F
:102760000843C5F888002078C00607D5D5F888004A
:10277000616920F440700843C5F88800207880061D
:1027800007D5D5F88800A16920F440600843C5F852
:1027900088002078400607D5D5F88800E16920F444
:1027A00040500843C5F888002078000607D5D5F8C2
:1027B0008800216A20F440400843C5F8880020883A
:1027C000C00507D5D5F88800616A20F44030084379
:1027D000C5F888002068800307D5D5F89C00A16A59
:1027E00020F003000843C5F89C002088800507D529
:1027F000D5F88800E16A20F440200843C5F8880035
:10280000208840050FD5D5F88800216B20F44010B2
:102810000843C5F88800206BB0F5801F03D1E86835
:1028200040F48010E860208800050FD5D5F88800B6
:10283000616B20F440000843C5F88800606BB0F578
:10284000800F03D1E86840F48010E8602088C0045D
:102850000FD5D5F88800A16B20F040700843C5F86B
:102860008800A06BB0F1807F03D1E86840F480104D
:10287000E86020884FF0006180040ED5D5F888000C
:10288000E26B20F040601043C5F88800E06B88429E
:1028900003D1E86840F48010E860208840040ED539
:1028A000D5F88800226C20F040601043C5F88800FD
:1028B000206C884203D1E86840F48010E8602088EA
:1028C00000040FD5D5F88800616C20F04050084313
:1028D000C5F88800606CB0F1805F03D1E86840F40F
:1028E0008030E8602068C0030FD5D5F88800A16C5F
:1028F00020F040400843C5F88800A06CB0F1804F3C
:1029000003D1E86840F48030E860206840030FD5C8
:10291000D5F89C00E16C20F440100843C5F89C00F9
:10292000E06CB0F5001F03D1E86840F48010E86067
:102930003046BDE8F88300000010024000700040FF
:102940002DE9F0470E4605004FF0000725D0DFF8CF
:10295000AC81D8F8000000F00F00B0420CD2D8F8DB
:10296000001021F00F013143C8F80010D8F8000022
:1029700000F00F00B04210D12968614CC80741F245
:10298000883A5AD06868DFF87C91032808D002287A
:1029900020682DD0400500282CDB0120BDE8F08701
:1029A00020688001F9D5E06800F00302E068C0F318
:1029B0000310401C032A19D0534A00BFB2FBF0F0A9
:1029C000E268C2F306225043E268C2F34162521C3D
:1029D0005200B0FBF2F0484517D9A06810F0F00F94
:1029E0000CD0880711D5A86840B10EE0474AE5E74A
:1029F0008003D0E700F0B6F8484506D9A06820F07B
:102A0000F00040F08000A0608027A068696820F096
:102A100003000843A060FFF715FD814606E000BFF4
:102A2000FFF710FDA0EB090151453AD8A06869688D
:102A300000F00C00B0EB810FF2D12868810714D5AB
:102A4000400703D5A06840F4E060A0602878000744
:102A500005D5A06820F4605040F4E060A060A06854
:102A6000A96820F0F000084304E0802F03D1A0689B
:102A700020F0F000A060D8F80010404601F00F01EF
:102A8000B14216D9016821F00F0131430160FFF70F
:102A9000D9FC074607E000BFFFF7D4FCC11B514536
:102AA00001D903207AE7D8F8000000F00F00B04207
:102AB000F2D12878400705D5A068E96820F4E060E5
:102AC0000843A0602878000706D5A068296920F48B
:102AD000605040EAC100A06000F044F8A1680C4AD0
:102AE000C1F30311515C01F01F01C840094908609E
:102AF00009480068BDE8F047FFF7C2BC002002406B
:102B00000010024000B4C4040024F40040787D01A9
:102B10007C690108180000200C00002005480649C7
:102B200000688968054AC1F30221515C01F01F0168
:102B3000C840704718000020001002408C6901084E
:102B40000548064900688968054AC1F3C221515CFD
:102B500001F01F01C840704718000020001002401B
:102B60008C690108184910B58868C0F381021748BC
:102B7000012A0BD08A68164BC2F38102022A06D0C2
:102B80008A68C2F38102032A03D0002010BD1846D0
:102B900010BDCA6802F00304CA68C2F30312521CD3
:102BA000032C02D0B0FBF2F001E0B3FBF2F0CA68F4
:102BB000C968C2F306225043C1F34161491C490070
:102BC000B0FBF1F010BD0000001002400024F40042
:102BD00040787D012DE9F84304007AD02078F84D43
:102BE000C00747D0A868E96800F00C0001F00301B5
:102BF0000C2802D0082817D001E0032914D06068FF
:102C0000B0F5803F17D0B0F5A02F286817D020F47A
:102C100080302860286820F4802028606068E0B157
:102C2000FFF710FC064614E02868800322D5606890
:102C30000028D2D01EE0286840F48030EDE740F450
:102C400080202860F7E700BFFFF7FCFB801B6428AB
:102C500070D828688003F7D50CE0FFF7F3FB064631
:102C600005E000BFFFF7EEFB801B6428F0D8286862
:102C70008003F7D4207880074CD5A868E96800F075
:102C80000C0001F003010C2802D004280DD001E053
:102C900002290AD0E068002828682BD040F4807010
:102CA0002860FFF7CFFB064619E02868400502D5EB
:102CB000E068002891D06868217C20F0FE4040EA5E
:102CC00001606860BF480068FFF7DAFB002800D1A8
:102CD00020E072E1FFF7B6FB801B0228B8D8286815
:102CE0004005F7D56868217C20F0FE4040EA01608D
:102CF00068600FE020F480702860FFF7A3FB0646B1
:102D000005E000BFFFF79EFB801B0228A0D82868C3
:102D10004005F7D42078000729D560690028D5F848
:102D2000940013D040F00100C5F89400FFF78AFB2F
:102D3000064606E090E000BFFFF784FB801B0228F8
:102D400086D8D5F894008007F6D510E020F0010071
:102D5000C5F89400FFF776FB064604E0FFF772FB28
:102D6000801B022878D8D5F894008007F6D4207804
:102D7000400761D5A86D0026C00008D4A86D40F0BA
:102D80008050A865A86D012600F0805000908E4804
:102D90000168C90511D40168804641F48071016061
:102DA000FFF750FB074604E0FFF74CFBC01B02286F
:102DB00052D8D8F80000C005F6D5A068012815D073
:102DC0000528D5F8900016D020F00100C5F8900035
:102DD000D5F8900020F00400C5F89000A06841F2FA
:102DE0008838B8B1FFF72EFB07460EE0D5F8900003
:102DF00040F00100F0E740F00400C5F89000F5E76E
:102E0000FFF720FBC11B414526D8D5F8900080076D
:102E1000F6D50CE0FFF716FB074604E0FFF712FBC0
:102E2000C11B414518D8D5F890008007F6D41EB1D3
:102E3000A86D20F08050A8652078800629D5A0696B
:102E40000028D5F8980013D040F00100C5F898008C
:102E5000FFF7F8FA064606E075E000BFFFF7F2FA62
:102E6000801B02286FD8D5F898008007F6D510E0AF
:102E700020F00100C5F89800FFF7E4FA064604E0E8
:102E8000FFF7E0FA801B02285DD8D5F8980080078C
:102E9000F6D4E069F0B3A968C1F3810103295DD0DC
:102EA0000228286820F08070286003D0FFF7CAFA53
:102EB00004464BE0FFF7C6FA064604E0FFF7C2FA05
:102EC000801B02283FD828688001F7D4F4E9080164
:102ED0006FF00F0202EB01110843218A52044908E6
:102EE00002EB4151A26841EA02210843217D4FF0E3
:102EF0007E42490802EB41610843217B40EAC16000
:102F0000E968324A11400843E860286840F0807060
:102F1000286000E05EE0E86840F08070E860FFF75D
:102F200091FA044605E000BFFFF78CFA001B022867
:102F300009D828688001F7D54CE000BFFFF782FA76
:102F4000001B022802D90320BDE8F883286880010D
:102F5000F4D4E8681E490840E8603BE00128F3D05B
:102F6000E868226A00F00301914226D1616A00F00C
:102F7000F0020901103991421FD1A26A00F4FE410A
:102F8000B1EB022F19D194F82C2000F07841B1EB6D
:102F9000C26F12D1218E00F4C00249084905A1F583
:102FA0000011914209D194F8341000F0C060490832
:102FB0004906A1F1007181420CD00120C4E7000054
:102FC000001002400C000020007000400C809F01A7
:102FD000FCFFEEFE0020B7E770B5040009D0606A80
:102FE000002540B125616561A56294F85D0040B19E
:102FF0000CE0012070BD6068B0F5827FF4D0E5611F
:10300000F2E784F85C50204600F05CF8022084F877
:103010005D002068016821F040010160E1684FF423
:10302000E062914201D9002001E04FF48050B1F5F7
:10303000706F02D0914200D0A562A188228901F46C
:10304000827102F404421143227C02F00202114315
:10305000227D02F001021143228B02F4007211431F
:10306000227F02F03802114394F8202002F08002FF
:103070001143228D02F40052114322681160A169AC
:10308000042202EA114194F8242000F4805002F056
:103090001002114394F8342002F008021143A2896F
:1030A00002F4706211430143206841602068C169E5
:1030B00021F40061C1612566012084F85D000020D3
:1030C00070BD0000F0B587B0064614216846FDF7D4
:1030D000EBF8334A3068002532490224904227D168
:1030E000086E40F480500866086E00F48050059029
:1030F000C86C40F00200C864C86C052600F00200ED
:10310000059018208DE83100274FCDE90356694618
:103110003846FFF76DF82020CDE9000402AA01200F
:1031200082E8610069463846FFF762F807B0F0BDF3
:103130001E4A9042FAD1886D40F400408865886D3F
:1031400000F400400590C86C40F00400C864C86CEE
:10315000694600F0040005904FF4A0508DE831005E
:103160000620CDE903501248FFF742F8124C1148EF
:1031700020600F2060601020C4E9020580202061DB
:10318000400060618000C4E906058000206220469E
:10319000FEF7BCFF08B1FDF784FC7465A662C5E7C5
:1031A000003001400010024000040048003C004094
:1031B0000008004808000240200200202DE9F84FD6
:1031C000984616468A460446FFF73CF9814694F82D
:1031D0005D00012820D1BAF1000F6FD0002E6DD014
:1031E00094F85C00012817D0012784F85C70032054
:1031F00084F85D0000252566C4F838A0A687E68718
:103200002564A4F84450A4F846502565E564A068F8
:10321000B0F5004F03D00CE00220BDE8F88F206825
:10322000016821F0400101602068016841F480419B
:10323000016020680168490603D4016841F040013B
:103240000160E068B0F5E06F606826D908B1012E32
:103250001FD1A06B21680088C86006E020688168E3
:10326000890709D5A16B0988C160A06B801CA06388
:10327000E08F401EE0870CE0FFF7E4F8A0EB0901C7
:10328000414503D3B8F1FF3F03D04BE0B8F1000F45
:1032900048D0E08F0028E1D139E008B1012E33D1C8
:1032A000E08F0128A06B03D921680088C86010E076
:1032B00021680078087314E0E08725E043E0206887
:1032C0008168890713D5E18F0129A16B07D9098886
:1032D000C160A06B801CA063E08F801EECE70978C2
:1032E0000173A06B401CA063E08F401EE4E7FFF772
:1032F000A9F8A0EB0901414503D3B8F1FF3F03D082
:1033000010E0B8F1000F0DD0E08F0028D7D14A4669
:103310004146204601F01DFD08B120202066A0682E
:1033200030B109E084F85D7084F85C50032074E7E4
:103330002068C1688068009084F85D7004F85C5F64
:1033400060680028F3D0012067E710B5401EB0F197
:10335000807F01D3012010BD4FF0E02460610F2178
:10336000601702F07AFB0020A06107202061002096
:1033700010BD70477047704730B590F83C20012A67
:1033800045D0012280F83C20CA688B6822F4407244
:103390001A434B6822F480621A430B6822F40062DD
:1033A0001A430B6922F480521A434B6922F40052EB
:1033B0001A430B6B22F480421A430B8B22F47022C7
:1033C00042EA0342CB6922F080521A43114D03684E
:1033D0000024AB4205D0104DAB4202D00F4DAB42A2
:1033E00010D10D8D22F4700242EA05520D6A22F0CE
:1033F00080722A434D6A22F000722A43C96A22F081
:1034000000520A435A6480F83C40002030BD02203C
:1034100030BD0000002C014000340140005001404C
:103420007047704770470000F0B590F83C20012AC3
:1034300043D0012580F83C50022280F83D200368EB
:103440005A689C681E4E1F4FDFF87CC0B34203D001
:10345000BB4201D0634504D122F4700E4A6842EAAF
:103460000E02DFF868E002EA0E02D1F800E04EEA50
:10347000020EC3F804E00268B24212D0B2F1804FEB
:103480000FD0134B9A420CD0124B9A4209D0124BD8
:103490009A4206D0BA4204D0104B9A4201D06245FB
:1034A00004D1896824F080031943916080F83D506D
:1034B000002180F83C100846F0BD0220F0BD00005D
:1034C000002C014000340140005001408FFFFFFDFF
:1034D0000004004000080040000C00400040014093
:1034E00010B50446022249B104290ED0082913D090
:1034F00094F84700012816D0012010BD94F844002C
:103500000128F9D184F844200FE094F845000128FF
:10351000F2D184F8452008E094F846000128EBD168
:1035200084F8462001E084F847200422206801F056
:10353000F8FD2068416C41F4004141641349206862
:10354000884214D0B0F1804F11D0114988420ED07A
:10355000104988420BD01049884208D00F49884250
:1035600005D00F49884202D00E49884207D18168B0
:103570000D4A1140062906D0B1F5803F03D00168FD
:1035800041F001010160002010BD0000002C01404D
:103590000004004000080040000C004000340140DE
:1035A000004001400050014007000100704710B585
:1035B000040003D094F83D0010B107E0012010BDD5
:1035C000002084F83C00204600F022F8022084F815
:1035D0003D00211D206801F025FD012084F84800F0
:1035E00084F83E0084F83F0084F8400084F84100ED
:1035F00084F8420084F8430084F8440084F84500CD
:1036000084F8460084F8470084F83D00002010BD8F
:1036100008B5154A0168154891420ED1816D41F0F7
:1036200010018165806D002200F0100000901146AD
:103630003620FEF76DFF362010E00D4A914211D181
:10364000816D41F020018165806D002200F0200035
:10365000009011463720FEF75BFF3720BDE8084099
:10366000FEF748BF08BD00000010004000100240F7
:103670000014004090F83D10012901D0012070474E
:10368000022180F83D100168CA6842F00102CA6058
:1036900000681349884214D0B0F1804F11D011490D
:1036A00088420ED0104988420BD01049884208D079
:1036B0000F49884205D00F49884202D00E498842FE
:1036C00007D181680D4A1140062906D0B1F5803F27
:1036D00003D0016841F00101016000207047000043
:1036E000002C01400004004000080040000C004095
:1036F000003401400040014000500140070001003B
:1037000070472DE9F04104460068C66805694FF02E
:103710000007A90713D5B10711D5F91E01610120D2
:103720002077206880698007204602D0FFF7E8FFF5
:1037300004E000F015F9204600F0F4F92777680757
:1037400016D5700714D521686FF0040008610220B7
:1037500020772068806910F4407F204602D0FFF770
:10376000CFFF04E000F0FCF8204600F0DBF92777FB
:10377000280715D5300713D521686FF008000861B8
:10378000042020772068C0698007204602D0FFF718
:10379000B7FF04E000F0E4F8204600F0C3F9277713
:1037A000E80616D5F00614D521686FF01000086100
:1037B000082020772068C06910F4407F204602D09E
:1037C000FFF79EFF04E000F0CBF8204600F0AAF9D6
:1037D0002777E80708D0F00706D021686FF00100CE
:1037E0000861204600F02AFA280601D4A80408D56A
:1037F000300606D521686FF4025008612046FFF7B5
:10380000B9FDE80508D5300606D521686FF480704B
:1038100008612046FFF7ADFD680608D5700606D59D
:1038200021686FF040000861204600F01DFAA806EC
:1038300008D5B00606D521686FF020000861204643
:10384000FFF799FDE80208D5F00206D521686FF46C
:10385000801008612046FFF7E4FDA80208D5B002F9
:1038600006D521686FF4001008612046FFF7D8FDE7
:10387000680208D5700206D521686FF480000861DF
:103880002046FFF7CFFD28020AD5300208D521686F
:103890006FF4000008612046BDE8F041FFF786BEE6
:1038A000BDE8F081F0B587B0044614216846FCF706
:1038B000FBFC27492068884248D12648C16C41F06A
:1038C0000401C164C16C01F004010591C16C41F0B7
:1038D0000201C164C16C01F002010591C16C41F0AB
:1038E0000101C164C06C022500F0010005900820B0
:1038F00000900024CDE9015469461748CDE90345FD
:10390000FEF776FC4FF4C0400090CDE90154062646
:10391000124FCDE9034669463846FEF769FCA80315
:103920000090CDE901540420CDE9034069463846B2
:10393000FEF75EFC4FF4E0600090CDE90154CDE964
:10394000034669464FF09040FEF752FC07B0F0BDC9
:10395000002C01400010024000080048000400480C
:10396000704770B5044690F83C0000260D460128CB
:103970000BD0012084F83C000C2A4AD007DC82B12D
:10398000042A20D0082A06D131E0022070BD102A76
:1039900053D0142A63D00126002084F83C0030461E
:1039A00070BD206801F0CAFB2068816941F0080100
:1039B00081612068816921F0040181612068816949
:1039C0002A69114311E0206801F00EFC206881692A
:1039D00041F4006181612068816921F48061816125
:1039E000206881692A6941EA02218161D4E720685F
:1039F00001F04AFC2068C16941F00801C1612068FA
:103A0000C16921F00401C1612068C1692A691143BB
:103A100011E0206801F088FC2068C16941F4006170
:103A2000C1612068C16921F48061C1612068C169F8
:103A30002A6941EA0221C161AEE7206801F0C4FCB5
:103A40002068016D41F0080101652068016D21F0D9
:103A5000040101652068016D2A69114311E02068A5
:103A600001F0EEFC2068016D41F400610165206801
:103A7000016D21F4806101652068016D2A6941EAC8
:103A80000221016588E710B5040003D094F83D00D9
:103A900010B107E0012010BD002084F83C00204652
:103AA00000F022F8022084F83D00211D206801F07A
:103AB000B9FA012084F8480084F83E0084F83F00F9
:103AC00084F8400084F8410084F8420084F8430000
:103AD00084F8440084F8450084F8460084F84700E0
:103AE00084F83D00002010BD08B500680B498842ED
:103AF00012D10B48016E41F400610166006E002294
:103B000000F40060009011461920FEF701FDBDE8A9
:103B100008401920FEF7EEBC08BD0000002C014053
:103B2000001002407047000070B50446022269B1DF
:103B3000042912D0082917D00C291CD0102921D013
:103B400094F84300012824D0012070BD94F83E0071
:103B50000128F9D184F83E201DE094F83F000128A7
:103B6000F2D184F83F2016E094F840000128EBD110
:103B700084F840200FE094F841000128E4D184F853
:103B8000412008E094F842000128DDD184F8422069
:103B900001E084F843200122206801F0B5FA1D49B4
:103BA00020681D4A1D4B1E4D88420BD0904209D003
:103BB000984207D01B4EB04204D01B4EB04201D0F9
:103BC000A84203D1466C46F4004646642068884209
:103BD00011D0B0F1804F0ED0144988420BD0144957
:103BE000884208D01349884205D0904203D09842B9
:103BF00001D0A84207D181680F4A1140062906D09A
:103C0000B1F5803F03D0016841F00101016000205F
:103C100070BD0000002C0140003401400040014014
:103C200000500140004401400048014000040040B1
:103C300000080040000C004007000100006808492F
:103C400088420BD10749002051F8202012B1521EA2
:103C500041F82020401CC0B21428F5D37047000062
:103C60000014004008040020704790F884100129D7
:103C700018D0012180F884102421C0F88810016830
:103C80000A680B6823F001030B6022F00051002248
:103C90004266036819602021C0F8881080F88420EB
:103CA00010467047022070477047704770B5044651
:103CB00090F8840001281DD0012084F8840024207D
:103CC000C4F8880020680568026822F001020260DA
:103CD0002068826822F060620A438260204601F018
:103CE000EDFB206805602020C4F88800002084F8DF
:103CF000840070BD022070BD70B5044690F8840049
:103D000001281DD0012084F884002420C4F88800F4
:103D100020680568026822F001020260206882685B
:103D200022F060420A438260204601F0C7FB20680F
:103D300005602020C4F88800002084F8840070BD4D
:103D4000022070BD70477047704700002DE9F041B8
:103D500003680446D86919689A6840F60F05284236
:103D60004FF000054FF002060AD187067ED501F01C
:103D7000200702F0805C57EA0C0777D0616F42E1C0
:103D8000B64FDFF8DCC2174001EA0C0C57EA0C0C06
:103D90006CD05FEAC07C0CD05FEAC15C09D54FF003
:103DA000010CC3F820C0D4F8903043F00103C4F8EC
:103DB0009030830709D5D30707D023681E62D4F853
:103DC000903043F00403C4F8903043070AD5D3077A
:103DD00008D0266804233362D4F8903043F00203FD
:103DE000C4F8903003070CD501F020033B4308D002
:103DF000266808233362D4F8903043F00803C4F8EF
:103E0000903003050BD54B0109D526684FF40063AC
:103E10003362D4F8903043F02003C4F89030D4F8E3
:103E20009030002B3DD0800609D501F0200002F033
:103E30008051084303D0616F09B120468847D4F808
:103E4000900021688968490602D410F0280F2AD012
:103E5000204601F017FC2068806840061ED52068C7
:103E6000083050E8001F21F0400100E021E040E868
:103E70000012002AF3D1D4F8800078B17949816327
:103E8000D4F88000FEF7A8F800280AD0D4F8800003
:103E9000816B00E02046BDE8F04108472046FFF76F
:103EA00053FFBDE8F0812046FFF74EFFC4F8905065
:103EB000F7E7D4F86CC02027BCF1010F7ED15FEA90
:103EC000C06C7BD55FEAC16C78D510201862206881
:103ED0008068400651D5D4F880100A685068000404
:103EE000000C3ED0B4F85C3083423AD9A4F85E00AE
:103EF0000868006880062CD4216851E8000F20F47F
:103F0000807041E80002002AF6D12068083050E8AD
:103F1000001F21F0010140E80012002AF5D12068BD
:103F2000083050E8001F21F0400140E80012002A4C
:103F3000F5D1C4F88C70E566216851E8000F20F0D7
:103F4000100041E80002002AF6D1D4F88000FEF704
:103F50000EF82667B4F85C00B4F85E10401A81B21F
:103F600007E0B4F85C1081429BD11068800698D5B8
:103F700026672046FFF798FE93E7B4F85C00B4F894
:103F80005E10401A81B2B4F85E00002889D0002982
:103F900087D0226852E8000F20F4907042E80003B6
:103FA000002BF6D12D4BDB432068083050E8002F62
:103FB0001A4040E8002CBCF1000F00E00EE0F3D105
:103FC000C4F88C70E5666567206850E8002F22F021
:103FD000100240E80023002BF6D1C9E7C60209D53C
:103FE000560207D54FF4801018622046BDE8F04114
:103FF000FFF7A9BE03060AD501F0800302F4000210
:10400000134304D0A16F00297FF444AF49E742066F
:1040100011D54A060FD52046016851E8002F22F03D
:10402000400241E80023002BF6D1C0F88870856774
:1040300000F0EFF835E7020206D54A0004D5204625
:10404000BDE8F041FFF77EBEC00195D5002993DAA7
:104050002046BDE8F041FFF728BE00000100001037
:10406000200100047556010810B5040003D0D4F8EF
:10407000880010B107E0012010BD002084F8840002
:10408000204600F027F82420C4F888002068016842
:1040900021F001010160A06A10B1204601F030FA60
:1040A000204601F019FB0128E6D02068416821F480
:1040B000904141602068816821F02A018160206878
:1040C000016841F0010101602046BDE8104001F0A7
:1040D0007BBA000010B59CB00446142115A8FCF76B
:1040E000E3F854216846FCF7DFF81B492068884252
:1040F0002FD104200024009003946846FEF7A0FA14
:1041000008B1FCF7CEFC1548816D41F48021816532
:10411000816D01F480211A91C16C41F00201C164EA
:10412000C06C15A900F002001A904FF44060159081
:104130000220CDE916040720CDE918400848FEF713
:1041400057F8002211462720FEF7E2F92720FEF754
:10415000D1F91CB010BD0000004800400010024022
:10416000000400482DE9F8430446D0F8880098463A
:1041700016460D46202802D00220BDE8F883A5B1DE
:104180009EB10020C4F890002120C4F888001834A3
:10419000FEF758F9A6878146E68754F8100C2027C9
:1041A000183CB0F5805F02D003E00120E5E720690C
:1041B00010B12E46002510E000260EE0802120469A
:1041C00001F0D6FBC0B9DEB116F8010B2168886298
:1041D000B4F85600401EA4F85600B4F856004B46FA
:1041E0004FF00002CDF800800028E7D14FF04001E9
:1041F000204601F0BDFB40B1C4F888700320BCE745
:1042000035F8020BC0F30800E0E7C4F8887000201E
:10421000B3E77047FEE72DE9F04107461C46154617
:104220000E462A2000F0A6F92837B8B200F0C2F9ED
:104230002835A8B200F0BEF92B2000F09BF93536E6
:10424000B0B200F0B7F93534A0B200F0B3F9BDE870
:10425000F0412C2000F08EB910B514460B460246F2
:10426000FFF7D9FF2046BDE8104000F0A3B92DE9C3
:10427000F04780461F46581E83B21646501E82B233
:104280000C464046DDF82090FFF7C5FF0AE04546A2
:1042900004E0484600F08EF96D1CADB2B542F8D38B
:1042A000641CA4B2BC42F2D3BDE8F0872DE9FF4FF5
:1042B00081B00446DDF83C9000904FEA59074FF07A
:1042C0000008780700D0012000EBD70000FB09FBB5
:1042D000203AD0B20390029802994844401E83B21B
:1042E000E019401E82B22046FFF795FF002553E0FB
:1042F000B9F10C0F2AD0B9F1100F2ED0B9F1180F67
:104300002ED0B9F1200F49D12749039801EB801035
:10431000002610F805A0109800284FF0010000FAC0
:1043200006F000EA0A0022D020B12046049A029941
:10433000FFF792FF641C0098A4B2201AB84225D15E
:104340000298009C401C80B2029023E00398174919
:1043500000EB400001EB8000DAE71549039803E029
:104360000398144900EB400001EB0010D0E708B1BE
:10437000049800E00E9800F01DF908F10100C0B2A9
:10438000B0FBF7F1804607FB118050B1761CF6B206
:10439000082EC0D36D1CADB25D45A9D305B0BDE8F4
:1043A000F08F4FF00008F5E7C8850108946901080F
:1043B000086E0108F87301082DE9FF4F83B0054628
:1043C000DDE9119100904FEAD90000FB01FB4FF0AD
:1043D000000803204446029040F2475104FB01F0DC
:1043E0002E490190095C0598005D81424AD10498EC
:1043F0000499863083B204EB840005EB00104F3043
:1044000082B209FB045080B2FFF705FF002737E0B6
:10441000224801990026084400EB070A13989AF8ED
:10442000011000284FF0010000FA06F001EA000137
:1044300011D021B12846069A0499FFF70DFF6D1C93
:104440000098ADB2291A494514D10498009D401C2A
:1044500080B2049012E009B1069800E0109800F0D4
:10446000A9F808F1010080B2B0FBF9F2804609FB1F
:10447000128078B1761CB6B2082ECFD37F1CBFB2A3
:104480005F45C5D3641C0298A4B28442A4D307B08C
:10449000BDE8F08F4FF00008F0E700002EA2010801
:1044A0002DE9FF4F83462DED020B83B0DFED210A8E
:1044B000139F154620EE200A7E080024A246BCEE7B
:1044C000C00A10EE100A1FFA80F92DE0281B401ECA
:1044D000C1B20A2001F04AFFB9FBF0F00A21B0FB9B
:1044E000F1F201FB1208A81E84420ED1129A00FBC1
:1044F00006B08DE8840480B22E22089B0699FFF74F
:10450000D5FE641C6D1CE4B2EDB212988DE88104F6
:1045100008F13000C2B204FB06B080B2089B0699D5
:10452000FFF7C4FE641CE4B2AC42CFD309B0BDE8CF
:10453000F08F00000000C8422DE9FE4F9946DDE9EA
:104540000D6714468A460546DDF830800CE0CDF84C
:1045500000804B4651462846CDE90167FFF7A6FE8D
:1045600005EB560085B2641C2278002AEFD1BDE825
:10457000FE8F000010B5044600224FF4006104488D
:10458000FDF75AFF2046BDE81040012100F0D2BCE3
:104590000008004810B504460122D1020448FDF786
:1045A0004BFF2046BDE81040012100F0C3BC0000D5
:1045B0000008004810B504460122D1020548FDF765
:1045C0003BFF200AFFF7E6FFE0B2BDE81040FFF72F
:1045D000E1BF00000008004800EB8100006E00F021
:1045E000F840704700EB8100006E00F0F840704723
:1045F0008068C0F3C00070478068C0F3C000704797
:104600008068C0F3800070478068C0F38000704706
:10461000C06810F4406F01D000207047012070473F
:10462000042303EAD15310B518444369C1F304517C
:1046300007248C40A3438A401343436110BD0423E5
:1046400003EAD15310B518444369C1F30451072458
:104650008C40A3438A401343436110BD00EB8100AB
:10466000016E21F0004111430166704700EB8100AB
:10467000016E21F0004111430166704730B593B0DF
:1046800000240F9410943C2168461194FBF70CFE13
:1046900034484FF0A041042501604FF44031C0E997
:1046A000011485610121C460C0E9044104774477A5
:1046B000016280F8244080F83840C46380F84040AC
:1046C000FDF76AF908B1FCF7ECF90FA925480F943A
:1046D000FCF71AFD08B1FCF7E4F923480090092023
:1046E000CDE901047F200594CDE90305B8200A90A7
:1046F0008DF8244080208DF825400B9008958DF88A
:1047000026408DF8304069461648FCF7E1F908B1BB
:10471000FCF7C7F91548009040F20F100190694668
:104720001048FCF7D5F908B1FCF7BBF91048009028
:1047300040F21520019069460A48FCF7C9F908B112
:10474000FCF7AFF90B48009040F21B30019069462E
:104750000448FCF7BDF9002801D0FCF7A2F913B01A
:1047600030BD00008000002002003004040060081A
:104770000800900C1000C01030B589B020216846A8
:10478000FBF792FD19481849002401604FF44031AD
:10479000C0E90114C46004250461C0E9054504773B
:1047A00044770121016280F82440C462046380F8E8
:1047B0003840C46380F84040FDF7EEF808B1FCF7DC
:1047C00070F90B4800900620CDE901047F20059484
:1047D000CDE9030569460548FCF746FD002801D0F0
:1047E000FCF75FF909B030BD00010050EC0000207B
:1047F0002000F0140D4808B5816C41F0040181647B
:10480000816C01F004010091816C41F0010181642F
:10481000806C002200F00100009011460B20FDF793
:1048200077FEBDE808400B20FDF764BE0010024093
:104830002DE9F04786B014216846FBF735FD434863
:10484000C16C41F00401C164C16C01F00401059127
:10485000C16C41F02001C164C16C01F020010591DF
:10486000C16C41F00101C164C16C01F0010105910D
:10487000C16C41F00201C164C16C01F002010591FB
:10488000C16C41F00801C164C06C314F00F00800F8
:104890004FF468440590002221463846FDF7CCFDD0
:1048A0004FF400464FF09048002231464046FDF755
:1048B000C3FDDFF8A090002204214846FDF7BCFDAF
:1048C000DFF894A0002240215046FDF7B5FD0125F8
:1048D000CDE9004500240294694638460394FDF76B
:1048E00087FCC0208DE8310069464046FDF780FC1A
:1048F000CDE90054694650460295FDF779FC4FF426
:104900007070CDE90004694638460294FDF770FCEA
:104910000096CDE90154694640460394FDF768FCD2
:1049200004200090CDE90154694648460394FDF700
:104930005FFC40200090CDE9015469465046039445
:10494000FDF756FC06B0BDE8F087000000100240FD
:1049500000080048000C004800040048124810B548
:10496000104901604FF48271416000214FF4706280
:10497000C0E90212022202610122426152028261F6
:104980001822C0E9072107224162C0E90A12016327
:104990004163FEF721FB002803D0BDE81040FCF77F
:1049A00080B810BD0030014058010020124810B5F9
:1049B000104901604FF48271416000214FF4E062C0
:1049C000C0E902120222C0E904211202826110220F
:1049D000C0E9072107224162C0E90A1201630821E8
:1049E0004163FEF7F9FA002803D0BDE81040FCF758
:1049F00058B810BD003C0040BC01002010B598B074
:104A00000024149415941C2168461694FBF74CFC62
:104A1000342107A8FBF748FC31483049C0E90014AD
:104A20002021816041F29A01C0E903148021C0E98C
:104A30000541FFF728F808B1FCF733F87020CDE9FD
:104A4000140414A926481694FEF7EEFC08B1FCF7EE
:104A500028F86020CDE9000402940394049405949E
:104A6000002269461E480694FEF77BFF08B1FCF75A
:104A700018F8042269461A48FEF773FF08B1FCF7DC
:104A800010F8082269461648FEF76BFF08B1FCF7DC
:104A900008F80C2269461248FEF763FF08B1FCF7DC
:104AA00000F80794089409944FF400500A94CDE953
:104AB0000B400D9400030E94CDE90F401194129415
:104AC00007A907481394FEF757FC08B1FBF7E9FF65
:104AD0000348FEF7E7FE18B010BD0000002C0140AF
:104AE000800200203EB500240F48009401940D4937
:104AF0000294C0E9001444F26721C0E90241802118
:104B00008161FEF754FD08B1FBF7CBFF2020009038
:104B1000694602940448FEF787FC002801D0FBF7A1
:104B2000C0FF3EBD00100040CC0200203EB5002476
:104B30000F48009401940D4902940160A921C0E935
:104B4000011440F2E731C16080218161FEF72FFD41
:104B500008B1FBF7A6FF0094694605480294FEF7EA
:104B600063FC002801D0FBF79CFF3EBD0014004011
:104B700018030020184810B5164901604FF4E131C0
:104B80004160002181600C22C160C0E90412816192
:104B9000C161016241628162FFF766FA08B1FBF709
:104BA00080FF00210C48FFF7A7F808B1FBF779FF59
:104BB00000210948FFF77AF808B1FBF772FF0648B1
:104BC000FFF753F8002803D0BDE81040FBF769BF9A
:104BD00010BD00000048004064030020FEE7FEE72F
:104BE00030B5204C4FF48D75B3B0606DA84206D03F
:104BF000FBF75AFF0120C4E9155033B030BD5C22E9
:104C0000194918A8FBF737FB1748C16D2F91016EA2
:104C10003091416E806E5C22CDE9311013481790BF
:104C20001CA96846FBF727FB0DF1600C9CE80F0000
:104C3000FBF7CAFE00EE100A9FED0D1AB8EE400A0F
:104C4000C0EE010AB6EE000A30EEC00AF0EE000A2D
:104C500020EE200ADFED070A20EE200A01F0A0FD79
:104C6000C8E700001C000020EC0000202000F01429
:104C700000F07F450000A04210B5084CE06CB3285E
:104C800005D00A202065B320E0640A2010BD002270
:104C90004FF400510248FDF7CFFBF2E71C00002063
:104CA0000008004810B5234CB4B02068862808D00E
:104CB00001F06EFC642060608620206034B06420C7
:104CC00010BD5C221C4918A8FBF7D5FA1A48C16D23
:104CD0002F91016E3091416E806E5C22CDE93110D2
:104CE000164817901CA96846FBF7C5FA0DF1600C31
:104CF0009CE80F00FBF768FEFBF7FAFB9FED101B2B
:104D000053EC112BFBF782FB9FED0F1B53EC112B88
:104D1000FBF77CFBFBF70CFC00EE100A18210020CF
:104D2000CDE900014FF6FF7304220146FFF7B8FBFF
:104D3000C0E7000000000020EC0000202000F0147C
:104D4000000000000000303F6666666666660A4046
:104D50007047F8B515460E460B46009204460022F1
:104D60004FF4C05100F01AF888B933460022802170
:104D70002046009500F082F848B9334600224FF4EF
:104D8000C0612046009500F009F8002804D0206E8C
:104D900040F0200020660320F8BD00002DE9FE4F02
:104DA0004FF0000A984617460E4604460C9D8DF8B3
:104DB00004A0FDF747FB411BA8EB0105FDF742FBF3
:104DC000814620684FF4C06B0C3002902A4800687E
:104DD000C0EBC00000EB8000000D6843009043E092
:104DE0005E4506D12FB9029800788DF804009DF831
:104DF0000400B8F1FF3F37D0FDF724FBA0EB09001A
:104E0000A84203D215B1009858B32BE0206841683E
:104E100021F0E00141606068B0F5827F0BD1A068AD
:104E2000B0F5004F02D0B0F5806F04D12068016862
:104E300021F040010160A06AB0F5005F09D120684F
:104E4000016821F4005101602068016841F40051BB
:104E50000160012084F85D0084F85CA00320BDE8B7
:104E6000FE8F0025401E0090206880683040B842C8
:104E7000B6D10020F3E70000180000202DE9F84328
:104E80001E46914688460446089DFDF7DBFA401B06
:104E9000351AFDF7D7FA074625480068C0F3CB302E
:104EA000684338E0701C37D0FDF7CCFAC01BA8422D
:104EB00003D215B1009860B32CE02068416821F05E
:104EC000E00141606068B0F5827F0BD1A068B0F569
:104ED000004F02D0B0F5806F04D12068016821F046
:104EE00040010160A06AB0F5005F09D12068016847
:104EF00021F4005101602068016841F40051016013
:104F0000012084F85D00002084F85C000320BDE8E7
:104F1000F8830025401E00902068816838EA01006F
:104F200004D000214945BDD10020F0E70121F9E777
:104F30001800002013B50A464FF0FF3369460248B7
:104F4000FEF73CF91CBD0000BC01002010B5044672
:104F50003620FFF70FFB44B1012C08D0022C08D0FB
:104F6000A020BDE81040FFF715BB0020F9E7C020E6
:104F7000F7E77020F5E77047FDF76ABA10B594B00F
:104F800038216846FBF790F914210EA8FBF78CF93D
:104F90000020FDF7EFFA0120009000040324052112
:104FA0000190CDE9084102204421CDE90A10079083
:104FB0000C900D906846FDF70DFE08B172B6FEE745
:104FC0000F20CDE90E0400201090119012900421C2
:104FD0000EA8FDF7B5FC002801D072B6FEE714B0AC
:104FE00010BD00000448016841F4700101600249ED
:104FF000024880390860704788ED00E00000010831
:105000000148FEF77EBB0000800200200148FEF749
:1050100078BB0000CC0200200148FEF772BB000004
:10502000180300202DE9F04F02682E4B2E4E2F4F13
:10503000DFF8BCC02F4C304D4FF0804B98420BD066
:10504000584509D0B04207D0B84205D0604503D0DA
:10505000A04201D0A84204D122F070084A6842EA76
:105060000802DFF89880DFF89890DFF898A098425F
:1050700011D058450FD0B0420DD0B8420BD060458A
:1050800009D0A04207D0404505D0484503D050453F
:1050900001D0A84203D122F44076CA6832434E6957
:1050A00022F08002324302608A68C2620A68826229
:1050B000984209D0A04207D0404505D0484503D0CA
:1050C000504501D0A84201D1096901630121416124
:1050D0000169C90703D0016921F001010161BDE83F
:1050E000F08F0000002C0140000400400008004048
:1050F000000C0040003401400050014000400140DD
:10510000004401400048014010B501F01F03012197
:10511000046A99408C430462016A9A401143016217
:1051200010BD10B501F00F030421046A99408C43AF
:105130000462016A9A401143016210BD2DE9F047F3
:10514000056A026A22F001020262436882691F4C0A
:1051500025F0020522400C6822F0030214438A68FD
:105160001C4E2A431A4D1C4FDFF870C0DFF87090B8
:10517000DFF870A0A84209D0B04207D0B84205D0ED
:10518000604503D0484501D0504506D122F00808BB
:10519000CA6842EA080222F00402A84209D0B042DA
:1051A00007D0B84205D0604503D0484501D05045EE
:1051B00005D14D6923F440731D438B692B43436034
:1051C0008461496841630262BDE8F0878FFFFEFF9A
:1051D000002C0140003401400040014000440140E7
:1051E0000048014000500140F0B5056A026A22F013
:1051F00010020262426883691C4C1E4E23400C68F8
:1052000023F4407343EA042425F020038D681A4FE9
:1052100043EA0513164DA84203D0B04201D0B8426C
:1052200007D1D1F80CC023F0800343EA0C1323F01C
:105230004003A8420CD0B0420AD0104DA84207D07B
:105240000F4DA84204D00F4DA84201D0B84207D15B
:105250004D6922F4406242EA85028D6942EA850284
:1052600042608461496881630362F0BDFF8FFFFE85
:10527000002C01400034014000500140004001403A
:105280000044014000480140F0B5056A026A22F47A
:10529000807202624368C2691C4C1E4E22400C6838
:1052A00022F00302144325F400728D681A4F42EA7B
:1052B0000522174DA84203D0B04201D0B84207D111
:1052C000D1F80CC022F4006242EA0C2222F480627F
:1052D000A8420CD0B0420AD0104DA84207D0104DC1
:1052E000A84204D00F4DA84201D0B84207D14D6961
:1052F00023F4405343EA05138D6943EA05134360E1
:10530000C4614968C1630262F0BD00008FFFFEFF07
:10531000002C014000340140005001400040014099
:105320000044014000480140F0B5056A026A22F4D9
:10533000805202624268C3691C4C1E4E23400C68B6
:1053400023F4407343EA042425F400538D681A4F74
:1053500043EA0533164DA84203D0B04201D0B8420B
:1053600007D1D1F80CC023F4004343EA0C3323F4F3
:105370008043A8420CD0B0420AD0104DA84207D0BA
:105380000F4DA84204D00F4DA84201D0B84207D11A
:105390004D6922F4404242EA85128D6942EA851243
:1053A0004260C461496801640362F0BDFF8FFFFE83
:1053B000002C0140003401400050014000400140F9
:1053C000004401400048014030B5056A026A22F4F9
:1053D000803202624268036D124C23400C681C4309
:1053E00025F400330D8943EA05430F4DA8420ED042
:1053F0000E4DA8420BD00E4DA84208D00D4DA8422C
:1054000005D00D4DA84202D00C4DA84204D14D69E3
:1054100022F4803242EA05224260046549688164D0
:10542000036230BD8FFFFEFF002C014000340140BD
:10543000004001400044014000480140005001404C
:1054400030B5046A026A22F4801202624268036D77
:10545000134D24F400142B400D6843EA05230D89F5
:1054600044EA05540F4DA8420ED00F4DA8420BD070
:105470000E4DA84208D00E4DA84205D00D4DA842B1
:1054800002D00D4DA84204D14D6922F4802242EA97
:105490008522426003654968C164046230BD000032
:1054A000FF8FFFFE002C014000340140004001400E
:1054B00000440140004801400050014030B5416EB9
:1054C000B9B1026891689268C1F342610B4B520F07
:1054D0009C5CE50003F10804A25CB5FBF2F2A0F8C5
:1054E0006A205A5C615CD200B2FBF1F1A0F868104E
:1054F00030BD0121A0F86A10F8E700006C690108CE
:1055000090F82810090706D501684A68836B22F4D1
:1055100000421A434A6090F82810C90706D0016873
:105520004A68C36A22F400321A434A6090F828108D
:10553000890706D501684A68036B22F480321A4352
:105540004A6090F82810490706D501684A68436BFD
:1055500022F480221A434A6090F82810C90606D522
:1055600001688A68C36B22F480521A438A6090F8FB
:105570002810890606D501688A68036C22F4005257
:105580001A438A6090F82810490611D501684A68C4
:10559000436C22F480121A434A60416CB1F5801FBB
:1055A00006D101684A68836C22F4C0021A434A603B
:1055B00090F82810090606D501684A68C06C22F4E4
:1055C000002202434A6070472DE9F8430026044652
:1055D000C0F89060FCF736FF8046206800684FF006
:1055E000200500076FF07E4713D5434600222904AB
:1055F0002046009700F0BCF958B1216851E8000F2F
:1056000020F0800041E80002002AF6D1C4F888505A
:1056100021E020680068400722D5434600224FF46D
:1056200080012046009700F0A3F9C8B1216851E835
:10563000000F20F4907041E80002002AF6D12068A3
:10564000083050E8001F21F0010140E80012002A54
:10565000F5D1C4F88C5084F884600320BDE8F88349
:10566000C4F88850C4F88C5044F86C6F6660267695
:105670000020F3E710B5806A0021A0F85E10FEF765
:1056800063FB10BD10B5026852E8001F21F4907151
:1056900042E80013002BF6D10E4B0268083252E8A4
:1056A000001F194042E80014002CF6D1C16E0129F8
:1056B00008D1016851E8002F22F0100241E80023D0
:1056C000002BF6D12021C0F88C100021C166416763
:1056D00010BD0000FEFFFFEF2DE9F0410446016818
:1056E00080682269E3691043626900251A43104308
:1056F000DFF84CC20A68934B1A4002430A602068E4
:105700004168E26821F44051114341602168A06979
:10571000614501D0226A10438A688B4B1A400243CC
:105720008A602068C16A626A21F00F011143C16278
:105730008649236886488B420DD1D0F8880010F046
:10574000030006D0012867D0022854D0032851D185
:1057500064E001204FE07F498B420BD1D0F88800F4
:1057600010F00C0047D0042845D0082852D00C284F
:1057700040D153E078498B420BD1D0F8880010F02B
:10578000300038D0102847D0202843D0302831D1DD
:1057900044E072498B420BD1D0F8880010F0C00071
:1057A00029D0402838D0802834D0C02822D135E0F4
:1057B0006B498B420ED1D0F8880010F440701AD09B
:1057C000B0F5807F28D0B0F5007F23D0B0F5407FC2
:1057D00010D123E063450DD1D0F8880010F440606B
:1057E00009D0B0F5806F17D0B0F5006F12D0B0F5CA
:1057F000406F13D010205B4A5B4F00264FF40041EE
:10580000634539D160B102280DD004280DD0082895
:1058100031D10EE00220EEE70420ECE70820EAE7B1
:10582000FDF77CF903E0114603E0FDF79BF9010069
:105830007BD0606A37F810206768B1FBF2F007EBA5
:105840004703834269D8B0EB073F66D80023084678
:105850001946FAF7DFFC090241EA106102027808F2
:10586000101871413A460023FAF7D4FC3F4AA0F5DC
:105870004071914257D950E0E3694FF6EF788B427F
:105880002BD1092849D2DFE800F005080D4825484A
:1058900048480E00FDF742F901E0FDF751F901001B
:1058A00001D142E01146606A37F81000B1FBF0F018
:1058B0004100606801EB5001B1FBF0F1A1F1100073
:1058C00040452AD84FF6F07201EA0200C1F34201C6
:1058D000084328E0FDF746F9E1E709281DD2DFE893
:1058E00000F005080D1C1E1C1C1C0E00FDF716F90F
:1058F00001E0FDF725F9010001D116E01146606ACB
:1059000037F81000B1FBF0F1606801EB5001B1FB1A
:10591000F0F0A0F11001414504D9012505E0FDF7A3
:1059200021F9E8E780B22168C8600120A4F86A0084
:1059300024F8680F2846E6602661BDE8F081000083
:1059400000800040F369FFCFFFF4FF1100380140F1
:10595000001002400044004000480040004C00405D
:10596000005000400024F40054690108FFFC0F00BF
:105970002DE9F047994617460D4604464FF00008BA
:10598000089E33E0701C31D0FCF75CFDA0EB0900F1
:10599000B04218D8BEB120680168490726D5802DCD
:1059A00024D0402D22D0C169C94309070DD4082550
:1059B00005622046FFF766FEC4F8905084F88480A4
:1059C0000120BDE8F0870320FBE7C069C043000564
:1059D0000CD421684FF4006008622046FFF752FEA5
:1059E0002020C4F8900084F88480ECE72068C06927
:1059F00035EA000004D00020B842C3D00020E0E720
:105A00000120F9E70148FEF7A1B900006403002076
:105A1000FEE700000FB4054B10B503A9044A029835
:105A200000F0E4FA10BC5DF814FB000061610108AD
:105A3000780000204100080218BF04200A0E18BF99
:105A400040F001004FF07F4232EA010108BF40F010
:105A50000200012808BF052070470907090E002829
:105A600004DB00F1E02080F80014704700F00F0024
:105A700000F1E02080F8141D7047000010EE101AAD
:105A800008B5444A6846B2EB410F28D94FF0E640CA
:105A9000B0EB410F94BF00204FF0FF300090009812
:105AA000002861DB60EE000A10F0010F45D010F015
:105AB000020FDFED391A9FED391A00EEE11ADFED22
:105AC000381A40EE811A21EEA01AF0EE400A40EE9C
:105AD000010A08BFF1EE600AB0EE600A08BD314B62
